{
  "contractName": "ChipRaceContract",
  "abi": [
    {
      "inputs": [
        {
          "internalType": "contract ERC721Enumerable",
          "name": "g_firstAddress",
          "type": "address"
        },
        {
          "internalType": "contract ERC721Enumerable",
          "name": "_secondAddress",
          "type": "address"
        },
        {
          "internalType": "contract IERC20",
          "name": "_tokenAddress",
          "type": "address"
        },
        {
          "internalType": "address",
          "name": "_oldChip",
          "type": "address"
        }
      ],
      "stateMutability": "nonpayable",
      "type": "constructor"
    },
    {
      "anonymous": false,
      "inputs": [
        {
          "indexed": false,
          "internalType": "uint256",
          "name": "_tokenId",
          "type": "uint256"
        },
        {
          "indexed": false,
          "internalType": "uint256",
          "name": "_passedMins",
          "type": "uint256"
        }
      ],
      "name": "ClaimRewardsFromChipRace",
      "type": "event"
    },
    {
      "anonymous": false,
      "inputs": [
        {
          "indexed": false,
          "internalType": "uint256",
          "name": "_tokenId",
          "type": "uint256"
        },
        {
          "indexed": false,
          "internalType": "uint256",
          "name": "_feeAmount",
          "type": "uint256"
        }
      ],
      "name": "EmergencyExitChipRace",
      "type": "event"
    },
    {
      "anonymous": false,
      "inputs": [
        {
          "indexed": false,
          "internalType": "uint256",
          "name": "_tokenId",
          "type": "uint256"
        },
        {
          "indexed": false,
          "internalType": "uint256",
          "name": "_poolId",
          "type": "uint256"
        }
      ],
      "name": "EnterChipRace",
      "type": "event"
    },
    {
      "anonymous": false,
      "inputs": [
        {
          "indexed": true,
          "internalType": "address",
          "name": "previousOwner",
          "type": "address"
        },
        {
          "indexed": true,
          "internalType": "address",
          "name": "newOwner",
          "type": "address"
        }
      ],
      "name": "OwnershipTransferred",
      "type": "event"
    },
    {
      "anonymous": false,
      "inputs": [
        {
          "indexed": false,
          "internalType": "uint256[]",
          "name": "_tokenIds",
          "type": "uint256[]"
        }
      ],
      "name": "UpdateScore",
      "type": "event"
    },
    {
      "anonymous": false,
      "inputs": [
        {
          "indexed": false,
          "internalType": "uint256",
          "name": "_tokenId",
          "type": "uint256"
        },
        {
          "indexed": false,
          "internalType": "uint256",
          "name": "_feeAmount",
          "type": "uint256"
        }
      ],
      "name": "UpgradeNFT",
      "type": "event"
    },
    {
      "inputs": [],
      "name": "feeAmount",
      "outputs": [
        {
          "internalType": "uint256",
          "name": "",
          "type": "uint256"
        }
      ],
      "stateMutability": "view",
      "type": "function"
    },
    {
      "inputs": [],
      "name": "feePrice",
      "outputs": [
        {
          "internalType": "uint256",
          "name": "",
          "type": "uint256"
        }
      ],
      "stateMutability": "view",
      "type": "function"
    },
    {
      "inputs": [
        {
          "internalType": "uint256",
          "name": "",
          "type": "uint256"
        },
        {
          "internalType": "uint256",
          "name": "",
          "type": "uint256"
        }
      ],
      "name": "g_amountForUpgrade",
      "outputs": [
        {
          "internalType": "uint256",
          "name": "",
          "type": "uint256"
        }
      ],
      "stateMutability": "view",
      "type": "function"
    },
    {
      "inputs": [],
      "name": "g_caller",
      "outputs": [
        {
          "internalType": "address",
          "name": "",
          "type": "address"
        }
      ],
      "stateMutability": "view",
      "type": "function"
    },
    {
      "inputs": [
        {
          "internalType": "string",
          "name": "",
          "type": "string"
        }
      ],
      "name": "g_carType",
      "outputs": [
        {
          "internalType": "uint256",
          "name": "",
          "type": "uint256"
        }
      ],
      "stateMutability": "view",
      "type": "function"
    },
    {
      "inputs": [],
      "name": "g_eventDoubling",
      "outputs": [
        {
          "internalType": "uint256",
          "name": "",
          "type": "uint256"
        }
      ],
      "stateMutability": "view",
      "type": "function"
    },
    {
      "inputs": [],
      "name": "g_maxLockTime",
      "outputs": [
        {
          "internalType": "uint256",
          "name": "",
          "type": "uint256"
        }
      ],
      "stateMutability": "view",
      "type": "function"
    },
    {
      "inputs": [
        {
          "internalType": "uint256",
          "name": "",
          "type": "uint256"
        },
        {
          "internalType": "uint256",
          "name": "",
          "type": "uint256"
        }
      ],
      "name": "g_minableAmount",
      "outputs": [
        {
          "internalType": "uint256",
          "name": "",
          "type": "uint256"
        }
      ],
      "stateMutability": "view",
      "type": "function"
    },
    {
      "inputs": [
        {
          "internalType": "uint256",
          "name": "",
          "type": "uint256"
        }
      ],
      "name": "g_poolRewardsAmount",
      "outputs": [
        {
          "internalType": "uint256",
          "name": "",
          "type": "uint256"
        }
      ],
      "stateMutability": "view",
      "type": "function"
    },
    {
      "inputs": [
        {
          "internalType": "uint256",
          "name": "",
          "type": "uint256"
        }
      ],
      "name": "g_targetScores",
      "outputs": [
        {
          "internalType": "uint256",
          "name": "",
          "type": "uint256"
        }
      ],
      "stateMutability": "view",
      "type": "function"
    },
    {
      "inputs": [
        {
          "internalType": "uint256",
          "name": "",
          "type": "uint256"
        }
      ],
      "name": "g_tokenInfo",
      "outputs": [
        {
          "internalType": "address",
          "name": "owner",
          "type": "address"
        },
        {
          "internalType": "uint256",
          "name": "level",
          "type": "uint256"
        },
        {
          "internalType": "uint256",
          "name": "rewards",
          "type": "uint256"
        },
        {
          "internalType": "uint256",
          "name": "score",
          "type": "uint256"
        },
        {
          "internalType": "uint256",
          "name": "timeStamp",
          "type": "uint256"
        },
        {
          "internalType": "uint256",
          "name": "runningCounter",
          "type": "uint256"
        },
        {
          "internalType": "bool",
          "name": "isRunning",
          "type": "bool"
        },
        {
          "internalType": "bool",
          "name": "isRestored",
          "type": "bool"
        }
      ],
      "stateMutability": "view",
      "type": "function"
    },
    {
      "inputs": [],
      "name": "owner",
      "outputs": [
        {
          "internalType": "address",
          "name": "",
          "type": "address"
        }
      ],
      "stateMutability": "view",
      "type": "function"
    },
    {
      "inputs": [],
      "name": "renounceOwnership",
      "outputs": [],
      "stateMutability": "nonpayable",
      "type": "function"
    },
    {
      "inputs": [
        {
          "internalType": "address",
          "name": "newOwner",
          "type": "address"
        }
      ],
      "name": "transferOwnership",
      "outputs": [],
      "stateMutability": "nonpayable",
      "type": "function"
    },
    {
      "inputs": [
        {
          "internalType": "uint256",
          "name": "_tokenId",
          "type": "uint256"
        }
      ],
      "name": "getLevelOf",
      "outputs": [
        {
          "internalType": "uint256",
          "name": "",
          "type": "uint256"
        }
      ],
      "stateMutability": "view",
      "type": "function"
    },
    {
      "inputs": [
        {
          "internalType": "uint256",
          "name": "_tokenId",
          "type": "uint256"
        }
      ],
      "name": "isRunningChipRace",
      "outputs": [
        {
          "internalType": "bool",
          "name": "",
          "type": "bool"
        }
      ],
      "stateMutability": "view",
      "type": "function"
    },
    {
      "inputs": [
        {
          "internalType": "uint256",
          "name": "_tokenId",
          "type": "uint256"
        }
      ],
      "name": "isUpgradable",
      "outputs": [
        {
          "internalType": "bool",
          "name": "",
          "type": "bool"
        }
      ],
      "stateMutability": "view",
      "type": "function"
    },
    {
      "inputs": [
        {
          "internalType": "string",
          "name": "_tokenURI",
          "type": "string"
        }
      ],
      "name": "getCarTypeOf",
      "outputs": [
        {
          "internalType": "uint256",
          "name": "",
          "type": "uint256"
        }
      ],
      "stateMutability": "view",
      "type": "function"
    },
    {
      "inputs": [
        {
          "internalType": "uint256",
          "name": "_tokenId",
          "type": "uint256"
        }
      ],
      "name": "getRemainingTime",
      "outputs": [
        {
          "internalType": "uint256",
          "name": "",
          "type": "uint256"
        }
      ],
      "stateMutability": "view",
      "type": "function"
    },
    {
      "inputs": [
        {
          "internalType": "uint256",
          "name": "_tokenId",
          "type": "uint256"
        }
      ],
      "name": "getOwnerOf",
      "outputs": [
        {
          "internalType": "address",
          "name": "",
          "type": "address"
        }
      ],
      "stateMutability": "view",
      "type": "function"
    },
    {
      "inputs": [
        {
          "internalType": "uint256",
          "name": "_tokenId",
          "type": "uint256"
        }
      ],
      "name": "getInfo",
      "outputs": [
        {
          "internalType": "uint256",
          "name": "level",
          "type": "uint256"
        },
        {
          "internalType": "uint256",
          "name": "remainningTime",
          "type": "uint256"
        },
        {
          "internalType": "uint256",
          "name": "score",
          "type": "uint256"
        },
        {
          "internalType": "uint256",
          "name": "rewards",
          "type": "uint256"
        },
        {
          "internalType": "bool",
          "name": "canUpgrade",
          "type": "bool"
        },
        {
          "internalType": "bool",
          "name": "isEnter",
          "type": "bool"
        }
      ],
      "stateMutability": "view",
      "type": "function"
    },
    {
      "inputs": [
        {
          "internalType": "uint256",
          "name": "_tokenId",
          "type": "uint256"
        },
        {
          "internalType": "uint256",
          "name": "_poolId",
          "type": "uint256"
        }
      ],
      "name": "enterChipRace",
      "outputs": [],
      "stateMutability": "nonpayable",
      "type": "function"
    },
    {
      "inputs": [
        {
          "internalType": "uint256",
          "name": "_tokenId",
          "type": "uint256"
        }
      ],
      "name": "claimRewards",
      "outputs": [],
      "stateMutability": "nonpayable",
      "type": "function"
    },
    {
      "inputs": [
        {
          "internalType": "uint256",
          "name": "_tokenId",
          "type": "uint256"
        },
        {
          "internalType": "uint256",
          "name": "_amount",
          "type": "uint256"
        }
      ],
      "name": "upgradeNFT",
      "outputs": [],
      "stateMutability": "nonpayable",
      "type": "function"
    },
    {
      "inputs": [
        {
          "internalType": "uint256",
          "name": "_score",
          "type": "uint256"
        },
        {
          "internalType": "uint256[]",
          "name": "tokenIds",
          "type": "uint256[]"
        }
      ],
      "name": "updateScore",
      "outputs": [],
      "stateMutability": "nonpayable",
      "type": "function"
    },
    {
      "inputs": [
        {
          "internalType": "uint256",
          "name": "_tokenId",
          "type": "uint256"
        },
        {
          "internalType": "uint256",
          "name": "_exp",
          "type": "uint256"
        }
      ],
      "name": "updateExp",
      "outputs": [],
      "stateMutability": "nonpayable",
      "type": "function"
    },
    {
      "inputs": [
        {
          "internalType": "uint256",
          "name": "_doubling",
          "type": "uint256"
        }
      ],
      "name": "setEventDoubling",
      "outputs": [],
      "stateMutability": "nonpayable",
      "type": "function"
    },
    {
      "inputs": [
        {
          "internalType": "address",
          "name": "_caller",
          "type": "address"
        }
      ],
      "name": "setCaller",
      "outputs": [],
      "stateMutability": "nonpayable",
      "type": "function"
    },
    {
      "inputs": [
        {
          "internalType": "address",
          "name": "_caller",
          "type": "address"
        }
      ],
      "name": "setExpUpdater",
      "outputs": [],
      "stateMutability": "nonpayable",
      "type": "function"
    },
    {
      "inputs": [
        {
          "internalType": "uint256",
          "name": "_level",
          "type": "uint256"
        },
        {
          "internalType": "uint256",
          "name": "_targetScore",
          "type": "uint256"
        }
      ],
      "name": "setTargetScoreOf",
      "outputs": [],
      "stateMutability": "nonpayable",
      "type": "function"
    },
    {
      "inputs": [
        {
          "internalType": "string",
          "name": "_uri",
          "type": "string"
        },
        {
          "internalType": "uint256",
          "name": "_type",
          "type": "uint256"
        }
      ],
      "name": "setCarType",
      "outputs": [],
      "stateMutability": "nonpayable",
      "type": "function"
    },
    {
      "inputs": [
        {
          "internalType": "uint256",
          "name": "_type",
          "type": "uint256"
        },
        {
          "internalType": "uint256",
          "name": "_level",
          "type": "uint256"
        },
        {
          "internalType": "uint256",
          "name": "_amount",
          "type": "uint256"
        }
      ],
      "name": "setMinableAmount",
      "outputs": [],
      "stateMutability": "nonpayable",
      "type": "function"
    },
    {
      "inputs": [
        {
          "internalType": "uint256",
          "name": "_type",
          "type": "uint256"
        },
        {
          "internalType": "uint256",
          "name": "_level",
          "type": "uint256"
        },
        {
          "internalType": "uint256",
          "name": "_amount",
          "type": "uint256"
        }
      ],
      "name": "setUpgradeAmount",
      "outputs": [],
      "stateMutability": "nonpayable",
      "type": "function"
    },
    {
      "inputs": [
        {
          "internalType": "uint256",
          "name": "_price",
          "type": "uint256"
        }
      ],
      "name": "setFeePrice",
      "outputs": [],
      "stateMutability": "nonpayable",
      "type": "function"
    },
    {
      "inputs": [
        {
          "internalType": "uint256",
          "name": "_time",
          "type": "uint256"
        }
      ],
      "name": "setMaxLockTime",
      "outputs": [],
      "stateMutability": "nonpayable",
      "type": "function"
    },
    {
      "inputs": [],
      "name": "withdrawFeeAmount",
      "outputs": [],
      "stateMutability": "nonpayable",
      "type": "function"
    },
    {
      "inputs": [],
      "name": "withdrawAllFunds",
      "outputs": [],
      "stateMutability": "nonpayable",
      "type": "function"
    },
    {
      "inputs": [
        {
          "internalType": "uint256",
          "name": "_amount",
          "type": "uint256"
        }
      ],
      "name": "depositeFunds",
      "outputs": [],
      "stateMutability": "nonpayable",
      "type": "function"
    },
    {
      "inputs": [
        {
          "internalType": "uint256",
          "name": "_poolId",
          "type": "uint256"
        },
        {
          "internalType": "uint256",
          "name": "_amount",
          "type": "uint256"
        }
      ],
      "name": "depositePoolFunds",
      "outputs": [],
      "stateMutability": "nonpayable",
      "type": "function"
    },
    {
      "inputs": [
        {
          "internalType": "uint256",
          "name": "_poolId",
          "type": "uint256"
        },
        {
          "internalType": "uint256",
          "name": "_amount",
          "type": "uint256"
        }
      ],
      "name": "withdrawPoolFunds",
      "outputs": [],
      "stateMutability": "nonpayable",
      "type": "function"
    },
    {
      "inputs": [
        {
          "internalType": "uint256",
          "name": "_tokenId",
          "type": "uint256"
        }
      ],
      "name": "withdrawNFT",
      "outputs": [],
      "stateMutability": "nonpayable",
      "type": "function"
    },
    {
      "inputs": [
        {
          "internalType": "address",
          "name": "",
          "type": "address"
        },
        {
          "internalType": "address",
          "name": "",
          "type": "address"
        },
        {
          "internalType": "uint256",
          "name": "",
          "type": "uint256"
        },
        {
          "internalType": "bytes",
          "name": "",
          "type": "bytes"
        }
      ],
      "name": "onERC721Received",
      "outputs": [
        {
          "internalType": "bytes4",
          "name": "",
          "type": "bytes4"
        }
      ],
      "stateMutability": "nonpayable",
      "type": "function"
    }
  ],
  "bytecode": "0x60806040523480156200001157600080fd5b50604051620053013803806200530183398181016040528101906200003791906200034d565b620000576200004b6200018d60201b60201c565b6200019560201b60201c565b83600160006101000a81548173ffffffffffffffffffffffffffffffffffffffff021916908373ffffffffffffffffffffffffffffffffffffffff16021790555082600260006101000a81548173ffffffffffffffffffffffffffffffffffffffff021916908373ffffffffffffffffffffffffffffffffffffffff16021790555081600360006101000a81548173ffffffffffffffffffffffffffffffffffffffff021916908373ffffffffffffffffffffffffffffffffffffffff16021790555080600460006101000a81548173ffffffffffffffffffffffffffffffffffffffff021916908373ffffffffffffffffffffffffffffffffffffffff160217905550612760600b819055506000600c81905550678ac7230489e80000600d819055506001600e8190555050505050620003bf565b600033905090565b60008060009054906101000a900473ffffffffffffffffffffffffffffffffffffffff169050816000806101000a81548173ffffffffffffffffffffffffffffffffffffffff021916908373ffffffffffffffffffffffffffffffffffffffff1602179055508173ffffffffffffffffffffffffffffffffffffffff168173ffffffffffffffffffffffffffffffffffffffff167f8be0079c531659141344cd1fd0a4f28419497f9722a3daafe3b4186f6b6457e060405160405180910390a35050565b600080fd5b600073ffffffffffffffffffffffffffffffffffffffff82169050919050565b60006200028b826200025e565b9050919050565b60006200029f826200027e565b9050919050565b620002b18162000292565b8114620002bd57600080fd5b50565b600081519050620002d181620002a6565b92915050565b6000620002e4826200027e565b9050919050565b620002f681620002d7565b81146200030257600080fd5b50565b6000815190506200031681620002eb565b92915050565b62000327816200027e565b81146200033357600080fd5b50565b60008151905062000347816200031c565b92915050565b600080600080608085870312156200036a576200036962000259565b5b60006200037a87828801620002c0565b94505060206200038d87828801620002c0565b9350506040620003a08782880162000305565b9250506060620003b38782880162000336565b91505092959194509250565b614f3280620003cf6000396000f3fe608060405234801561001057600080fd5b506004361061025e5760003560e01c806354d87ef711610146578063a86d01d8116100c3578063dc1666e311610087578063dc1666e31461072e578063dc54886f1461074c578063e6dec1591461077c578063f2fde38b146107b3578063f9578c5e146107cf578063fac9b99c146107eb5761025e565b8063a86d01d81461068e578063acb32222146106aa578063b57c04a6146106da578063ba5ae809146106f6578063beb92f55146107125761025e565b8063742db39a1161010a578063742db39a146105e857806383638710146106045780638da5cb5b146106345780638dd4c45414610652578063999f6196146106705761025e565b806354d87ef714610544578063632987421461057457806369e1540414610590578063714446f8146105ae578063715018a6146105de5761025e565b8063280c084e116101df57806340133278116101a3578063401332781461048457806342e93132146104b457806349649fbf146104d057806351c8244a146104da57806352971076146104f657806354ad9718146105265761025e565b8063280c084e146103e45780632ad4de291461040057806339574ec71461041c5780633cc02c1d146104385780633ff047a6146104685761025e565b806317bc1f2b1161022657806317bc1f2b14610317578063181e0124146103475780631a3cd59a146103775780631d9b0c48146103ac578063245ccdb7146103c85761025e565b8063023245d7146102635780630962ef791461027f57806309be2c391461029b57806311a582e7146102cb578063150b7a02146102e7575b600080fd5b61027d6004803603810190610278919061364a565b6107f5565b005b6102996004803603810190610294919061364a565b610a20565b005b6102b560048036038101906102b091906137bd565b610e90565b6040516102c29190613815565b60405180910390f35b6102e560048036038101906102e0919061388e565b610ebe565b005b61030160048036038101906102fc919061395c565b610f7e565b60405161030e9190613a1a565b60405180910390f35b610331600480360381019061032c9190613a35565b610f92565b60405161033e9190613815565b60405180910390f35b610361600480360381019061035c919061364a565b610fb7565b60405161036e9190613815565b60405180910390f35b610391600480360381019061038c919061364a565b610fe2565b6040516103a396959493929190613a90565b60405180910390f35b6103c660048036038101906103c19190613bb9565b611202565b005b6103e260048036038101906103dd919061364a565b611376565b005b6103fe60048036038101906103f99190613a35565b6113fc565b005b61041a60048036038101906104159190613c15565b6115eb565b005b6104366004803603810190610431919061364a565b61168e565b005b610452600480360381019061044d919061364a565b611714565b60405161045f9190613815565b60405180910390f35b610482600480360381019061047d919061364a565b61172c565b005b61049e6004803603810190610499919061364a565b6118d9565b6040516104ab9190613815565b60405180910390f35b6104ce60048036038101906104c99190613a35565b6118f1565b005b6104d8611989565b005b6104f460048036038101906104ef9190613a35565b611b49565b005b610510600480360381019061050b91906137bd565b611c0d565b60405161051d9190613815565b60405180910390f35b61052e611c35565b60405161053b9190613815565b60405180910390f35b61055e60048036038101906105599190613a35565b611c3b565b60405161056b9190613815565b60405180910390f35b61058e60048036038101906105899190613c71565b611c60565b005b610598611d0a565b6040516105a59190613815565b60405180910390f35b6105c860048036038101906105c3919061364a565b611d10565b6040516105d59190613cc4565b60405180910390f35b6105e6611d3d565b005b61060260048036038101906105fd9190613c71565b611dc5565b005b61061e6004803603810190610619919061364a565b611e6f565b60405161062b9190613cee565b60405180910390f35b61063c611fc2565b6040516106499190613cee565b60405180910390f35b61065a611feb565b6040516106679190613815565b60405180910390f35b610678611ff1565b6040516106859190613815565b60405180910390f35b6106a860048036038101906106a3919061364a565b611ff7565b005b6106c460048036038101906106bf919061364a565b61207d565b6040516106d19190613cc4565b60405180910390f35b6106f460048036038101906106ef9190613a35565b612118565b005b610710600480360381019061070b9190613a35565b61260a565b005b61072c6004803603810190610727919061388e565b6127a6565b005b610736612866565b6040516107439190613cee565b60405180910390f35b6107666004803603810190610761919061364a565b61288c565b6040516107739190613815565b60405180910390f35b6107966004803603810190610791919061364a565b6128ac565b6040516107aa989796959493929190613d09565b60405180910390f35b6107cd60048036038101906107c8919061388e565b61292e565b005b6107e960048036038101906107e49190613a35565b612a25565b005b6107f3612f18565b005b6107fd613086565b73ffffffffffffffffffffffffffffffffffffffff1661081b611fc2565b73ffffffffffffffffffffffffffffffffffffffff1614610871576040517f08c379a000000000000000000000000000000000000000000000000000000000815260040161086890613de4565b60405180910390fd5b60006113888211156108a757600260009054906101000a900473ffffffffffffffffffffffffffffffffffffffff1690506108cd565b600160009054906101000a900473ffffffffffffffffffffffffffffffffffffffff1690505b60006006600084815260200190815260200160002060000160009054906101000a900473ffffffffffffffffffffffffffffffffffffffff169050600073ffffffffffffffffffffffffffffffffffffffff168173ffffffffffffffffffffffffffffffffffffffff1603610977576040517f08c379a000000000000000000000000000000000000000000000000000000000815260040161096e90613e50565b60405180910390fd5b8173ffffffffffffffffffffffffffffffffffffffff166342842e0e3083866040518463ffffffff1660e01b81526004016109b493929190613e70565b600060405180830381600087803b1580156109ce57600080fd5b505af11580156109e2573d6000803e3d6000fd5b50505050600060066000858152602001908152602001600020905060008160060160006101000a81548160ff02191690831515021790555050505050565b6000611388821115610a5657600260009054906101000a900473ffffffffffffffffffffffffffffffffffffffff169050610a7c565b600160009054906101000a900473ffffffffffffffffffffffffffffffffffffffff1690505b3373ffffffffffffffffffffffffffffffffffffffff166006600084815260200190815260200160002060000160009054906101000a900473ffffffffffffffffffffffffffffffffffffffff1673ffffffffffffffffffffffffffffffffffffffff1614610b20576040517f08c379a0000000000000000000000000000000000000000000000000000000008152600401610b1790613ef3565b60405180910390fd5b600115156006600084815260200190815260200160002060060160009054906101000a900460ff16151514610b8a576040517f08c379a0000000000000000000000000000000000000000000000000000000008152600401610b8190613f5f565b60405180910390fd5b6000603c600660008581526020019081526020016000206004015442610bb09190613fae565b610bba9190614011565b9050600060078373ffffffffffffffffffffffffffffffffffffffff1663c87b56dd866040518263ffffffff1660e01b8152600401610bf99190613815565b600060405180830381865afa158015610c16573d6000803e3d6000fd5b505050506040513d6000823e3d601f19601f82011682018060405250810190610c3f91906140e5565b604051610c4c9190614175565b90815260200160405180910390205490506000600660008681526020019081526020016000209050600080600b548510610c8a57600b549050610c8e565b8490505b600e54816008600087815260200190815260200160002060008660010154815260200190815260200160002054610cc5919061418c565b610ccf919061418c565b915081600a6000868152602001908152602001600020541015610d27576040517f08c379a0000000000000000000000000000000000000000000000000000000008152600401610d1e90614258565b60405180910390fd5b610d743383600360009054906101000a900473ffffffffffffffffffffffffffffffffffffffff1673ffffffffffffffffffffffffffffffffffffffff1661308e9092919063ffffffff16565b8573ffffffffffffffffffffffffffffffffffffffff166342842e0e30338a6040518463ffffffff1660e01b8152600401610db193929190613e70565b600060405180830381600087803b158015610dcb57600080fd5b505af1158015610ddf573d6000803e3d6000fd5b50505050818360020154610df39190614278565b836002018190555060008360060160006101000a81548160ff02191690831515021790555081600a600086815260200190815260200160002054610e379190613fae565b600a6000868152602001908152602001600020819055507fc77f5f980a2ccfb16d1d731207e86eb7491294a1f39058ce72159dfb6d0c756a8782604051610e7f9291906142ce565b60405180910390a150505050505050565b6007818051602081018201805184825260208301602085012081835280955050505050506000915090505481565b610ec6613086565b73ffffffffffffffffffffffffffffffffffffffff16610ee4611fc2565b73ffffffffffffffffffffffffffffffffffffffff1614610f3a576040517f08c379a0000000000000000000000000000000000000000000000000000000008152600401610f3190613de4565b60405180910390fd5b80601060006101000a81548173ffffffffffffffffffffffffffffffffffffffff021916908373ffffffffffffffffffffffffffffffffffffffff16021790555050565b600063150b7a0260e01b9050949350505050565b6008602052816000526040600020602052806000526040600020600091509150505481565b6000600660008381526020019081526020016000206004015442610fdb9190613fae565b9050919050565b600080600080600080600015156006600089815260200190815260200160002060060160019054906101000a900460ff161515036110c757600460009054906101000a900473ffffffffffffffffffffffffffffffffffffffff1673ffffffffffffffffffffffffffffffffffffffff16631a3cd59a886040518263ffffffff1660e01b81526004016110759190613815565b60c060405180830381865afa158015611092573d6000803e3d6000fd5b505050506040513d601f19601f820116820180604052508101906110b69190614338565b9550955095509550955095506111f9565b60006006600089815260200190815260200160002060040154426110eb9190613fae565b90506000600660008a81526020019081526020016000206001015490506000808a90506000600560006001866111219190614278565b8152602001908152602001600020541415801561117357506005600060018561114a9190614278565b815260200190815260200160002054600660008d81526020019081526020016000206003015410155b1561117d57600191505b60066000828152602001908152602001600020600101548460066000848152602001908152602001600020600301546006600085815260200190815260200160002060020154856006600087815260200190815260200160002060060160009054906101000a900460ff16995099509950995099509950505050505b91939550919395565b600f60009054906101000a900473ffffffffffffffffffffffffffffffffffffffff1673ffffffffffffffffffffffffffffffffffffffff163373ffffffffffffffffffffffffffffffffffffffff1614611292576040517f08c379a000000000000000000000000000000000000000000000000000000000815260040161128990614437565b60405180910390fd5b60005b815181101561133a5760008282815181106112b3576112b2614457565b5b60200260200101519050600015156006600083815260200190815260200160002060060160019054906101000a900460ff161515036112f6576112f581613114565b5b600060066000838152602001908152602001600020905084816003015461131d9190614278565b81600301819055505050808061133290614486565b915050611295565b507f95b6cc2c2ad9a8f0a452ae21fd0395982a2016f61d0c6af4d88719f9811a33e48160405161136a919061458c565b60405180910390a15050565b61137e613086565b73ffffffffffffffffffffffffffffffffffffffff1661139c611fc2565b73ffffffffffffffffffffffffffffffffffffffff16146113f2576040517f08c379a00000000000000000000000000000000000000000000000000000000081526004016113e990613de4565b60405180910390fd5b80600d8190555050565b611404613086565b73ffffffffffffffffffffffffffffffffffffffff16611422611fc2565b73ffffffffffffffffffffffffffffffffffffffff1614611478576040517f08c379a000000000000000000000000000000000000000000000000000000000815260040161146f90613de4565b60405180910390fd5b600081116114bb576040517f08c379a00000000000000000000000000000000000000000000000000000000081526004016114b2906145fa565b60405180910390fd5b600a6000838152602001908152602001600020548110611510576040517f08c379a000000000000000000000000000000000000000000000000000000000815260040161150790614666565b60405180910390fd5b600360009054906101000a900473ffffffffffffffffffffffffffffffffffffffff1673ffffffffffffffffffffffffffffffffffffffff1663a9059cbb33836040518363ffffffff1660e01b815260040161156d929190614686565b6020604051808303816000875af115801561158c573d6000803e3d6000fd5b505050506040513d601f19601f820116820180604052508101906115b091906146af565b5080600a6000848152602001908152602001600020546115d09190613fae565b600a6000848152602001908152602001600020819055505050565b6115f3613086565b73ffffffffffffffffffffffffffffffffffffffff16611611611fc2565b73ffffffffffffffffffffffffffffffffffffffff1614611667576040517f08c379a000000000000000000000000000000000000000000000000000000000815260040161165e90613de4565b60405180910390fd5b806007836040516116789190614175565b9081526020016040518091039020819055505050565b611696613086565b73ffffffffffffffffffffffffffffffffffffffff166116b4611fc2565b73ffffffffffffffffffffffffffffffffffffffff161461170a576040517f08c379a000000000000000000000000000000000000000000000000000000000815260040161170190613de4565b60405180910390fd5b80600e8190555050565b600a6020528060005260406000206000915090505481565b611734613086565b73ffffffffffffffffffffffffffffffffffffffff16611752611fc2565b73ffffffffffffffffffffffffffffffffffffffff16146117a8576040517f08c379a000000000000000000000000000000000000000000000000000000000815260040161179f90613de4565b60405180910390fd5b600081116117eb576040517f08c379a00000000000000000000000000000000000000000000000000000000081526004016117e2906145fa565b60405180910390fd5b600360009054906101000a900473ffffffffffffffffffffffffffffffffffffffff1673ffffffffffffffffffffffffffffffffffffffff166323b872dd3330846040518463ffffffff1660e01b815260040161184a93929190613e70565b6020604051808303816000875af1158015611869573d6000803e3d6000fd5b505050506040513d601f19601f8201168201806040525081019061188d91906146af565b506000600190505b60068110156118d5576005826118ab9190614011565b600a60008381526020019081526020016000208190555080806118cd90614486565b915050611895565b5050565b60056020528060005260406000206000915090505481565b6118f9613086565b73ffffffffffffffffffffffffffffffffffffffff16611917611fc2565b73ffffffffffffffffffffffffffffffffffffffff161461196d576040517f08c379a000000000000000000000000000000000000000000000000000000000815260040161196490613de4565b60405180910390fd5b8060056000848152602001908152602001600020819055505050565b611991613086565b73ffffffffffffffffffffffffffffffffffffffff166119af611fc2565b73ffffffffffffffffffffffffffffffffffffffff1614611a05576040517f08c379a00000000000000000000000000000000000000000000000000000000081526004016119fc90613de4565b60405180910390fd5b6000600360009054906101000a900473ffffffffffffffffffffffffffffffffffffffff1673ffffffffffffffffffffffffffffffffffffffff166370a08231306040518263ffffffff1660e01b8152600401611a629190613cee565b602060405180830381865afa158015611a7f573d6000803e3d6000fd5b505050506040513d601f19601f82011682018060405250810190611aa391906146dc565b9050600360009054906101000a900473ffffffffffffffffffffffffffffffffffffffff1673ffffffffffffffffffffffffffffffffffffffff1663a9059cbb33836040518363ffffffff1660e01b8152600401611b02929190614686565b6020604051808303816000875af1158015611b21573d6000803e3d6000fd5b505050506040513d601f19601f82011682018060405250810190611b4591906146af565b5050565b601060009054906101000a900473ffffffffffffffffffffffffffffffffffffffff1673ffffffffffffffffffffffffffffffffffffffff163373ffffffffffffffffffffffffffffffffffffffff1614611bd9576040517f08c379a0000000000000000000000000000000000000000000000000000000008152600401611bd09061477b565b60405180910390fd5b6000600660008481526020019081526020016000209050818160030154611c009190614278565b8160030181905550505050565b6000600782604051611c1f9190614175565b9081526020016040518091039020549050919050565b600d5481565b6009602052816000526040600020602052806000526040600020600091509150505481565b611c68613086565b73ffffffffffffffffffffffffffffffffffffffff16611c86611fc2565b73ffffffffffffffffffffffffffffffffffffffff1614611cdc576040517f08c379a0000000000000000000000000000000000000000000000000000000008152600401611cd390613de4565b60405180910390fd5b8060096000858152602001908152602001600020600084815260200190815260200160002081905550505050565b600c5481565b60006006600083815260200190815260200160002060060160009054906101000a900460ff169050919050565b611d45613086565b73ffffffffffffffffffffffffffffffffffffffff16611d63611fc2565b73ffffffffffffffffffffffffffffffffffffffff1614611db9576040517f08c379a0000000000000000000000000000000000000000000000000000000008152600401611db090613de4565b60405180910390fd5b611dc36000613246565b565b611dcd613086565b73ffffffffffffffffffffffffffffffffffffffff16611deb611fc2565b73ffffffffffffffffffffffffffffffffffffffff1614611e41576040517f08c379a0000000000000000000000000000000000000000000000000000000008152600401611e3890613de4565b60405180910390fd5b8060086000858152602001908152602001600020600084815260200190815260200160002081905550505050565b6000611388821115611f1e57600260009054906101000a900473ffffffffffffffffffffffffffffffffffffffff1673ffffffffffffffffffffffffffffffffffffffff16636352211e836040518263ffffffff1660e01b8152600401611ed69190613815565b602060405180830381865afa158015611ef3573d6000803e3d6000fd5b505050506040513d601f19601f82011682018060405250810190611f1791906147b0565b9050611fbd565b600160009054906101000a900473ffffffffffffffffffffffffffffffffffffffff1673ffffffffffffffffffffffffffffffffffffffff16636352211e836040518263ffffffff1660e01b8152600401611f799190613815565b602060405180830381865afa158015611f96573d6000803e3d6000fd5b505050506040513d601f19601f82011682018060405250810190611fba91906147b0565b90505b919050565b60008060009054906101000a900473ffffffffffffffffffffffffffffffffffffffff16905090565b600b5481565b600e5481565b611fff613086565b73ffffffffffffffffffffffffffffffffffffffff1661201d611fc2565b73ffffffffffffffffffffffffffffffffffffffff1614612073576040517f08c379a000000000000000000000000000000000000000000000000000000000815260040161206a90613de4565b60405180910390fd5b80600b8190555050565b600080600660008481526020019081526020016000206001015490506000600560006001846120ac9190614278565b815260200190815260200160002054141580156120fe5750600560006001836120d59190614278565b815260200190815260200160002054600660008581526020019081526020016000206003015410155b1561210d576001915050612113565b60009150505b919050565b600015156006600084815260200190815260200160002060060160019054906101000a900460ff161515036121515761215082613114565b5b600061138883111561218757600260009054906101000a900473ffffffffffffffffffffffffffffffffffffffff1690506121ad565b600160009054906101000a900473ffffffffffffffffffffffffffffffffffffffff1690505b3373ffffffffffffffffffffffffffffffffffffffff163073ffffffffffffffffffffffffffffffffffffffff166383638710856040518263ffffffff1660e01b81526004016121fd9190613815565b602060405180830381865afa15801561221a573d6000803e3d6000fd5b505050506040513d601f19601f8201168201806040525081019061223e91906147b0565b73ffffffffffffffffffffffffffffffffffffffff1614612294576040517f08c379a000000000000000000000000000000000000000000000000000000000815260040161228b90613ef3565b60405180910390fd5b600015156006600085815260200190815260200160002060060160009054906101000a900460ff161515146122fe576040517f08c379a00000000000000000000000000000000000000000000000000000000081526004016122f59061484f565b60405180910390fd5b8160078273ffffffffffffffffffffffffffffffffffffffff1663c87b56dd866040518263ffffffff1660e01b815260040161233a9190613815565b600060405180830381865afa158015612357573d6000803e3d6000fd5b505050506040513d6000823e3d601f19601f8201168201806040525081019061238091906140e5565b60405161238d9190614175565b908152602001604051809103902054146123dc576040517f08c379a00000000000000000000000000000000000000000000000000000000081526004016123d3906148e1565b60405180910390fd5b3073ffffffffffffffffffffffffffffffffffffffff168173ffffffffffffffffffffffffffffffffffffffff1663081812fc856040518263ffffffff1660e01b815260040161242c9190613815565b602060405180830381865afa158015612449573d6000803e3d6000fd5b505050506040513d601f19601f8201168201806040525081019061246d91906147b0565b73ffffffffffffffffffffffffffffffffffffffff16146124c3576040517f08c379a00000000000000000000000000000000000000000000000000000000081526004016124ba90614973565b60405180910390fd5b8073ffffffffffffffffffffffffffffffffffffffff166342842e0e3330866040518463ffffffff1660e01b815260040161250093929190613e70565b600060405180830381600087803b15801561251a57600080fd5b505af115801561252e573d6000803e3d6000fd5b505050506000600660008581526020019081526020016000209050338160000160006101000a81548173ffffffffffffffffffffffffffffffffffffffff021916908373ffffffffffffffffffffffffffffffffffffffff16021790555060018160060160006101000a81548160ff021916908315150217905550600181600501546125ba9190614278565b81600501819055504281600401819055507f9eb3114351ab05e0adb144698c6ddb994eca236c546a7b102438287bbf291f2184846040516125fc9291906142ce565b60405180910390a150505050565b612612613086565b73ffffffffffffffffffffffffffffffffffffffff16612630611fc2565b73ffffffffffffffffffffffffffffffffffffffff1614612686576040517f08c379a000000000000000000000000000000000000000000000000000000000815260040161267d90613de4565b60405180910390fd5b600081116126c9576040517f08c379a00000000000000000000000000000000000000000000000000000000081526004016126c0906145fa565b60405180910390fd5b600360009054906101000a900473ffffffffffffffffffffffffffffffffffffffff1673ffffffffffffffffffffffffffffffffffffffff166323b872dd3330846040518463ffffffff1660e01b815260040161272893929190613e70565b6020604051808303816000875af1158015612747573d6000803e3d6000fd5b505050506040513d601f19601f8201168201806040525081019061276b91906146af565b5080600a60008481526020019081526020016000205461278b9190614278565b600a6000848152602001908152602001600020819055505050565b6127ae613086565b73ffffffffffffffffffffffffffffffffffffffff166127cc611fc2565b73ffffffffffffffffffffffffffffffffffffffff1614612822576040517f08c379a000000000000000000000000000000000000000000000000000000000815260040161281990613de4565b60405180910390fd5b80600f60006101000a81548173ffffffffffffffffffffffffffffffffffffffff021916908373ffffffffffffffffffffffffffffffffffffffff16021790555050565b600f60009054906101000a900473ffffffffffffffffffffffffffffffffffffffff1681565b600060066000838152602001908152602001600020600101549050919050565b60066020528060005260406000206000915090508060000160009054906101000a900473ffffffffffffffffffffffffffffffffffffffff16908060010154908060020154908060030154908060040154908060050154908060060160009054906101000a900460ff16908060060160019054906101000a900460ff16905088565b612936613086565b73ffffffffffffffffffffffffffffffffffffffff16612954611fc2565b73ffffffffffffffffffffffffffffffffffffffff16146129aa576040517f08c379a00000000000000000000000000000000000000000000000000000000081526004016129a190613de4565b60405180910390fd5b600073ffffffffffffffffffffffffffffffffffffffff168173ffffffffffffffffffffffffffffffffffffffff1603612a19576040517f08c379a0000000000000000000000000000000000000000000000000000000008152600401612a1090614a05565b60405180910390fd5b612a2281613246565b50565b600015156006600084815260200190815260200160002060060160019054906101000a900460ff16151503612a5e57612a5d82613114565b5b6000611388831115612a9457600260009054906101000a900473ffffffffffffffffffffffffffffffffffffffff169050612aba565b600160009054906101000a900473ffffffffffffffffffffffffffffffffffffffff1690505b3373ffffffffffffffffffffffffffffffffffffffff163073ffffffffffffffffffffffffffffffffffffffff166383638710856040518263ffffffff1660e01b8152600401612b0a9190613815565b602060405180830381865afa158015612b27573d6000803e3d6000fd5b505050506040513d601f19601f82011682018060405250810190612b4b91906147b0565b73ffffffffffffffffffffffffffffffffffffffff1614612ba1576040517f08c379a0000000000000000000000000000000000000000000000000000000008152600401612b9890613ef3565b60405180910390fd5b600115153073ffffffffffffffffffffffffffffffffffffffff1663acb32222856040518263ffffffff1660e01b8152600401612bde9190613815565b602060405180830381865afa158015612bfb573d6000803e3d6000fd5b505050506040513d601f19601f82011682018060405250810190612c1f91906146af565b151514612c61576040517f08c379a0000000000000000000000000000000000000000000000000000000008152600401612c5890614a97565b60405180910390fd5b600015156006600085815260200190815260200160002060060160009054906101000a900460ff16151514612ccb576040517f08c379a0000000000000000000000000000000000000000000000000000000008152600401612cc290614b29565b60405180910390fd5b600060078273ffffffffffffffffffffffffffffffffffffffff1663c87b56dd866040518263ffffffff1660e01b8152600401612d089190613815565b600060405180830381865afa158015612d25573d6000803e3d6000fd5b505050506040513d6000823e3d601f19601f82011682018060405250810190612d4e91906140e5565b604051612d5b9190614175565b90815260200160405180910390205490506000600660008681526020019081526020016000209050600060096000848152602001908152602001600020600060018460010154612dab9190614278565b81526020019081526020016000205403612dfa576040517f08c379a0000000000000000000000000000000000000000000000000000000008152600401612df190614b95565b60405180910390fd5b8360096000848152602001908152602001600020600060018460010154612e219190614278565b81526020019081526020016000205414612e70576040517f08c379a0000000000000000000000000000000000000000000000000000000008152600401612e6790614c27565b60405180910390fd5b612ebf333086600360009054906101000a900473ffffffffffffffffffffffffffffffffffffffff1673ffffffffffffffffffffffffffffffffffffffff1661330a909392919063ffffffff16565b60018160010154612ed09190614278565b81600101819055507f58db2303108100692517cadf232d1f71f0435084164b17a7fcbf3f96df8864cf8585604051612f099291906142ce565b60405180910390a15050505050565b612f20613086565b73ffffffffffffffffffffffffffffffffffffffff16612f3e611fc2565b73ffffffffffffffffffffffffffffffffffffffff1614612f94576040517f08c379a0000000000000000000000000000000000000000000000000000000008152600401612f8b90613de4565b60405180910390fd5b6000600c5411612fd9576040517f08c379a0000000000000000000000000000000000000000000000000000000008152600401612fd090614c93565b60405180910390fd5b600360009054906101000a900473ffffffffffffffffffffffffffffffffffffffff1673ffffffffffffffffffffffffffffffffffffffff1663a9059cbb33600c546040518363ffffffff1660e01b8152600401613038929190614686565b6020604051808303816000875af1158015613057573d6000803e3d6000fd5b505050506040513d601f19601f8201168201806040525081019061307b91906146af565b506000600c81905550565b600033905090565b61310f8363a9059cbb60e01b84846040516024016130ad929190614686565b604051602081830303815290604052907bffffffffffffffffffffffffffffffffffffffffffffffffffffffff19166020820180517bffffffffffffffffffffffffffffffffffffffffffffffffffffffff8381831617835250505050613393565b505050565b6000600660008381526020019081526020016000209050600080600080600080600460009054906101000a900473ffffffffffffffffffffffffffffffffffffffff1673ffffffffffffffffffffffffffffffffffffffff16631a3cd59a896040518263ffffffff1660e01b815260040161318f9190613815565b60c060405180830381865afa1580156131ac573d6000803e3d6000fd5b505050506040513d601f19601f820116820180604052508101906131d09190614338565b809650819750829850839950849a50859b50505050505050858760010181905550838760030181905550828760020181905550808760060160006101000a81548160ff02191690831515021790555060018760060160016101000a81548160ff0219169083151502179055505050505050505050565b60008060009054906101000a900473ffffffffffffffffffffffffffffffffffffffff169050816000806101000a81548173ffffffffffffffffffffffffffffffffffffffff021916908373ffffffffffffffffffffffffffffffffffffffff1602179055508173ffffffffffffffffffffffffffffffffffffffff168173ffffffffffffffffffffffffffffffffffffffff167f8be0079c531659141344cd1fd0a4f28419497f9722a3daafe3b4186f6b6457e060405160405180910390a35050565b61338d846323b872dd60e01b85858560405160240161332b93929190613e70565b604051602081830303815290604052907bffffffffffffffffffffffffffffffffffffffffffffffffffffffff19166020820180517bffffffffffffffffffffffffffffffffffffffffffffffffffffffff8381831617835250505050613393565b50505050565b60006133f5826040518060400160405280602081526020017f5361666545524332303a206c6f772d6c6576656c2063616c6c206661696c65648152508573ffffffffffffffffffffffffffffffffffffffff1661345a9092919063ffffffff16565b9050600081511115613455578080602001905181019061341591906146af565b613454576040517f08c379a000000000000000000000000000000000000000000000000000000000815260040161344b90614d25565b60405180910390fd5b5b505050565b60606134698484600085613472565b90509392505050565b6060824710156134b7576040517f08c379a00000000000000000000000000000000000000000000000000000000081526004016134ae90614db7565b60405180910390fd5b6134c085613586565b6134ff576040517f08c379a00000000000000000000000000000000000000000000000000000000081526004016134f690614e23565b60405180910390fd5b6000808673ffffffffffffffffffffffffffffffffffffffff1685876040516135289190614e8a565b60006040518083038185875af1925050503d8060008114613565576040519150601f19603f3d011682016040523d82523d6000602084013e61356a565b606091505b509150915061357a828286613599565b92505050949350505050565b600080823b905060008111915050919050565b606083156135a9578290506135f9565b6000835111156135bc5782518084602001fd5b816040517f08c379a00000000000000000000000000000000000000000000000000000000081526004016135f09190614eda565b60405180910390fd5b9392505050565b6000604051905090565b600080fd5b600080fd5b6000819050919050565b61362781613614565b811461363257600080fd5b50565b6000813590506136448161361e565b92915050565b6000602082840312156136605761365f61360a565b5b600061366e84828501613635565b91505092915050565b600080fd5b600080fd5b6000601f19601f8301169050919050565b7f4e487b7100000000000000000000000000000000000000000000000000000000600052604160045260246000fd5b6136ca82613681565b810181811067ffffffffffffffff821117156136e9576136e8613692565b5b80604052505050565b60006136fc613600565b905061370882826136c1565b919050565b600067ffffffffffffffff82111561372857613727613692565b5b61373182613681565b9050602081019050919050565b82818337600083830152505050565b600061376061375b8461370d565b6136f2565b90508281526020810184848401111561377c5761377b61367c565b5b61378784828561373e565b509392505050565b600082601f8301126137a4576137a3613677565b5b81356137b484826020860161374d565b91505092915050565b6000602082840312156137d3576137d261360a565b5b600082013567ffffffffffffffff8111156137f1576137f061360f565b5b6137fd8482850161378f565b91505092915050565b61380f81613614565b82525050565b600060208201905061382a6000830184613806565b92915050565b600073ffffffffffffffffffffffffffffffffffffffff82169050919050565b600061385b82613830565b9050919050565b61386b81613850565b811461387657600080fd5b50565b60008135905061388881613862565b92915050565b6000602082840312156138a4576138a361360a565b5b60006138b284828501613879565b91505092915050565b600067ffffffffffffffff8211156138d6576138d5613692565b5b6138df82613681565b9050602081019050919050565b60006138ff6138fa846138bb565b6136f2565b90508281526020810184848401111561391b5761391a61367c565b5b61392684828561373e565b509392505050565b600082601f83011261394357613942613677565b5b81356139538482602086016138ec565b91505092915050565b600080600080608085870312156139765761397561360a565b5b600061398487828801613879565b945050602061399587828801613879565b93505060406139a687828801613635565b925050606085013567ffffffffffffffff8111156139c7576139c661360f565b5b6139d38782880161392e565b91505092959194509250565b60007fffffffff0000000000000000000000000000000000000000000000000000000082169050919050565b613a14816139df565b82525050565b6000602082019050613a2f6000830184613a0b565b92915050565b60008060408385031215613a4c57613a4b61360a565b5b6000613a5a85828601613635565b9250506020613a6b85828601613635565b9150509250929050565b60008115159050919050565b613a8a81613a75565b82525050565b600060c082019050613aa56000830189613806565b613ab26020830188613806565b613abf6040830187613806565b613acc6060830186613806565b613ad96080830185613a81565b613ae660a0830184613a81565b979650505050505050565b600067ffffffffffffffff821115613b0c57613b0b613692565b5b602082029050602081019050919050565b600080fd5b6000613b35613b3084613af1565b6136f2565b90508083825260208201905060208402830185811115613b5857613b57613b1d565b5b835b81811015613b815780613b6d8882613635565b845260208401935050602081019050613b5a565b5050509392505050565b600082601f830112613ba057613b9f613677565b5b8135613bb0848260208601613b22565b91505092915050565b60008060408385031215613bd057613bcf61360a565b5b6000613bde85828601613635565b925050602083013567ffffffffffffffff811115613bff57613bfe61360f565b5b613c0b85828601613b8b565b9150509250929050565b60008060408385031215613c2c57613c2b61360a565b5b600083013567ffffffffffffffff811115613c4a57613c4961360f565b5b613c568582860161378f565b9250506020613c6785828601613635565b9150509250929050565b600080600060608486031215613c8a57613c8961360a565b5b6000613c9886828701613635565b9350506020613ca986828701613635565b9250506040613cba86828701613635565b9150509250925092565b6000602082019050613cd96000830184613a81565b92915050565b613ce881613850565b82525050565b6000602082019050613d036000830184613cdf565b92915050565b600061010082019050613d1f600083018b613cdf565b613d2c602083018a613806565b613d396040830189613806565b613d466060830188613806565b613d536080830187613806565b613d6060a0830186613806565b613d6d60c0830185613a81565b613d7a60e0830184613a81565b9998505050505050505050565b600082825260208201905092915050565b7f4f776e61626c653a2063616c6c6572206973206e6f7420746865206f776e6572600082015250565b6000613dce602083613d87565b9150613dd982613d98565b602082019050919050565b60006020820190508181036000830152613dfd81613dc1565b9050919050565b7f5468697320746f6b656e2069736e2774207374616b6564210000000000000000600082015250565b6000613e3a601883613d87565b9150613e4582613e04565b602082019050919050565b60006020820190508181036000830152613e6981613e2d565b9050919050565b6000606082019050613e856000830186613cdf565b613e926020830185613cdf565b613e9f6040830184613806565b949350505050565b7f596f7520617265206e6f742061206f776e6572206f662074686973204e465400600082015250565b6000613edd601f83613d87565b9150613ee882613ea7565b602082019050919050565b60006020820190508181036000830152613f0c81613ed0565b9050919050565b7f596f75206469646e27742072756e207468652072616365210000000000000000600082015250565b6000613f49601883613d87565b9150613f5482613f13565b602082019050919050565b60006020820190508181036000830152613f7881613f3c565b9050919050565b7f4e487b7100000000000000000000000000000000000000000000000000000000600052601160045260246000fd5b6000613fb982613614565b9150613fc483613614565b925082821015613fd757613fd6613f7f565b5b828203905092915050565b7f4e487b7100000000000000000000000000000000000000000000000000000000600052601260045260246000fd5b600061401c82613614565b915061402783613614565b92508261403757614036613fe2565b5b828204905092915050565b60005b83811015614060578082015181840152602081019050614045565b8381111561406f576000848401525b50505050565b60006140886140838461370d565b6136f2565b9050828152602081018484840111156140a4576140a361367c565b5b6140af848285614042565b509392505050565b600082601f8301126140cc576140cb613677565b5b81516140dc848260208601614075565b91505092915050565b6000602082840312156140fb576140fa61360a565b5b600082015167ffffffffffffffff8111156141195761411861360f565b5b614125848285016140b7565b91505092915050565b600081519050919050565b600081905092915050565b600061414f8261412e565b6141598185614139565b9350614169818560208601614042565b80840191505092915050565b60006141818284614144565b915081905092915050565b600061419782613614565b91506141a283613614565b9250817fffffffffffffffffffffffffffffffffffffffffffffffffffffffffffffffff04831182151516156141db576141da613f7f565b5b828202905092915050565b7f4e6f20656e6f756768207265776172647320616d6f756e7420696e207468617460008201527f20706f6f6c000000000000000000000000000000000000000000000000000000602082015250565b6000614242602583613d87565b915061424d826141e6565b604082019050919050565b6000602082019050818103600083015261427181614235565b9050919050565b600061428382613614565b915061428e83613614565b9250827fffffffffffffffffffffffffffffffffffffffffffffffffffffffffffffffff038211156142c3576142c2613f7f565b5b828201905092915050565b60006040820190506142e36000830185613806565b6142f06020830184613806565b9392505050565b6000815190506143068161361e565b92915050565b61431581613a75565b811461432057600080fd5b50565b6000815190506143328161430c565b92915050565b60008060008060008060c087890312156143555761435461360a565b5b600061436389828a016142f7565b965050602061437489828a016142f7565b955050604061438589828a016142f7565b945050606061439689828a016142f7565b93505060806143a789828a01614323565b92505060a06143b889828a01614323565b9150509295509295509295565b7f546869732066756e6374696f6e2069732063616c6c6564206279206f6e6c792060008201527f50765020636f6e74726163740000000000000000000000000000000000000000602082015250565b6000614421602c83613d87565b915061442c826143c5565b604082019050919050565b6000602082019050818103600083015261445081614414565b9050919050565b7f4e487b7100000000000000000000000000000000000000000000000000000000600052603260045260246000fd5b600061449182613614565b91507fffffffffffffffffffffffffffffffffffffffffffffffffffffffffffffffff82036144c3576144c2613f7f565b5b600182019050919050565b600081519050919050565b600082825260208201905092915050565b6000819050602082019050919050565b61450381613614565b82525050565b600061451583836144fa565b60208301905092915050565b6000602082019050919050565b6000614539826144ce565b61454381856144d9565b935061454e836144ea565b8060005b8381101561457f5781516145668882614509565b975061457183614521565b925050600181019050614552565b5085935050505092915050565b600060208201905081810360008301526145a6818461452e565b905092915050565b7f4e6f2066756e6473000000000000000000000000000000000000000000000000600082015250565b60006145e4600883613d87565b91506145ef826145ae565b602082019050919050565b60006020820190508181036000830152614613816145d7565b9050919050565b7f4e6f20656e6f7567682066756e64730000000000000000000000000000000000600082015250565b6000614650600f83613d87565b915061465b8261461a565b602082019050919050565b6000602082019050818103600083015261467f81614643565b9050919050565b600060408201905061469b6000830185613cdf565b6146a86020830184613806565b9392505050565b6000602082840312156146c5576146c461360a565b5b60006146d384828501614323565b91505092915050565b6000602082840312156146f2576146f161360a565b5b6000614700848285016142f7565b91505092915050565b7f596f752063616e2774207570646174652073636f726520627920796f7572736560008201527f6c66210000000000000000000000000000000000000000000000000000000000602082015250565b6000614765602383613d87565b915061477082614709565b604082019050919050565b6000602082019050818103600083015261479481614758565b9050919050565b6000815190506147aa81613862565b92915050565b6000602082840312156147c6576147c561360a565b5b60006147d48482850161479b565b91505092915050565b7f596f752061726520616c72656164792072756e6e696e6720776974682074686960008201527f73204e4654000000000000000000000000000000000000000000000000000000602082015250565b6000614839602583613d87565b9150614844826147dd565b604082019050919050565b600060208201905081810360008301526148688161482c565b9050919050565b7f596f752063616e277420656e746572207468697320706f6f6c2077697468207460008201527f686973204e465400000000000000000000000000000000000000000000000000602082015250565b60006148cb602783613d87565b91506148d68261486f565b604082019050919050565b600060208201905081810360008301526148fa816148be565b9050919050565b7f52657175697265204e4654206f776e657273686970207472616e73666572206160008201527f7070726f76616c00000000000000000000000000000000000000000000000000602082015250565b600061495d602783613d87565b915061496882614901565b604082019050919050565b6000602082019050818103600083015261498c81614950565b9050919050565b7f4f776e61626c653a206e6577206f776e657220697320746865207a65726f206160008201527f6464726573730000000000000000000000000000000000000000000000000000602082015250565b60006149ef602683613d87565b91506149fa82614993565b604082019050919050565b60006020820190508181036000830152614a1e816149e2565b9050919050565b7f596f752063616e27742075706772616465204e4654206265636175736520646960008201527f646e2774207265616368207461726765742073636f7265000000000000000000602082015250565b6000614a81603783613d87565b9150614a8c82614a25565b604082019050919050565b60006020820190508181036000830152614ab081614a74565b9050919050565b7f596f752063616e27742075706772616465204e465420647572696e672072616360008201527f696e670000000000000000000000000000000000000000000000000000000000602082015250565b6000614b13602383613d87565b9150614b1e82614ab7565b604082019050919050565b60006020820190508181036000830152614b4281614b06565b9050919050565b7f596f752063616e27742075706772616465204e465420616e796d6f7265000000600082015250565b6000614b7f601d83613d87565b9150614b8a82614b49565b602082019050919050565b60006020820190508181036000830152614bae81614b72565b9050919050565b7f596f75206469646e27742073656e6420656e6f75676820616d6f756e7420666f60008201527f7220557067726164650000000000000000000000000000000000000000000000602082015250565b6000614c11602983613d87565b9150614c1c82614bb5565b604082019050919050565b60006020820190508181036000830152614c4081614c04565b9050919050565b7f4e6f2066656520616d6f756e7421000000000000000000000000000000000000600082015250565b6000614c7d600e83613d87565b9150614c8882614c47565b602082019050919050565b60006020820190508181036000830152614cac81614c70565b9050919050565b7f5361666545524332303a204552433230206f7065726174696f6e20646964206e60008201527f6f74207375636365656400000000000000000000000000000000000000000000602082015250565b6000614d0f602a83613d87565b9150614d1a82614cb3565b604082019050919050565b60006020820190508181036000830152614d3e81614d02565b9050919050565b7f416464726573733a20696e73756666696369656e742062616c616e636520666f60008201527f722063616c6c0000000000000000000000000000000000000000000000000000602082015250565b6000614da1602683613d87565b9150614dac82614d45565b604082019050919050565b60006020820190508181036000830152614dd081614d94565b9050919050565b7f416464726573733a2063616c6c20746f206e6f6e2d636f6e7472616374000000600082015250565b6000614e0d601d83613d87565b9150614e1882614dd7565b602082019050919050565b60006020820190508181036000830152614e3c81614e00565b9050919050565b600081519050919050565b600081905092915050565b6000614e6482614e43565b614e6e8185614e4e565b9350614e7e818560208601614042565b80840191505092915050565b6000614e968284614e59565b915081905092915050565b6000614eac8261412e565b614eb68185613d87565b9350614ec6818560208601614042565b614ecf81613681565b840191505092915050565b60006020820190508181036000830152614ef48184614ea1565b90509291505056fea2646970667358221220b4b79f2a9f1a348f3dea7cd69788594e7e10ed42b6be42045fc98f165e81932364736f6c634300080d0033",
  "immutableReferences": {},
  "source": "// SPDX-License-Identifier: UNLICENSED\r\npragma solidity ^0.8.0;\r\n\r\nimport \"@openzeppelin/contracts/token/ERC721/IERC721Receiver.sol\";\r\nimport \"@openzeppelin/contracts/token/ERC721/extensions/ERC721Enumerable.sol\";\r\nimport \"@openzeppelin/contracts/token/ERC20/IERC20.sol\";\r\nimport \"@openzeppelin/contracts/access/Ownable.sol\";\r\nimport \"@openzeppelin/contracts/token/ERC20/utils/SafeERC20.sol\";\r\ninterface IOldChipRaceContract {\r\n     function getInfo(uint256 _tokenId) external view returns(uint256 level, uint256 remainningTime, uint256 score, uint256 rewards, bool canUpgrade, bool isEnter);\r\n}\r\ncontract ChipRaceContract is IERC721Receiver, Ownable {\r\n    using SafeERC20 for IERC20;\r\n    ERC721Enumerable g_firstNftAddress;\r\n    ERC721Enumerable g_secondNftAddress;\r\n    IERC20 g_craceToken;\r\n    IOldChipRaceContract g_oldContract;\r\n\r\n    struct TokenInfo {\r\n        address owner;\r\n        uint256 level;\r\n        uint256 rewards;\r\n        uint256 score;\r\n        uint256 timeStamp;\r\n        uint256 runningCounter;\r\n        bool isRunning;\r\n        bool isRestored;\r\n    }\r\n    //Variable for score per level\r\n    mapping(uint256 => uint256) public g_targetScores;\r\n    //Variable for save info per nft token\r\n    mapping(uint256 => TokenInfo) public g_tokenInfo;\r\n    //Variable for car type\r\n    mapping(string => uint256) public g_carType;\r\n    //Variable for reward system\r\n    mapping(uint256 => mapping(uint256 => uint256)) public g_minableAmount;\r\n    //Variable for upgrade NFT\r\n    mapping(uint256 => mapping(uint256 => uint256)) public g_amountForUpgrade;\r\n\r\n    mapping(uint256 => uint256) public g_poolRewardsAmount;\r\n\r\n    uint256 public g_maxLockTime;\r\n    uint256 public feeAmount;\r\n    uint256 public feePrice;\r\n    uint256 public g_eventDoubling;\r\n    address public g_caller;\r\n    address private g_expUpdater;\r\n\r\n    event EnterChipRace(uint256 _tokenId, uint256 _poolId);\r\n    event EmergencyExitChipRace(uint256 _tokenId, uint256 _feeAmount);\r\n    event ClaimRewardsFromChipRace(uint256 _tokenId, uint256 _passedMins);\r\n    event UpgradeNFT(uint256 _tokenId, uint256 _feeAmount);\r\n    event UpdateScore(uint256[] _tokenIds);\r\n\r\n    constructor(ERC721Enumerable g_firstAddress,ERC721Enumerable _secondAddress, IERC20 _tokenAddress, address _oldChip ) {\r\n        g_firstNftAddress = g_firstAddress;\r\n        g_secondNftAddress = _secondAddress;\r\n        g_craceToken = _tokenAddress;\r\n        g_oldContract = IOldChipRaceContract(_oldChip);\r\n        g_maxLockTime = 60 * 24 * 7;\r\n        feeAmount = 0;\r\n        feePrice = 10 * 10 ** 18;\r\n        g_eventDoubling = 1;\r\n    }\r\n    function restoreInfo(uint256 _tokenId) internal {\r\n        TokenInfo storage info = g_tokenInfo[_tokenId];\r\n        uint256 level;\r\n        uint256 remainningTime;\r\n        uint256 score;\r\n        uint256 rewards;\r\n        bool canUpgrade;\r\n        bool isEnter;\r\n        (level, remainningTime, score, rewards, canUpgrade, isEnter) = g_oldContract.getInfo(_tokenId);\r\n        info.level = level;\r\n        info.score = score;\r\n        info.rewards = rewards;\r\n        info.isRunning = isEnter;\r\n        info.isRestored = true;\r\n    }\r\n    //------------------------External Functions--------------------------------------\r\n    function getLevelOf(uint256 _tokenId) external view returns(uint256) {\r\n        return g_tokenInfo[_tokenId].level;\r\n    }\r\n    function isRunningChipRace(uint256 _tokenId) external view returns(bool) {\r\n        return g_tokenInfo[_tokenId].isRunning;\r\n    }\r\n    function isUpgradable(uint256 _tokenId) external view returns (bool) {\r\n        uint256 level = g_tokenInfo[_tokenId].level;\r\n        if ((g_targetScores[level + 1] != 0) &&(g_tokenInfo[_tokenId].score >= g_targetScores[level + 1]))\r\n            return true;\r\n        return false;\r\n    }\r\n    function getCarTypeOf(string memory _tokenURI) external view returns(uint256) {\r\n        return g_carType[_tokenURI];\r\n    }\r\n    function getRemainingTime(uint256 _tokenId) external view returns(uint256) {\r\n        return block.timestamp - g_tokenInfo[_tokenId].timeStamp;\r\n    }\r\n    function getOwnerOf(uint256 _tokenId) external view returns(address) {\r\n        if(_tokenId > 5000)\r\n            return g_secondNftAddress.ownerOf(_tokenId);\r\n       \r\n        return g_firstNftAddress.ownerOf(_tokenId);\r\n    }\r\n    function getInfo(uint256 _tokenId) external view returns(uint256 level, uint256 remainningTime, uint256 score, uint256 rewards, bool canUpgrade, bool isEnter) {\r\n        if(g_tokenInfo[_tokenId].isRestored == false)\r\n            return g_oldContract.getInfo(_tokenId);\r\n\r\n        uint256 remainTime = block.timestamp - g_tokenInfo[_tokenId].timeStamp;\r\n        uint256 tokenLevel = g_tokenInfo[_tokenId].level;\r\n        bool flag = false;\r\n        uint256 id = _tokenId;\r\n        if ((g_targetScores[tokenLevel + 1] != 0) &&(g_tokenInfo[_tokenId].score >= g_targetScores[tokenLevel + 1]))\r\n            flag = true;\r\n        return(g_tokenInfo[id].level, remainTime, g_tokenInfo[id].score, g_tokenInfo[id].rewards, flag, g_tokenInfo[id].isRunning);\r\n    }\r\n    function enterChipRace(uint256 _tokenId, uint256 _poolId) external {\r\n        if(g_tokenInfo[_tokenId].isRestored == false)\r\n            restoreInfo(_tokenId);\r\n\r\n        ERC721Enumerable g_nftFactoryAddress;\r\n        if(_tokenId > 5000)\r\n            g_nftFactoryAddress = g_secondNftAddress;\r\n        else\r\n            g_nftFactoryAddress = g_firstNftAddress;\r\n\r\n        require(this.getOwnerOf(_tokenId) == msg.sender, \"You are not a owner of this NFT\");\r\n        require(g_tokenInfo[_tokenId].isRunning == false, \"You are already running with this NFT\");\r\n        require(g_carType[g_nftFactoryAddress.tokenURI(_tokenId)] == _poolId, \"You can't enter this pool with this NFT\");\r\n        require(g_nftFactoryAddress.getApproved(_tokenId) == address(this), \"Require NFT ownership transfer approval\");\r\n\r\n        g_nftFactoryAddress.safeTransferFrom(msg.sender, address(this), _tokenId);\r\n        TokenInfo storage info = g_tokenInfo[_tokenId];\r\n        info.owner = msg.sender;\r\n        info.isRunning = true;\r\n        info.runningCounter = info.runningCounter + 1;\r\n        info.timeStamp = block.timestamp;\r\n        emit EnterChipRace(_tokenId, _poolId);\r\n    }\r\n    function claimRewards(uint256 _tokenId) external {\r\n        ERC721Enumerable g_nftFactoryAddress;\r\n        if(_tokenId > 5000)\r\n            g_nftFactoryAddress = g_secondNftAddress;\r\n        else\r\n            g_nftFactoryAddress = g_firstNftAddress;\r\n\r\n        require(g_tokenInfo[_tokenId].owner == msg.sender, \"You are not a owner of this NFT\");\r\n        require(g_tokenInfo[_tokenId].isRunning == true, \"You didn't run the race!\");\r\n\r\n        \r\n        uint256 passedMins = (block.timestamp - g_tokenInfo[_tokenId].timeStamp) / 60;\r\n        uint256 carType = g_carType[g_nftFactoryAddress.tokenURI(_tokenId)];\r\n        TokenInfo storage info = g_tokenInfo[_tokenId];\r\n        uint256 amount = 0;\r\n        uint256 times = 0;\r\n        if(passedMins >= g_maxLockTime)\r\n            times = g_maxLockTime;\r\n            \r\n        else\r\n            times = passedMins;\r\n\r\n        amount = g_minableAmount[carType][info.level] * times * g_eventDoubling;\r\n        require(g_poolRewardsAmount[carType] >= amount, \"No enough rewards amount in that pool\");\r\n\r\n        g_craceToken.safeTransfer(msg.sender, amount);\r\n        g_nftFactoryAddress.safeTransferFrom(address(this), msg.sender, _tokenId);\r\n        info.rewards = info.rewards + amount;\r\n        info.isRunning = false;\r\n        g_poolRewardsAmount[carType] = g_poolRewardsAmount[carType] - amount;\r\n        emit ClaimRewardsFromChipRace(_tokenId, times);\r\n    }\r\n\r\n    function upgradeNFT(uint256 _tokenId, uint256 _amount) external {\r\n        if(g_tokenInfo[_tokenId].isRestored == false)\r\n            restoreInfo(_tokenId);\r\n\r\n        ERC721Enumerable g_nftFactoryAddress;\r\n        if(_tokenId > 5000)\r\n            g_nftFactoryAddress = g_secondNftAddress;\r\n        else\r\n            g_nftFactoryAddress = g_firstNftAddress;\r\n\r\n        require(this.getOwnerOf(_tokenId) == msg.sender, \"You are not a owner of this NFT\" );\r\n        require(this.isUpgradable(_tokenId) == true, \"You can't upgrade NFT because didn't reach target score\");\r\n        require(g_tokenInfo[_tokenId].isRunning == false, \"You can't upgrade NFT during racing\");\r\n        uint256 carType = g_carType[g_nftFactoryAddress.tokenURI(_tokenId)];\r\n        TokenInfo storage info = g_tokenInfo[_tokenId];\r\n        require(g_amountForUpgrade[carType][info.level + 1] != 0, \"You can't upgrade NFT anymore\");\r\n        require(g_amountForUpgrade[carType][info.level + 1] == _amount, \"You didn't send enough amount for Upgrade\");\r\n        g_craceToken.safeTransferFrom(msg.sender, address(this), _amount);\r\n        info.level = info.level + 1;\r\n        emit UpgradeNFT(_tokenId, _amount);\r\n    }\r\n    \r\n    function updateScore(uint256 _score, uint256[] memory tokenIds) external {\r\n        require(msg.sender == g_caller, \"This function is called by only PvP contract\");\r\n        \r\n        for(uint i = 0; i < tokenIds.length; i++) {\r\n            uint256 tokenId = tokenIds[i];\r\n            if(g_tokenInfo[tokenId].isRestored == false)\r\n                restoreInfo(tokenId);\r\n            TokenInfo storage info = g_tokenInfo[tokenId];\r\n            info.score = info.score + _score;\r\n        }\r\n        emit UpdateScore(tokenIds);\r\n    }\r\n    function updateExp(uint256 _tokenId, uint256 _exp) external {\r\n        require(msg.sender == g_expUpdater, \"You can't update score by yourself!\");\r\n        TokenInfo storage info = g_tokenInfo[_tokenId];\r\n        info.score = info.score + _exp;\r\n    }\r\n    //------------------------Internal Functions--------------------------------------\r\n\r\n\r\n    //------------------------Owner Functions--------------------------------------\r\n    function setEventDoubling(uint256 _doubling) external onlyOwner {\r\n        g_eventDoubling = _doubling;\r\n    }\r\n    function setCaller(address _caller) external onlyOwner {\r\n        g_caller = _caller;\r\n    }\r\n    function setExpUpdater(address _caller) external onlyOwner {\r\n        g_expUpdater = _caller;\r\n    }\r\n    function setTargetScoreOf(uint256 _level, uint256 _targetScore) external onlyOwner {\r\n        g_targetScores[_level] = _targetScore;\r\n    }\r\n    function setCarType(string memory _uri, uint256 _type) external onlyOwner {\r\n        g_carType[_uri] = _type;\r\n    }\r\n    function setMinableAmount(uint256 _type, uint256 _level, uint256 _amount) external onlyOwner {\r\n        g_minableAmount[_type][_level] = _amount ;\r\n    }\r\n    function setUpgradeAmount(uint256 _type, uint256 _level, uint256 _amount) external onlyOwner {\r\n        g_amountForUpgrade[_type][_level] = _amount;\r\n    }\r\n    function setFeePrice(uint256 _price) external onlyOwner {\r\n        feePrice = _price;\r\n    }\r\n    function setMaxLockTime(uint256 _time) external onlyOwner {\r\n        g_maxLockTime = _time;\r\n    }\r\n    function withdrawFeeAmount() external onlyOwner {\r\n        require(feeAmount > 0, \"No fee amount!\");\r\n        g_craceToken.transfer(msg.sender, feeAmount);\r\n        feeAmount = 0;\r\n    }\r\n    function withdrawAllFunds() external onlyOwner {\r\n        uint256 amount = g_craceToken.balanceOf(address(this));\r\n        g_craceToken.transfer(msg.sender, amount);\r\n    }\r\n    function depositeFunds(uint256 _amount) external onlyOwner {\r\n        require(_amount > 0, \"No funds\");\r\n        g_craceToken.transferFrom(msg.sender, address(this), _amount);\r\n        for(uint i = 1; i < 6; i++)\r\n            g_poolRewardsAmount[i] = _amount / 5;\r\n    }\r\n    function depositePoolFunds(uint256 _poolId, uint256 _amount) external onlyOwner {\r\n        require(_amount > 0, \"No funds\");\r\n        g_craceToken.transferFrom(msg.sender, address(this), _amount);\r\n        g_poolRewardsAmount[_poolId] = g_poolRewardsAmount[_poolId] + _amount;\r\n    }\r\n    \r\n    function withdrawPoolFunds(uint256 _poolId, uint256 _amount) external onlyOwner {\r\n        require(_amount > 0, \"No funds\");\r\n        require((_amount) < g_poolRewardsAmount[_poolId], \"No enough funds\");\r\n        g_craceToken.transfer(msg.sender, _amount );\r\n        g_poolRewardsAmount[_poolId] = g_poolRewardsAmount[_poolId] - _amount;\r\n    }\r\n\r\n    function withdrawNFT(uint256 _tokenId) external onlyOwner {\r\n        ERC721Enumerable g_nftFactoryAddress;\r\n        if(_tokenId > 5000)\r\n            g_nftFactoryAddress = g_secondNftAddress;\r\n        else\r\n            g_nftFactoryAddress = g_firstNftAddress;\r\n        address owner = g_tokenInfo[_tokenId].owner;\r\n        require(owner != address(0), \"This token isn't staked!\");\r\n        g_nftFactoryAddress.safeTransferFrom(address(this), owner, _tokenId);\r\n\r\n        TokenInfo storage info = g_tokenInfo[_tokenId];\r\n        info.isRunning = false;\r\n    }\r\n\r\n    function onERC721Received(\r\n        address,\r\n        address,\r\n        uint256,\r\n        bytes memory\r\n    ) public virtual override returns (bytes4) {\r\n        return this.onERC721Received.selector;\r\n    }\r\n}",
  "sourcePath": "G:\\2021\\blockchain\\Work\\2021.12.1. CRace NFT Market place\\work\\New Folder\\contracts\\ChipRace.sol",
  "compiler": {
    "name": "solc",
    "version": "0.8.13+commit.abaa5c0e.Emscripten.clang"
  },
  "schemaVersion": "3.4.4",
  "updatedAt": "2022-03-17T01:29:17.263Z",
  "devdoc": {
    "kind": "dev",
    "methods": {
      "owner()": {
        "details": "Returns the address of the current owner."
      },
      "renounceOwnership()": {
        "details": "Leaves the contract without owner. It will not be possible to call `onlyOwner` functions anymore. Can only be called by the current owner. NOTE: Renouncing ownership will leave the contract without an owner, thereby removing any functionality that is only available to the owner."
      },
      "transferOwnership(address)": {
        "details": "Transfers ownership of the contract to a new account (`newOwner`). Can only be called by the current owner."
      }
    },
    "version": 1
  },
  "userdoc": {
    "kind": "user",
    "methods": {},
    "version": 1
  }
}