{
  "contractName": "MutantNFT",
  "abi": [
    {
      "inputs": [
        {
          "internalType": "contract ERC721Enumerable",
          "name": "_firstNftAddress",
          "type": "address"
        },
        {
          "internalType": "contract ERC721Enumerable",
          "name": "_secondNftAddress",
          "type": "address"
        },
        {
          "internalType": "contract ERC721Enumerable",
          "name": "_toxicAddress",
          "type": "address"
        }
      ],
      "stateMutability": "nonpayable",
      "type": "constructor"
    },
    {
      "anonymous": false,
      "inputs": [
        {
          "indexed": true,
          "internalType": "address",
          "name": "owner",
          "type": "address"
        },
        {
          "indexed": true,
          "internalType": "address",
          "name": "approved",
          "type": "address"
        },
        {
          "indexed": true,
          "internalType": "uint256",
          "name": "tokenId",
          "type": "uint256"
        }
      ],
      "name": "Approval",
      "type": "event"
    },
    {
      "anonymous": false,
      "inputs": [
        {
          "indexed": true,
          "internalType": "address",
          "name": "owner",
          "type": "address"
        },
        {
          "indexed": true,
          "internalType": "address",
          "name": "operator",
          "type": "address"
        },
        {
          "indexed": false,
          "internalType": "bool",
          "name": "approved",
          "type": "bool"
        }
      ],
      "name": "ApprovalForAll",
      "type": "event"
    },
    {
      "anonymous": false,
      "inputs": [
        {
          "indexed": true,
          "internalType": "address",
          "name": "previousOwner",
          "type": "address"
        },
        {
          "indexed": true,
          "internalType": "address",
          "name": "newOwner",
          "type": "address"
        }
      ],
      "name": "OwnershipTransferred",
      "type": "event"
    },
    {
      "anonymous": false,
      "inputs": [
        {
          "indexed": false,
          "internalType": "uint256",
          "name": "_tokenId",
          "type": "uint256"
        },
        {
          "indexed": false,
          "internalType": "uint256",
          "name": "_toxicId",
          "type": "uint256"
        },
        {
          "indexed": false,
          "internalType": "uint256",
          "name": "_mutantId",
          "type": "uint256"
        }
      ],
      "name": "Purchase",
      "type": "event"
    },
    {
      "anonymous": false,
      "inputs": [
        {
          "indexed": true,
          "internalType": "address",
          "name": "from",
          "type": "address"
        },
        {
          "indexed": true,
          "internalType": "address",
          "name": "to",
          "type": "address"
        },
        {
          "indexed": true,
          "internalType": "uint256",
          "name": "tokenId",
          "type": "uint256"
        }
      ],
      "name": "Transfer",
      "type": "event"
    },
    {
      "inputs": [
        {
          "internalType": "uint256",
          "name": "",
          "type": "uint256"
        }
      ],
      "name": "_data",
      "outputs": [
        {
          "internalType": "string",
          "name": "",
          "type": "string"
        }
      ],
      "stateMutability": "view",
      "type": "function"
    },
    {
      "inputs": [
        {
          "internalType": "uint256",
          "name": "",
          "type": "uint256"
        }
      ],
      "name": "_origin",
      "outputs": [
        {
          "internalType": "uint256",
          "name": "",
          "type": "uint256"
        }
      ],
      "stateMutability": "view",
      "type": "function"
    },
    {
      "inputs": [
        {
          "internalType": "address",
          "name": "to",
          "type": "address"
        },
        {
          "internalType": "uint256",
          "name": "tokenId",
          "type": "uint256"
        }
      ],
      "name": "approve",
      "outputs": [],
      "stateMutability": "nonpayable",
      "type": "function"
    },
    {
      "inputs": [
        {
          "internalType": "address",
          "name": "owner",
          "type": "address"
        }
      ],
      "name": "balanceOf",
      "outputs": [
        {
          "internalType": "uint256",
          "name": "",
          "type": "uint256"
        }
      ],
      "stateMutability": "view",
      "type": "function"
    },
    {
      "inputs": [
        {
          "internalType": "string",
          "name": "",
          "type": "string"
        }
      ],
      "name": "g_mutantPairs",
      "outputs": [
        {
          "internalType": "string",
          "name": "",
          "type": "string"
        }
      ],
      "stateMutability": "view",
      "type": "function"
    },
    {
      "inputs": [
        {
          "internalType": "uint256",
          "name": "tokenId",
          "type": "uint256"
        }
      ],
      "name": "getApproved",
      "outputs": [
        {
          "internalType": "address",
          "name": "",
          "type": "address"
        }
      ],
      "stateMutability": "view",
      "type": "function"
    },
    {
      "inputs": [
        {
          "internalType": "address",
          "name": "owner",
          "type": "address"
        },
        {
          "internalType": "address",
          "name": "operator",
          "type": "address"
        }
      ],
      "name": "isApprovedForAll",
      "outputs": [
        {
          "internalType": "bool",
          "name": "",
          "type": "bool"
        }
      ],
      "stateMutability": "view",
      "type": "function"
    },
    {
      "inputs": [],
      "name": "mintSupply",
      "outputs": [
        {
          "internalType": "uint256",
          "name": "",
          "type": "uint256"
        }
      ],
      "stateMutability": "view",
      "type": "function"
    },
    {
      "inputs": [],
      "name": "name",
      "outputs": [
        {
          "internalType": "string",
          "name": "",
          "type": "string"
        }
      ],
      "stateMutability": "view",
      "type": "function"
    },
    {
      "inputs": [],
      "name": "owner",
      "outputs": [
        {
          "internalType": "address",
          "name": "",
          "type": "address"
        }
      ],
      "stateMutability": "view",
      "type": "function"
    },
    {
      "inputs": [
        {
          "internalType": "uint256",
          "name": "tokenId",
          "type": "uint256"
        }
      ],
      "name": "ownerOf",
      "outputs": [
        {
          "internalType": "address",
          "name": "",
          "type": "address"
        }
      ],
      "stateMutability": "view",
      "type": "function"
    },
    {
      "inputs": [],
      "name": "pos",
      "outputs": [
        {
          "internalType": "uint256",
          "name": "",
          "type": "uint256"
        }
      ],
      "stateMutability": "view",
      "type": "function"
    },
    {
      "inputs": [],
      "name": "renounceOwnership",
      "outputs": [],
      "stateMutability": "nonpayable",
      "type": "function"
    },
    {
      "inputs": [
        {
          "internalType": "address",
          "name": "from",
          "type": "address"
        },
        {
          "internalType": "address",
          "name": "to",
          "type": "address"
        },
        {
          "internalType": "uint256",
          "name": "tokenId",
          "type": "uint256"
        }
      ],
      "name": "safeTransferFrom",
      "outputs": [],
      "stateMutability": "nonpayable",
      "type": "function"
    },
    {
      "inputs": [
        {
          "internalType": "address",
          "name": "from",
          "type": "address"
        },
        {
          "internalType": "address",
          "name": "to",
          "type": "address"
        },
        {
          "internalType": "uint256",
          "name": "tokenId",
          "type": "uint256"
        },
        {
          "internalType": "bytes",
          "name": "_data",
          "type": "bytes"
        }
      ],
      "name": "safeTransferFrom",
      "outputs": [],
      "stateMutability": "nonpayable",
      "type": "function"
    },
    {
      "inputs": [
        {
          "internalType": "address",
          "name": "operator",
          "type": "address"
        },
        {
          "internalType": "bool",
          "name": "approved",
          "type": "bool"
        }
      ],
      "name": "setApprovalForAll",
      "outputs": [],
      "stateMutability": "nonpayable",
      "type": "function"
    },
    {
      "inputs": [
        {
          "internalType": "bytes4",
          "name": "interfaceId",
          "type": "bytes4"
        }
      ],
      "name": "supportsInterface",
      "outputs": [
        {
          "internalType": "bool",
          "name": "",
          "type": "bool"
        }
      ],
      "stateMutability": "view",
      "type": "function"
    },
    {
      "inputs": [],
      "name": "symbol",
      "outputs": [
        {
          "internalType": "string",
          "name": "",
          "type": "string"
        }
      ],
      "stateMutability": "view",
      "type": "function"
    },
    {
      "inputs": [
        {
          "internalType": "uint256",
          "name": "index",
          "type": "uint256"
        }
      ],
      "name": "tokenByIndex",
      "outputs": [
        {
          "internalType": "uint256",
          "name": "",
          "type": "uint256"
        }
      ],
      "stateMutability": "view",
      "type": "function"
    },
    {
      "inputs": [
        {
          "internalType": "address",
          "name": "owner",
          "type": "address"
        },
        {
          "internalType": "uint256",
          "name": "index",
          "type": "uint256"
        }
      ],
      "name": "tokenOfOwnerByIndex",
      "outputs": [
        {
          "internalType": "uint256",
          "name": "",
          "type": "uint256"
        }
      ],
      "stateMutability": "view",
      "type": "function"
    },
    {
      "inputs": [],
      "name": "totalSupply",
      "outputs": [
        {
          "internalType": "uint256",
          "name": "",
          "type": "uint256"
        }
      ],
      "stateMutability": "view",
      "type": "function"
    },
    {
      "inputs": [
        {
          "internalType": "address",
          "name": "from",
          "type": "address"
        },
        {
          "internalType": "address",
          "name": "to",
          "type": "address"
        },
        {
          "internalType": "uint256",
          "name": "tokenId",
          "type": "uint256"
        }
      ],
      "name": "transferFrom",
      "outputs": [],
      "stateMutability": "nonpayable",
      "type": "function"
    },
    {
      "inputs": [
        {
          "internalType": "address",
          "name": "newOwner",
          "type": "address"
        }
      ],
      "name": "transferOwnership",
      "outputs": [],
      "stateMutability": "nonpayable",
      "type": "function"
    },
    {
      "inputs": [
        {
          "internalType": "uint256",
          "name": "_tokenId",
          "type": "uint256"
        },
        {
          "internalType": "uint256",
          "name": "_toxicId",
          "type": "uint256"
        }
      ],
      "name": "purchase",
      "outputs": [],
      "stateMutability": "nonpayable",
      "type": "function"
    },
    {
      "inputs": [
        {
          "internalType": "address",
          "name": "addr",
          "type": "address"
        },
        {
          "internalType": "string",
          "name": "data",
          "type": "string"
        }
      ],
      "name": "mintByOwner",
      "outputs": [],
      "stateMutability": "nonpayable",
      "type": "function"
    },
    {
      "inputs": [
        {
          "internalType": "uint256",
          "name": "_mutantId",
          "type": "uint256"
        }
      ],
      "name": "getOriginTokenId",
      "outputs": [
        {
          "internalType": "uint256",
          "name": "",
          "type": "uint256"
        }
      ],
      "stateMutability": "view",
      "type": "function"
    },
    {
      "inputs": [
        {
          "internalType": "address",
          "name": "_to",
          "type": "address"
        },
        {
          "internalType": "uint256[]",
          "name": "_tokenIds",
          "type": "uint256[]"
        }
      ],
      "name": "withdrawNFT",
      "outputs": [],
      "stateMutability": "nonpayable",
      "type": "function"
    },
    {
      "inputs": [
        {
          "internalType": "address",
          "name": "_to",
          "type": "address"
        },
        {
          "internalType": "uint256[]",
          "name": "_toxicIds",
          "type": "uint256[]"
        }
      ],
      "name": "withdrawToxic",
      "outputs": [],
      "stateMutability": "nonpayable",
      "type": "function"
    },
    {
      "inputs": [
        {
          "internalType": "string",
          "name": "_old",
          "type": "string"
        },
        {
          "internalType": "string",
          "name": "_mutant",
          "type": "string"
        }
      ],
      "name": "setPairs",
      "outputs": [],
      "stateMutability": "nonpayable",
      "type": "function"
    },
    {
      "inputs": [
        {
          "internalType": "uint256",
          "name": "tokenId",
          "type": "uint256"
        }
      ],
      "name": "tokenURI",
      "outputs": [
        {
          "internalType": "string",
          "name": "",
          "type": "string"
        }
      ],
      "stateMutability": "view",
      "type": "function"
    },
    {
      "inputs": [
        {
          "internalType": "address",
          "name": "",
          "type": "address"
        },
        {
          "internalType": "address",
          "name": "",
          "type": "address"
        },
        {
          "internalType": "uint256",
          "name": "",
          "type": "uint256"
        },
        {
          "internalType": "bytes",
          "name": "",
          "type": "bytes"
        }
      ],
      "name": "onERC721Received",
      "outputs": [
        {
          "internalType": "bytes4",
          "name": "",
          "type": "bytes4"
        }
      ],
      "stateMutability": "nonpayable",
      "type": "function"
    }
  ],
  "bytecode": "0x60806040523480156200001157600080fd5b5060405162004c2738038062004c278339818101604052810190620000379190620003d0565b6040518060400160405280601681526020017f436f696e72616365724e4654436f6c6c656374696f6e000000000000000000008152506040518060400160405280600981526020017f4d7574616e744e465400000000000000000000000000000000000000000000008152508160009080519060200190620000bb929190620002a2565b508060019080519060200190620000d4929190620002a2565b505050620000f7620000eb620001d460201b60201c565b620001dc60201b60201c565b614e20600e819055506000600f8190555082600b60006101000a81548173ffffffffffffffffffffffffffffffffffffffff021916908373ffffffffffffffffffffffffffffffffffffffff16021790555081600c60006101000a81548173ffffffffffffffffffffffffffffffffffffffff021916908373ffffffffffffffffffffffffffffffffffffffff16021790555080600d60006101000a81548173ffffffffffffffffffffffffffffffffffffffff021916908373ffffffffffffffffffffffffffffffffffffffff16021790555050505062000490565b600033905090565b6000600a60009054906101000a900473ffffffffffffffffffffffffffffffffffffffff16905081600a60006101000a81548173ffffffffffffffffffffffffffffffffffffffff021916908373ffffffffffffffffffffffffffffffffffffffff1602179055508173ffffffffffffffffffffffffffffffffffffffff168173ffffffffffffffffffffffffffffffffffffffff167f8be0079c531659141344cd1fd0a4f28419497f9722a3daafe3b4186f6b6457e060405160405180910390a35050565b828054620002b0906200045b565b90600052602060002090601f016020900481019282620002d4576000855562000320565b82601f10620002ef57805160ff191683800117855562000320565b8280016001018555821562000320579182015b828111156200031f57825182559160200191906001019062000302565b5b5090506200032f919062000333565b5090565b5b808211156200034e57600081600090555060010162000334565b5090565b600080fd5b600073ffffffffffffffffffffffffffffffffffffffff82169050919050565b6000620003848262000357565b9050919050565b6000620003988262000377565b9050919050565b620003aa816200038b565b8114620003b657600080fd5b50565b600081519050620003ca816200039f565b92915050565b600080600060608486031215620003ec57620003eb62000352565b5b6000620003fc86828701620003b9565b93505060206200040f86828701620003b9565b92505060406200042286828701620003b9565b9150509250925092565b7f4e487b7100000000000000000000000000000000000000000000000000000000600052602260045260246000fd5b600060028204905060018216806200047457607f821691505b6020821081036200048a57620004896200042c565b5b50919050565b61478780620004a06000396000f3fe608060405234801561001057600080fd5b50600436106101e55760003560e01c80634f6ccce71161010f5780639bdedea5116100a2578063c56551b611610071578063c56551b6146105b2578063c87b56dd146105d0578063e985e9c514610600578063f2fde38b14610630576101e5565b80639bdedea51461052e578063a22cb4651461054a578063b88d4fde14610566578063bad6595114610582576101e5565b806370a08231116100de57806370a08231146104b8578063715018a6146104e85780638da5cb5b146104f257806395d89b4114610510576101e5565b80634f6ccce71461040c57806359c4bf4d1461043c5780636352211e1461046c57806370876c981461049c576101e5565b8063148239b31161018757806323b872dd1161015657806323b872dd146103885780632f745c59146103a45780633f7bb664146103d457806342842e0e146103f0576101e5565b8063148239b314610302578063150b7a021461031e57806318160ddd1461034e57806318cbe9151461036c576101e5565b806306fdde03116101c357806306fdde0314610268578063081812fc14610286578063095ea7b3146102b65780631288d98a146102d2576101e5565b806301ffc9a7146101ea57806303a7f8251461021a578063045b7dca1461024a575b600080fd5b61020460048036038101906101ff9190612ea8565b61064c565b6040516102119190612ef0565b60405180910390f35b610234600480360381019061022f9190612f41565b6106c6565b6040516102419190613007565b60405180910390f35b610252610766565b60405161025f9190613038565b60405180910390f35b61027061076c565b60405161027d9190613007565b60405180910390f35b6102a0600480360381019061029b9190612f41565b6107fe565b6040516102ad9190613094565b60405180910390f35b6102d060048036038101906102cb91906130db565b610883565b005b6102ec60048036038101906102e79190612f41565b61099a565b6040516102f99190613038565b60405180910390f35b61031c60048036038101906103179190613250565b6109b7565b005b61033860048036038101906103339190613369565b610a6a565b60405161034591906133fb565b60405180910390f35b610356610a7e565b6040516103639190613038565b60405180910390f35b610386600480360381019061038191906134de565b610a8b565b005b6103a2600480360381019061039d919061353a565b610bd6565b005b6103be60048036038101906103b991906130db565b610c36565b6040516103cb9190613038565b60405180910390f35b6103ee60048036038101906103e9919061358d565b610cdb565b005b61040a6004803603810190610405919061353a565b610da6565b005b61042660048036038101906104219190612f41565b610dc6565b6040516104339190613038565b60405180910390f35b610456600480360381019061045191906135e9565b610e37565b6040516104639190613007565b60405180910390f35b61048660048036038101906104819190612f41565b610eed565b6040516104939190613094565b60405180910390f35b6104b660048036038101906104b19190613632565b610f9e565b005b6104d260048036038101906104cd9190613672565b61163a565b6040516104df9190613038565b60405180910390f35b6104f06116f1565b005b6104fa611779565b6040516105079190613094565b60405180910390f35b6105186117a3565b6040516105259190613007565b60405180910390f35b610548600480360381019061054391906134de565b611835565b005b610564600480360381019061055f91906136cb565b6119c1565b005b610580600480360381019061057b9190613369565b6119d7565b005b61059c60048036038101906105979190612f41565b611a39565b6040516105a99190613038565b60405180910390f35b6105ba611a51565b6040516105c79190613038565b60405180910390f35b6105ea60048036038101906105e59190612f41565b611a57565b6040516105f79190613007565b60405180910390f35b61061a6004803603810190610615919061370b565b611b44565b6040516106279190612ef0565b60405180910390f35b61064a60048036038101906106459190613672565b611bd8565b005b60007f780e9d63000000000000000000000000000000000000000000000000000000007bffffffffffffffffffffffffffffffffffffffffffffffffffffffff1916827bffffffffffffffffffffffffffffffffffffffffffffffffffffffff191614806106bf57506106be82611ccf565b5b9050919050565b601060205280600052604060002060009150905080546106e59061377a565b80601f01602080910402602001604051908101604052809291908181526020018280546107119061377a565b801561075e5780601f106107335761010080835404028352916020019161075e565b820191906000526020600020905b81548152906001019060200180831161074157829003601f168201915b505050505081565b600f5481565b60606000805461077b9061377a565b80601f01602080910402602001604051908101604052809291908181526020018280546107a79061377a565b80156107f45780601f106107c9576101008083540402835291602001916107f4565b820191906000526020600020905b8154815290600101906020018083116107d757829003601f168201915b5050505050905090565b600061080982611db1565b610848576040517f08c379a000000000000000000000000000000000000000000000000000000000815260040161083f9061381d565b60405180910390fd5b6004600083815260200190815260200160002060009054906101000a900473ffffffffffffffffffffffffffffffffffffffff169050919050565b600061088e82610eed565b90508073ffffffffffffffffffffffffffffffffffffffff168373ffffffffffffffffffffffffffffffffffffffff16036108fe576040517f08c379a00000000000000000000000000000000000000000000000000000000081526004016108f5906138af565b60405180910390fd5b8073ffffffffffffffffffffffffffffffffffffffff1661091d611e1d565b73ffffffffffffffffffffffffffffffffffffffff16148061094c575061094b81610946611e1d565b611b44565b5b61098b576040517f08c379a000000000000000000000000000000000000000000000000000000000815260040161098290613941565b60405180910390fd5b6109958383611e25565b505050565b600060116000838152602001908152602001600020549050919050565b6109bf611e1d565b73ffffffffffffffffffffffffffffffffffffffff166109dd611779565b73ffffffffffffffffffffffffffffffffffffffff1614610a33576040517f08c379a0000000000000000000000000000000000000000000000000000000008152600401610a2a906139ad565b60405180910390fd5b80601283604051610a449190613a09565b90815260200160405180910390209080519060200190610a65929190612d0c565b505050565b600063150b7a0260e01b9050949350505050565b6000600880549050905090565b610a93611e1d565b73ffffffffffffffffffffffffffffffffffffffff16610ab1611779565b73ffffffffffffffffffffffffffffffffffffffff1614610b07576040517f08c379a0000000000000000000000000000000000000000000000000000000008152600401610afe906139ad565b60405180910390fd5b60005b8151811015610bd157600d60009054906101000a900473ffffffffffffffffffffffffffffffffffffffff1673ffffffffffffffffffffffffffffffffffffffff166342842e0e3085858581518110610b6657610b65613a20565b5b60200260200101516040518463ffffffff1660e01b8152600401610b8c93929190613a4f565b600060405180830381600087803b158015610ba657600080fd5b505af1158015610bba573d6000803e3d6000fd5b505050508080610bc990613ab5565b915050610b0a565b505050565b610be7610be1611e1d565b82611ede565b610c26576040517f08c379a0000000000000000000000000000000000000000000000000000000008152600401610c1d90613b6f565b60405180910390fd5b610c31838383611fbc565b505050565b6000610c418361163a565b8210610c82576040517f08c379a0000000000000000000000000000000000000000000000000000000008152600401610c7990613c01565b60405180910390fd5b600660008473ffffffffffffffffffffffffffffffffffffffff1673ffffffffffffffffffffffffffffffffffffffff168152602001908152602001600020600083815260200190815260200160002054905092915050565b610ce3611e1d565b73ffffffffffffffffffffffffffffffffffffffff16610d01611779565b73ffffffffffffffffffffffffffffffffffffffff1614610d57576040517f08c379a0000000000000000000000000000000000000000000000000000000008152600401610d4e906139ad565b60405180910390fd5b6001600e54610d669190613c21565b600e81905550610d7882600e54612217565b8060106000600e5481526020019081526020016000209080519060200190610da1929190612d0c565b505050565b610dc1838383604051806020016040528060008152506119d7565b505050565b6000610dd0610a7e565b8210610e11576040517f08c379a0000000000000000000000000000000000000000000000000000000008152600401610e0890613ce9565b60405180910390fd5b60088281548110610e2557610e24613a20565b5b90600052602060002001549050919050565b6012818051602081018201805184825260208301602085012081835280955050505050506000915090508054610e6c9061377a565b80601f0160208091040260200160405190810160405280929190818152602001828054610e989061377a565b8015610ee55780601f10610eba57610100808354040283529160200191610ee5565b820191906000526020600020905b815481529060010190602001808311610ec857829003601f168201915b505050505081565b6000806002600084815260200190815260200160002060009054906101000a900473ffffffffffffffffffffffffffffffffffffffff169050600073ffffffffffffffffffffffffffffffffffffffff168173ffffffffffffffffffffffffffffffffffffffff1603610f95576040517f08c379a0000000000000000000000000000000000000000000000000000000008152600401610f8c90613d7b565b60405180910390fd5b80915050919050565b6000611388831115610fd457600c60009054906101000a900473ffffffffffffffffffffffffffffffffffffffff169050610ffa565b600b60009054906101000a900473ffffffffffffffffffffffffffffffffffffffff1690505b3373ffffffffffffffffffffffffffffffffffffffff168173ffffffffffffffffffffffffffffffffffffffff16636352211e856040518263ffffffff1660e01b815260040161104a9190613038565b602060405180830381865afa158015611067573d6000803e3d6000fd5b505050506040513d601f19601f8201168201806040525081019061108b9190613db0565b73ffffffffffffffffffffffffffffffffffffffff16146110e1576040517f08c379a00000000000000000000000000000000000000000000000000000000081526004016110d890613e29565b60405180910390fd5b3373ffffffffffffffffffffffffffffffffffffffff16600d60009054906101000a900473ffffffffffffffffffffffffffffffffffffffff1673ffffffffffffffffffffffffffffffffffffffff16636352211e846040518263ffffffff1660e01b81526004016111539190613038565b602060405180830381865afa158015611170573d6000803e3d6000fd5b505050506040513d601f19601f820116820180604052508101906111949190613db0565b73ffffffffffffffffffffffffffffffffffffffff16146111ea576040517f08c379a00000000000000000000000000000000000000000000000000000000081526004016111e190613e95565b60405180910390fd5b3073ffffffffffffffffffffffffffffffffffffffff168173ffffffffffffffffffffffffffffffffffffffff1663081812fc856040518263ffffffff1660e01b815260040161123a9190613038565b602060405180830381865afa158015611257573d6000803e3d6000fd5b505050506040513d601f19601f8201168201806040525081019061127b9190613db0565b73ffffffffffffffffffffffffffffffffffffffff16146112d1576040517f08c379a00000000000000000000000000000000000000000000000000000000081526004016112c890613f27565b60405180910390fd5b3073ffffffffffffffffffffffffffffffffffffffff16600d60009054906101000a900473ffffffffffffffffffffffffffffffffffffffff1673ffffffffffffffffffffffffffffffffffffffff1663081812fc846040518263ffffffff1660e01b81526004016113439190613038565b602060405180830381865afa158015611360573d6000803e3d6000fd5b505050506040513d601f19601f820116820180604052508101906113849190613db0565b73ffffffffffffffffffffffffffffffffffffffff16146113da576040517f08c379a00000000000000000000000000000000000000000000000000000000081526004016113d190613fb9565b60405180910390fd5b8073ffffffffffffffffffffffffffffffffffffffff166342842e0e3330866040518463ffffffff1660e01b815260040161141793929190613a4f565b600060405180830381600087803b15801561143157600080fd5b505af1158015611445573d6000803e3d6000fd5b50505050600d60009054906101000a900473ffffffffffffffffffffffffffffffffffffffff1673ffffffffffffffffffffffffffffffffffffffff166342842e0e3330856040518463ffffffff1660e01b81526004016114a893929190613a4f565b600060405180830381600087803b1580156114c257600080fd5b505af11580156114d6573d6000803e3d6000fd5b505050506001600e546114e99190613c21565b600e819055506114fb33600e54612217565b60128173ffffffffffffffffffffffffffffffffffffffff1663c87b56dd856040518263ffffffff1660e01b81526004016115369190613038565b600060405180830381865afa158015611553573d6000803e3d6000fd5b505050506040513d6000823e3d601f19601f8201168201806040525081019061157c9190614049565b6040516115899190613a09565b908152602001604051809103902060106000600e5481526020019081526020016000209080546115b89061377a565b6115c3929190612d92565b508260116000600e548152602001908152602001600020819055506001600f60008282546115f19190613c21565b925050819055507f75cc31666f3b6385ba515cf89fd41064642231a796fa7eeea1ba48d9b8ebe2698383600e5460405161162d93929190614092565b60405180910390a1505050565b60008073ffffffffffffffffffffffffffffffffffffffff168273ffffffffffffffffffffffffffffffffffffffff16036116aa576040517f08c379a00000000000000000000000000000000000000000000000000000000081526004016116a19061413b565b60405180910390fd5b600360008373ffffffffffffffffffffffffffffffffffffffff1673ffffffffffffffffffffffffffffffffffffffff168152602001908152602001600020549050919050565b6116f9611e1d565b73ffffffffffffffffffffffffffffffffffffffff16611717611779565b73ffffffffffffffffffffffffffffffffffffffff161461176d576040517f08c379a0000000000000000000000000000000000000000000000000000000008152600401611764906139ad565b60405180910390fd5b6117776000612235565b565b6000600a60009054906101000a900473ffffffffffffffffffffffffffffffffffffffff16905090565b6060600180546117b29061377a565b80601f01602080910402602001604051908101604052809291908181526020018280546117de9061377a565b801561182b5780601f106118005761010080835404028352916020019161182b565b820191906000526020600020905b81548152906001019060200180831161180e57829003601f168201915b5050505050905090565b61183d611e1d565b73ffffffffffffffffffffffffffffffffffffffff1661185b611779565b73ffffffffffffffffffffffffffffffffffffffff16146118b1576040517f08c379a00000000000000000000000000000000000000000000000000000000081526004016118a8906139ad565b60405180910390fd5b60005b81518110156119bc5760008282815181106118d2576118d1613a20565b5b60200260200101519050600061138882111561191257600c60009054906101000a900473ffffffffffffffffffffffffffffffffffffffff169050611938565b600b60009054906101000a900473ffffffffffffffffffffffffffffffffffffffff1690505b8073ffffffffffffffffffffffffffffffffffffffff166342842e0e3087856040518463ffffffff1660e01b815260040161197593929190613a4f565b600060405180830381600087803b15801561198f57600080fd5b505af11580156119a3573d6000803e3d6000fd5b50505050505080806119b490613ab5565b9150506118b4565b505050565b6119d36119cc611e1d565b83836122fb565b5050565b6119e86119e2611e1d565b83611ede565b611a27576040517f08c379a0000000000000000000000000000000000000000000000000000000008152600401611a1e90613b6f565b60405180910390fd5b611a3384848484612467565b50505050565b60116020528060005260406000206000915090505481565b600e5481565b6060611a6282611db1565b611aa1576040517f08c379a0000000000000000000000000000000000000000000000000000000008152600401611a98906141cd565b60405180910390fd5b601060008381526020019081526020016000208054611abf9061377a565b80601f0160208091040260200160405190810160405280929190818152602001828054611aeb9061377a565b8015611b385780601f10611b0d57610100808354040283529160200191611b38565b820191906000526020600020905b815481529060010190602001808311611b1b57829003601f168201915b50505050509050919050565b6000600560008473ffffffffffffffffffffffffffffffffffffffff1673ffffffffffffffffffffffffffffffffffffffff16815260200190815260200160002060008373ffffffffffffffffffffffffffffffffffffffff1673ffffffffffffffffffffffffffffffffffffffff16815260200190815260200160002060009054906101000a900460ff16905092915050565b611be0611e1d565b73ffffffffffffffffffffffffffffffffffffffff16611bfe611779565b73ffffffffffffffffffffffffffffffffffffffff1614611c54576040517f08c379a0000000000000000000000000000000000000000000000000000000008152600401611c4b906139ad565b60405180910390fd5b600073ffffffffffffffffffffffffffffffffffffffff168173ffffffffffffffffffffffffffffffffffffffff1603611cc3576040517f08c379a0000000000000000000000000000000000000000000000000000000008152600401611cba9061425f565b60405180910390fd5b611ccc81612235565b50565b60007f80ac58cd000000000000000000000000000000000000000000000000000000007bffffffffffffffffffffffffffffffffffffffffffffffffffffffff1916827bffffffffffffffffffffffffffffffffffffffffffffffffffffffff19161480611d9a57507f5b5e139f000000000000000000000000000000000000000000000000000000007bffffffffffffffffffffffffffffffffffffffffffffffffffffffff1916827bffffffffffffffffffffffffffffffffffffffffffffffffffffffff1916145b80611daa5750611da9826124c3565b5b9050919050565b60008073ffffffffffffffffffffffffffffffffffffffff166002600084815260200190815260200160002060009054906101000a900473ffffffffffffffffffffffffffffffffffffffff1673ffffffffffffffffffffffffffffffffffffffff1614159050919050565b600033905090565b816004600083815260200190815260200160002060006101000a81548173ffffffffffffffffffffffffffffffffffffffff021916908373ffffffffffffffffffffffffffffffffffffffff160217905550808273ffffffffffffffffffffffffffffffffffffffff16611e9883610eed565b73ffffffffffffffffffffffffffffffffffffffff167f8c5be1e5ebec7d5bd14f71427d1e84f3dd0314c0f7b2291e5b200ac8c7c3b92560405160405180910390a45050565b6000611ee982611db1565b611f28576040517f08c379a0000000000000000000000000000000000000000000000000000000008152600401611f1f906142f1565b60405180910390fd5b6000611f3383610eed565b90508073ffffffffffffffffffffffffffffffffffffffff168473ffffffffffffffffffffffffffffffffffffffff161480611fa257508373ffffffffffffffffffffffffffffffffffffffff16611f8a846107fe565b73ffffffffffffffffffffffffffffffffffffffff16145b80611fb35750611fb28185611b44565b5b91505092915050565b8273ffffffffffffffffffffffffffffffffffffffff16611fdc82610eed565b73ffffffffffffffffffffffffffffffffffffffff1614612032576040517f08c379a000000000000000000000000000000000000000000000000000000000815260040161202990614383565b60405180910390fd5b600073ffffffffffffffffffffffffffffffffffffffff168273ffffffffffffffffffffffffffffffffffffffff16036120a1576040517f08c379a000000000000000000000000000000000000000000000000000000000815260040161209890614415565b60405180910390fd5b6120ac83838361252d565b6120b7600082611e25565b6001600360008573ffffffffffffffffffffffffffffffffffffffff1673ffffffffffffffffffffffffffffffffffffffff16815260200190815260200160002060008282546121079190614435565b925050819055506001600360008473ffffffffffffffffffffffffffffffffffffffff1673ffffffffffffffffffffffffffffffffffffffff168152602001908152602001600020600082825461215e9190613c21565b92505081905550816002600083815260200190815260200160002060006101000a81548173ffffffffffffffffffffffffffffffffffffffff021916908373ffffffffffffffffffffffffffffffffffffffff160217905550808273ffffffffffffffffffffffffffffffffffffffff168473ffffffffffffffffffffffffffffffffffffffff167fddf252ad1be2c89b69c2b068fc378daa952ba7f163c4a11628f55a4df523b3ef60405160405180910390a4505050565b61223182826040518060200160405280600081525061263f565b5050565b6000600a60009054906101000a900473ffffffffffffffffffffffffffffffffffffffff16905081600a60006101000a81548173ffffffffffffffffffffffffffffffffffffffff021916908373ffffffffffffffffffffffffffffffffffffffff1602179055508173ffffffffffffffffffffffffffffffffffffffff168173ffffffffffffffffffffffffffffffffffffffff167f8be0079c531659141344cd1fd0a4f28419497f9722a3daafe3b4186f6b6457e060405160405180910390a35050565b8173ffffffffffffffffffffffffffffffffffffffff168373ffffffffffffffffffffffffffffffffffffffff1603612369576040517f08c379a0000000000000000000000000000000000000000000000000000000008152600401612360906144b5565b60405180910390fd5b80600560008573ffffffffffffffffffffffffffffffffffffffff1673ffffffffffffffffffffffffffffffffffffffff16815260200190815260200160002060008473ffffffffffffffffffffffffffffffffffffffff1673ffffffffffffffffffffffffffffffffffffffff16815260200190815260200160002060006101000a81548160ff0219169083151502179055508173ffffffffffffffffffffffffffffffffffffffff168373ffffffffffffffffffffffffffffffffffffffff167f17307eab39ab6107e8899845ad3d59bd9653f200f220920489ca2b5937696c318360405161245a9190612ef0565b60405180910390a3505050565b612472848484611fbc565b61247e8484848461269a565b6124bd576040517f08c379a00000000000000000000000000000000000000000000000000000000081526004016124b490614547565b60405180910390fd5b50505050565b60007f01ffc9a7000000000000000000000000000000000000000000000000000000007bffffffffffffffffffffffffffffffffffffffffffffffffffffffff1916827bffffffffffffffffffffffffffffffffffffffffffffffffffffffff1916149050919050565b612538838383612821565b600073ffffffffffffffffffffffffffffffffffffffff168373ffffffffffffffffffffffffffffffffffffffff160361257a5761257581612826565b6125b9565b8173ffffffffffffffffffffffffffffffffffffffff168373ffffffffffffffffffffffffffffffffffffffff16146125b8576125b7838261286f565b5b5b600073ffffffffffffffffffffffffffffffffffffffff168273ffffffffffffffffffffffffffffffffffffffff16036125fb576125f6816129dc565b61263a565b8273ffffffffffffffffffffffffffffffffffffffff168273ffffffffffffffffffffffffffffffffffffffff1614612639576126388282612aad565b5b5b505050565b6126498383612b2c565b612656600084848461269a565b612695576040517f08c379a000000000000000000000000000000000000000000000000000000000815260040161268c90614547565b60405180910390fd5b505050565b60006126bb8473ffffffffffffffffffffffffffffffffffffffff16612cf9565b15612814578373ffffffffffffffffffffffffffffffffffffffff1663150b7a026126e4611e1d565b8786866040518563ffffffff1660e01b815260040161270694939291906145bc565b6020604051808303816000875af192505050801561274257506040513d601f19601f8201168201806040525081019061273f919061461d565b60015b6127c4573d8060008114612772576040519150601f19603f3d011682016040523d82523d6000602084013e612777565b606091505b5060008151036127bc576040517f08c379a00000000000000000000000000000000000000000000000000000000081526004016127b390614547565b60405180910390fd5b805181602001fd5b63150b7a0260e01b7bffffffffffffffffffffffffffffffffffffffffffffffffffffffff1916817bffffffffffffffffffffffffffffffffffffffffffffffffffffffff191614915050612819565b600190505b949350505050565b505050565b6008805490506009600083815260200190815260200160002081905550600881908060018154018082558091505060019003906000526020600020016000909190919091505550565b6000600161287c8461163a565b6128869190614435565b905060006007600084815260200190815260200160002054905081811461296b576000600660008673ffffffffffffffffffffffffffffffffffffffff1673ffffffffffffffffffffffffffffffffffffffff168152602001908152602001600020600084815260200190815260200160002054905080600660008773ffffffffffffffffffffffffffffffffffffffff1673ffffffffffffffffffffffffffffffffffffffff168152602001908152602001600020600084815260200190815260200160002081905550816007600083815260200190815260200160002081905550505b6007600084815260200190815260200160002060009055600660008573ffffffffffffffffffffffffffffffffffffffff1673ffffffffffffffffffffffffffffffffffffffff16815260200190815260200160002060008381526020019081526020016000206000905550505050565b600060016008805490506129f09190614435565b9050600060096000848152602001908152602001600020549050600060088381548110612a2057612a1f613a20565b5b906000526020600020015490508060088381548110612a4257612a41613a20565b5b906000526020600020018190555081600960008381526020019081526020016000208190555060096000858152602001908152602001600020600090556008805480612a9157612a9061464a565b5b6001900381819060005260206000200160009055905550505050565b6000612ab88361163a565b905081600660008573ffffffffffffffffffffffffffffffffffffffff1673ffffffffffffffffffffffffffffffffffffffff168152602001908152602001600020600083815260200190815260200160002081905550806007600084815260200190815260200160002081905550505050565b600073ffffffffffffffffffffffffffffffffffffffff168273ffffffffffffffffffffffffffffffffffffffff1603612b9b576040517f08c379a0000000000000000000000000000000000000000000000000000000008152600401612b92906146c5565b60405180910390fd5b612ba481611db1565b15612be4576040517f08c379a0000000000000000000000000000000000000000000000000000000008152600401612bdb90614731565b60405180910390fd5b612bf06000838361252d565b6001600360008473ffffffffffffffffffffffffffffffffffffffff1673ffffffffffffffffffffffffffffffffffffffff1681526020019081526020016000206000828254612c409190613c21565b92505081905550816002600083815260200190815260200160002060006101000a81548173ffffffffffffffffffffffffffffffffffffffff021916908373ffffffffffffffffffffffffffffffffffffffff160217905550808273ffffffffffffffffffffffffffffffffffffffff16600073ffffffffffffffffffffffffffffffffffffffff167fddf252ad1be2c89b69c2b068fc378daa952ba7f163c4a11628f55a4df523b3ef60405160405180910390a45050565b600080823b905060008111915050919050565b828054612d189061377a565b90600052602060002090601f016020900481019282612d3a5760008555612d81565b82601f10612d5357805160ff1916838001178555612d81565b82800160010185558215612d81579182015b82811115612d80578251825591602001919060010190612d65565b5b509050612d8e9190612e1f565b5090565b828054612d9e9061377a565b90600052602060002090601f016020900481019282612dc05760008555612e0e565b82601f10612dd15780548555612e0e565b82800160010185558215612e0e57600052602060002091601f016020900482015b82811115612e0d578254825591600101919060010190612df2565b5b509050612e1b9190612e1f565b5090565b5b80821115612e38576000816000905550600101612e20565b5090565b6000604051905090565b600080fd5b600080fd5b60007fffffffff0000000000000000000000000000000000000000000000000000000082169050919050565b612e8581612e50565b8114612e9057600080fd5b50565b600081359050612ea281612e7c565b92915050565b600060208284031215612ebe57612ebd612e46565b5b6000612ecc84828501612e93565b91505092915050565b60008115159050919050565b612eea81612ed5565b82525050565b6000602082019050612f056000830184612ee1565b92915050565b6000819050919050565b612f1e81612f0b565b8114612f2957600080fd5b50565b600081359050612f3b81612f15565b92915050565b600060208284031215612f5757612f56612e46565b5b6000612f6584828501612f2c565b91505092915050565b600081519050919050565b600082825260208201905092915050565b60005b83811015612fa8578082015181840152602081019050612f8d565b83811115612fb7576000848401525b50505050565b6000601f19601f8301169050919050565b6000612fd982612f6e565b612fe38185612f79565b9350612ff3818560208601612f8a565b612ffc81612fbd565b840191505092915050565b600060208201905081810360008301526130218184612fce565b905092915050565b61303281612f0b565b82525050565b600060208201905061304d6000830184613029565b92915050565b600073ffffffffffffffffffffffffffffffffffffffff82169050919050565b600061307e82613053565b9050919050565b61308e81613073565b82525050565b60006020820190506130a96000830184613085565b92915050565b6130b881613073565b81146130c357600080fd5b50565b6000813590506130d5816130af565b92915050565b600080604083850312156130f2576130f1612e46565b5b6000613100858286016130c6565b925050602061311185828601612f2c565b9150509250929050565b600080fd5b600080fd5b7f4e487b7100000000000000000000000000000000000000000000000000000000600052604160045260246000fd5b61315d82612fbd565b810181811067ffffffffffffffff8211171561317c5761317b613125565b5b80604052505050565b600061318f612e3c565b905061319b8282613154565b919050565b600067ffffffffffffffff8211156131bb576131ba613125565b5b6131c482612fbd565b9050602081019050919050565b82818337600083830152505050565b60006131f36131ee846131a0565b613185565b90508281526020810184848401111561320f5761320e613120565b5b61321a8482856131d1565b509392505050565b600082601f8301126132375761323661311b565b5b81356132478482602086016131e0565b91505092915050565b6000806040838503121561326757613266612e46565b5b600083013567ffffffffffffffff81111561328557613284612e4b565b5b61329185828601613222565b925050602083013567ffffffffffffffff8111156132b2576132b1612e4b565b5b6132be85828601613222565b9150509250929050565b600067ffffffffffffffff8211156132e3576132e2613125565b5b6132ec82612fbd565b9050602081019050919050565b600061330c613307846132c8565b613185565b90508281526020810184848401111561332857613327613120565b5b6133338482856131d1565b509392505050565b600082601f8301126133505761334f61311b565b5b81356133608482602086016132f9565b91505092915050565b6000806000806080858703121561338357613382612e46565b5b6000613391878288016130c6565b94505060206133a2878288016130c6565b93505060406133b387828801612f2c565b925050606085013567ffffffffffffffff8111156133d4576133d3612e4b565b5b6133e08782880161333b565b91505092959194509250565b6133f581612e50565b82525050565b600060208201905061341060008301846133ec565b92915050565b600067ffffffffffffffff82111561343157613430613125565b5b602082029050602081019050919050565b600080fd5b600061345a61345584613416565b613185565b9050808382526020820190506020840283018581111561347d5761347c613442565b5b835b818110156134a657806134928882612f2c565b84526020840193505060208101905061347f565b5050509392505050565b600082601f8301126134c5576134c461311b565b5b81356134d5848260208601613447565b91505092915050565b600080604083850312156134f5576134f4612e46565b5b6000613503858286016130c6565b925050602083013567ffffffffffffffff81111561352457613523612e4b565b5b613530858286016134b0565b9150509250929050565b60008060006060848603121561355357613552612e46565b5b6000613561868287016130c6565b9350506020613572868287016130c6565b925050604061358386828701612f2c565b9150509250925092565b600080604083850312156135a4576135a3612e46565b5b60006135b2858286016130c6565b925050602083013567ffffffffffffffff8111156135d3576135d2612e4b565b5b6135df85828601613222565b9150509250929050565b6000602082840312156135ff576135fe612e46565b5b600082013567ffffffffffffffff81111561361d5761361c612e4b565b5b61362984828501613222565b91505092915050565b6000806040838503121561364957613648612e46565b5b600061365785828601612f2c565b925050602061366885828601612f2c565b9150509250929050565b60006020828403121561368857613687612e46565b5b6000613696848285016130c6565b91505092915050565b6136a881612ed5565b81146136b357600080fd5b50565b6000813590506136c58161369f565b92915050565b600080604083850312156136e2576136e1612e46565b5b60006136f0858286016130c6565b9250506020613701858286016136b6565b9150509250929050565b6000806040838503121561372257613721612e46565b5b6000613730858286016130c6565b9250506020613741858286016130c6565b9150509250929050565b7f4e487b7100000000000000000000000000000000000000000000000000000000600052602260045260246000fd5b6000600282049050600182168061379257607f821691505b6020821081036137a5576137a461374b565b5b50919050565b7f4552433732313a20617070726f76656420717565727920666f72206e6f6e657860008201527f697374656e7420746f6b656e0000000000000000000000000000000000000000602082015250565b6000613807602c83612f79565b9150613812826137ab565b604082019050919050565b60006020820190508181036000830152613836816137fa565b9050919050565b7f4552433732313a20617070726f76616c20746f2063757272656e74206f776e6560008201527f7200000000000000000000000000000000000000000000000000000000000000602082015250565b6000613899602183612f79565b91506138a48261383d565b604082019050919050565b600060208201905081810360008301526138c88161388c565b9050919050565b7f4552433732313a20617070726f76652063616c6c6572206973206e6f74206f7760008201527f6e6572206e6f7220617070726f76656420666f7220616c6c0000000000000000602082015250565b600061392b603883612f79565b9150613936826138cf565b604082019050919050565b6000602082019050818103600083015261395a8161391e565b9050919050565b7f4f776e61626c653a2063616c6c6572206973206e6f7420746865206f776e6572600082015250565b6000613997602083612f79565b91506139a282613961565b602082019050919050565b600060208201905081810360008301526139c68161398a565b9050919050565b600081905092915050565b60006139e382612f6e565b6139ed81856139cd565b93506139fd818560208601612f8a565b80840191505092915050565b6000613a1582846139d8565b915081905092915050565b7f4e487b7100000000000000000000000000000000000000000000000000000000600052603260045260246000fd5b6000606082019050613a646000830186613085565b613a716020830185613085565b613a7e6040830184613029565b949350505050565b7f4e487b7100000000000000000000000000000000000000000000000000000000600052601160045260246000fd5b6000613ac082612f0b565b91507fffffffffffffffffffffffffffffffffffffffffffffffffffffffffffffffff8203613af257613af1613a86565b5b600182019050919050565b7f4552433732313a207472616e736665722063616c6c6572206973206e6f74206f60008201527f776e6572206e6f7220617070726f766564000000000000000000000000000000602082015250565b6000613b59603183612f79565b9150613b6482613afd565b604082019050919050565b60006020820190508181036000830152613b8881613b4c565b9050919050565b7f455243373231456e756d657261626c653a206f776e657220696e646578206f7560008201527f74206f6620626f756e6473000000000000000000000000000000000000000000602082015250565b6000613beb602b83612f79565b9150613bf682613b8f565b604082019050919050565b60006020820190508181036000830152613c1a81613bde565b9050919050565b6000613c2c82612f0b565b9150613c3783612f0b565b9250827fffffffffffffffffffffffffffffffffffffffffffffffffffffffffffffffff03821115613c6c57613c6b613a86565b5b828201905092915050565b7f455243373231456e756d657261626c653a20676c6f62616c20696e646578206f60008201527f7574206f6620626f756e64730000000000000000000000000000000000000000602082015250565b6000613cd3602c83612f79565b9150613cde82613c77565b604082019050919050565b60006020820190508181036000830152613d0281613cc6565b9050919050565b7f4552433732313a206f776e657220717565727920666f72206e6f6e657869737460008201527f656e7420746f6b656e0000000000000000000000000000000000000000000000602082015250565b6000613d65602983612f79565b9150613d7082613d09565b604082019050919050565b60006020820190508181036000830152613d9481613d58565b9050919050565b600081519050613daa816130af565b92915050565b600060208284031215613dc657613dc5612e46565b5b6000613dd484828501613d9b565b91505092915050565b7f596f7520617265206e6f74206f776e6572206f662074686973204e4654000000600082015250565b6000613e13601d83612f79565b9150613e1e82613ddd565b602082019050919050565b60006020820190508181036000830152613e4281613e06565b9050919050565b7f596f7520617265206e6f74206f776e6572206f66207468697320546f78696300600082015250565b6000613e7f601f83612f79565b9150613e8a82613e49565b602082019050919050565b60006020820190508181036000830152613eae81613e72565b9050919050565b7f52657175697265204e4654206f776e657273686970207472616e73666572206160008201527f7070726f76616c00000000000000000000000000000000000000000000000000602082015250565b6000613f11602783612f79565b9150613f1c82613eb5565b604082019050919050565b60006020820190508181036000830152613f4081613f04565b9050919050565b7f5265717569726520546f786963206f776e657273686970207472616e7366657260008201527f20617070726f76616c0000000000000000000000000000000000000000000000602082015250565b6000613fa3602983612f79565b9150613fae82613f47565b604082019050919050565b60006020820190508181036000830152613fd281613f96565b9050919050565b6000613fec613fe7846131a0565b613185565b90508281526020810184848401111561400857614007613120565b5b614013848285612f8a565b509392505050565b600082601f8301126140305761402f61311b565b5b8151614040848260208601613fd9565b91505092915050565b60006020828403121561405f5761405e612e46565b5b600082015167ffffffffffffffff81111561407d5761407c612e4b565b5b6140898482850161401b565b91505092915050565b60006060820190506140a76000830186613029565b6140b46020830185613029565b6140c16040830184613029565b949350505050565b7f4552433732313a2062616c616e636520717565727920666f7220746865207a6560008201527f726f206164647265737300000000000000000000000000000000000000000000602082015250565b6000614125602a83612f79565b9150614130826140c9565b604082019050919050565b6000602082019050818103600083015261415481614118565b9050919050565b7f4552433732314d657461646174613a2055524920717565727920666f72206e6f60008201527f6e6578697374656e7420746f6b656e0000000000000000000000000000000000602082015250565b60006141b7602f83612f79565b91506141c28261415b565b604082019050919050565b600060208201905081810360008301526141e6816141aa565b9050919050565b7f4f776e61626c653a206e6577206f776e657220697320746865207a65726f206160008201527f6464726573730000000000000000000000000000000000000000000000000000602082015250565b6000614249602683612f79565b9150614254826141ed565b604082019050919050565b600060208201905081810360008301526142788161423c565b9050919050565b7f4552433732313a206f70657261746f7220717565727920666f72206e6f6e657860008201527f697374656e7420746f6b656e0000000000000000000000000000000000000000602082015250565b60006142db602c83612f79565b91506142e68261427f565b604082019050919050565b6000602082019050818103600083015261430a816142ce565b9050919050565b7f4552433732313a207472616e73666572206f6620746f6b656e2074686174206960008201527f73206e6f74206f776e0000000000000000000000000000000000000000000000602082015250565b600061436d602983612f79565b915061437882614311565b604082019050919050565b6000602082019050818103600083015261439c81614360565b9050919050565b7f4552433732313a207472616e7366657220746f20746865207a65726f2061646460008201527f7265737300000000000000000000000000000000000000000000000000000000602082015250565b60006143ff602483612f79565b915061440a826143a3565b604082019050919050565b6000602082019050818103600083015261442e816143f2565b9050919050565b600061444082612f0b565b915061444b83612f0b565b92508282101561445e5761445d613a86565b5b828203905092915050565b7f4552433732313a20617070726f766520746f2063616c6c657200000000000000600082015250565b600061449f601983612f79565b91506144aa82614469565b602082019050919050565b600060208201905081810360008301526144ce81614492565b9050919050565b7f4552433732313a207472616e7366657220746f206e6f6e20455243373231526560008201527f63656976657220696d706c656d656e7465720000000000000000000000000000602082015250565b6000614531603283612f79565b915061453c826144d5565b604082019050919050565b6000602082019050818103600083015261456081614524565b9050919050565b600081519050919050565b600082825260208201905092915050565b600061458e82614567565b6145988185614572565b93506145a8818560208601612f8a565b6145b181612fbd565b840191505092915050565b60006080820190506145d16000830187613085565b6145de6020830186613085565b6145eb6040830185613029565b81810360608301526145fd8184614583565b905095945050505050565b60008151905061461781612e7c565b92915050565b60006020828403121561463357614632612e46565b5b600061464184828501614608565b91505092915050565b7f4e487b7100000000000000000000000000000000000000000000000000000000600052603160045260246000fd5b7f4552433732313a206d696e7420746f20746865207a65726f2061646472657373600082015250565b60006146af602083612f79565b91506146ba82614679565b602082019050919050565b600060208201905081810360008301526146de816146a2565b9050919050565b7f4552433732313a20746f6b656e20616c7265616479206d696e74656400000000600082015250565b600061471b601c83612f79565b9150614726826146e5565b602082019050919050565b6000602082019050818103600083015261474a8161470e565b905091905056fea2646970667358221220ced3600ae2e1ac22793ff1c1170096fd0a98e1142b6e7d8374c8299aa4ed16af64736f6c634300080d0033",
  "immutableReferences": {},
  "source": "// SPDX-License-Identifier: UNLICENSED\r\npragma solidity ^0.8.0;\r\n\r\nimport \"@openzeppelin/contracts/token/ERC721/IERC721Receiver.sol\";\r\nimport \"@openzeppelin/contracts/token/ERC721/extensions/ERC721Enumerable.sol\";\r\nimport \"@openzeppelin/contracts/token/ERC20/IERC20.sol\";\r\nimport \"@openzeppelin/contracts/access/Ownable.sol\";\r\nimport \"@openzeppelin/contracts/token/ERC20/utils/SafeERC20.sol\";\r\n\r\ncontract MutantNFT is IERC721Receiver,ERC721Enumerable, Ownable {\r\n    using SafeERC20 for IERC20;\r\n    ERC721Enumerable g_firstNftAddress;\r\n    ERC721Enumerable g_secondNftAddress;\r\n    ERC721Enumerable g_toxicNftAddress;\r\n\r\n    uint256 public pos;\t\r\n\tuint256 public mintSupply;\r\n    mapping(uint256 => string) public _data;\t\r\n    mapping(uint256 => uint256) public _origin;\r\n\r\n    \r\n    mapping(string => string) public g_mutantPairs;\r\n    event Purchase(uint256 _tokenId, uint256 _toxicId, uint256 _mutantId);\r\n    constructor (ERC721Enumerable _firstNftAddress, ERC721Enumerable _secondNftAddress, ERC721Enumerable _toxicAddress) ERC721(\"CoinracerNFTCollection\", \"MutantNFT\"){\r\n        pos = 20000;\r\n        mintSupply = 0;\r\n        g_firstNftAddress = _firstNftAddress;\r\n        g_secondNftAddress = _secondNftAddress;\r\n        g_toxicNftAddress = _toxicAddress;\r\n    }\r\n    function purchase(uint256 _tokenId, uint256 _toxicId) external {\r\n        ERC721Enumerable g_nftFactoryAddress;\r\n        if(_tokenId > 5000)\r\n            g_nftFactoryAddress = g_secondNftAddress;\r\n        else\r\n            g_nftFactoryAddress = g_firstNftAddress;\r\n        \r\n        require(g_nftFactoryAddress.ownerOf(_tokenId) == msg.sender, \"You are not owner of this NFT\");\r\n        require(g_toxicNftAddress.ownerOf(_toxicId) == msg.sender, \"You are not owner of this Toxic\");\r\n        require(g_nftFactoryAddress.getApproved(_tokenId) == address(this), \"Require NFT ownership transfer approval\");        \r\n        require(g_toxicNftAddress.getApproved(_toxicId) == address(this), \"Require Toxic ownership transfer approval\");\r\n\r\n        g_nftFactoryAddress.safeTransferFrom(msg.sender, address(this), _tokenId);\r\n        g_toxicNftAddress.safeTransferFrom(msg.sender, address(this), _toxicId);\r\n\r\n        pos = pos + 1;\r\n        _safeMint(msg.sender, pos);\r\n        _data[pos] = g_mutantPairs[g_nftFactoryAddress.tokenURI(_tokenId)];\r\n        _origin[pos] = _tokenId;\r\n        mintSupply += 1;\r\n        emit Purchase(_tokenId, _toxicId, pos);\r\n    }\r\n\r\n    function mintByOwner(address addr, string memory data) external onlyOwner {\r\n\t\tpos = pos + 1;\r\n\t\t_safeMint(addr, pos);\r\n\t\t_data[pos] = data;\r\n\t}\r\n    function getOriginTokenId(uint256 _mutantId) external view returns(uint256) {\r\n        return _origin[_mutantId];\r\n    }\r\n    function withdrawNFT(address _to, uint256[] memory _tokenIds) external onlyOwner {\r\n        for(uint i = 0; i < _tokenIds.length; i++) {\r\n            uint256 tokenId = _tokenIds[i];\r\n            ERC721Enumerable g_nftFactoryAddress;\r\n            if(tokenId > 5000)\r\n                g_nftFactoryAddress = g_secondNftAddress;\r\n            else\r\n                g_nftFactoryAddress = g_firstNftAddress;\r\n\r\n            g_nftFactoryAddress.safeTransferFrom(address(this), _to, tokenId);\r\n        }\r\n    }\r\n\r\n    function withdrawToxic(address _to, uint256[] memory _toxicIds) external onlyOwner {\r\n        for(uint i = 0; i < _toxicIds.length; i++) {\r\n            g_toxicNftAddress.safeTransferFrom(address(this), _to, _toxicIds[i]);\r\n        }\r\n    }\r\n    function setPairs(string memory _old, string memory _mutant) external onlyOwner {\r\n        g_mutantPairs[_old] = _mutant;\r\n    }\r\n    function tokenURI(uint256 tokenId) public view override returns (string memory) {\r\n        require(_exists(tokenId), \"ERC721Metadata: URI query for nonexistent token\");\r\n\t\treturn _data[tokenId];\r\n\t}\r\n\r\n    function onERC721Received(\r\n        address,\r\n        address,\r\n        uint256,\r\n        bytes memory\r\n    ) public virtual override returns (bytes4) {\r\n        return this.onERC721Received.selector;\r\n    }\r\n}",
  "sourcePath": "G:\\2021\\blockchain\\Work\\2021.12.1. CRace NFT Market place\\work\\New Folder\\contracts\\Mutant.sol",
  "compiler": {
    "name": "solc",
    "version": "0.8.13+commit.abaa5c0e.Emscripten.clang"
  },
  "schemaVersion": "3.4.4",
  "updatedAt": "2022-03-17T01:29:17.317Z",
  "devdoc": {
    "kind": "dev",
    "methods": {
      "approve(address,uint256)": {
        "details": "See {IERC721-approve}."
      },
      "balanceOf(address)": {
        "details": "See {IERC721-balanceOf}."
      },
      "getApproved(uint256)": {
        "details": "See {IERC721-getApproved}."
      },
      "isApprovedForAll(address,address)": {
        "details": "See {IERC721-isApprovedForAll}."
      },
      "name()": {
        "details": "See {IERC721Metadata-name}."
      },
      "owner()": {
        "details": "Returns the address of the current owner."
      },
      "ownerOf(uint256)": {
        "details": "See {IERC721-ownerOf}."
      },
      "renounceOwnership()": {
        "details": "Leaves the contract without owner. It will not be possible to call `onlyOwner` functions anymore. Can only be called by the current owner. NOTE: Renouncing ownership will leave the contract without an owner, thereby removing any functionality that is only available to the owner."
      },
      "safeTransferFrom(address,address,uint256)": {
        "details": "See {IERC721-safeTransferFrom}."
      },
      "safeTransferFrom(address,address,uint256,bytes)": {
        "details": "See {IERC721-safeTransferFrom}."
      },
      "setApprovalForAll(address,bool)": {
        "details": "See {IERC721-setApprovalForAll}."
      },
      "supportsInterface(bytes4)": {
        "details": "See {IERC165-supportsInterface}."
      },
      "symbol()": {
        "details": "See {IERC721Metadata-symbol}."
      },
      "tokenByIndex(uint256)": {
        "details": "See {IERC721Enumerable-tokenByIndex}."
      },
      "tokenOfOwnerByIndex(address,uint256)": {
        "details": "See {IERC721Enumerable-tokenOfOwnerByIndex}."
      },
      "tokenURI(uint256)": {
        "details": "See {IERC721Metadata-tokenURI}."
      },
      "totalSupply()": {
        "details": "See {IERC721Enumerable-totalSupply}."
      },
      "transferFrom(address,address,uint256)": {
        "details": "See {IERC721-transferFrom}."
      },
      "transferOwnership(address)": {
        "details": "Transfers ownership of the contract to a new account (`newOwner`). Can only be called by the current owner."
      }
    },
    "version": 1
  },
  "userdoc": {
    "kind": "user",
    "methods": {},
    "version": 1
  }
}