{
  "contractName": "MutantChipRaceContract",
  "abi": [
    {
      "inputs": [
        {
          "internalType": "address",
          "name": "_mutantAddress",
          "type": "address"
        },
        {
          "internalType": "contract IERC20",
          "name": "_tokenAddress",
          "type": "address"
        },
        {
          "internalType": "address",
          "name": "_oldChip",
          "type": "address"
        }
      ],
      "stateMutability": "nonpayable",
      "type": "constructor"
    },
    {
      "anonymous": false,
      "inputs": [
        {
          "indexed": false,
          "internalType": "uint256",
          "name": "_tokenId",
          "type": "uint256"
        },
        {
          "indexed": false,
          "internalType": "uint256",
          "name": "_passedMins",
          "type": "uint256"
        }
      ],
      "name": "ClaimRewardsFromChipRace",
      "type": "event"
    },
    {
      "anonymous": false,
      "inputs": [
        {
          "indexed": false,
          "internalType": "uint256",
          "name": "_tokenId",
          "type": "uint256"
        },
        {
          "indexed": false,
          "internalType": "uint256",
          "name": "_feeAmount",
          "type": "uint256"
        }
      ],
      "name": "EmergencyExitChipRace",
      "type": "event"
    },
    {
      "anonymous": false,
      "inputs": [
        {
          "indexed": false,
          "internalType": "uint256",
          "name": "_tokenId",
          "type": "uint256"
        },
        {
          "indexed": false,
          "internalType": "uint256",
          "name": "_poolId",
          "type": "uint256"
        }
      ],
      "name": "EnterChipRace",
      "type": "event"
    },
    {
      "anonymous": false,
      "inputs": [
        {
          "indexed": true,
          "internalType": "address",
          "name": "previousOwner",
          "type": "address"
        },
        {
          "indexed": true,
          "internalType": "address",
          "name": "newOwner",
          "type": "address"
        }
      ],
      "name": "OwnershipTransferred",
      "type": "event"
    },
    {
      "anonymous": false,
      "inputs": [
        {
          "indexed": false,
          "internalType": "uint256[]",
          "name": "_tokenIds",
          "type": "uint256[]"
        }
      ],
      "name": "UpdateScore",
      "type": "event"
    },
    {
      "anonymous": false,
      "inputs": [
        {
          "indexed": false,
          "internalType": "uint256",
          "name": "_tokenId",
          "type": "uint256"
        },
        {
          "indexed": false,
          "internalType": "uint256",
          "name": "_feeAmount",
          "type": "uint256"
        }
      ],
      "name": "UpgradeNFT",
      "type": "event"
    },
    {
      "inputs": [],
      "name": "feeAmount",
      "outputs": [
        {
          "internalType": "uint256",
          "name": "",
          "type": "uint256"
        }
      ],
      "stateMutability": "view",
      "type": "function"
    },
    {
      "inputs": [
        {
          "internalType": "uint256",
          "name": "",
          "type": "uint256"
        },
        {
          "internalType": "uint256",
          "name": "",
          "type": "uint256"
        }
      ],
      "name": "g_amountForUpgrade",
      "outputs": [
        {
          "internalType": "uint256",
          "name": "",
          "type": "uint256"
        }
      ],
      "stateMutability": "view",
      "type": "function"
    },
    {
      "inputs": [],
      "name": "g_caller",
      "outputs": [
        {
          "internalType": "address",
          "name": "",
          "type": "address"
        }
      ],
      "stateMutability": "view",
      "type": "function"
    },
    {
      "inputs": [
        {
          "internalType": "string",
          "name": "",
          "type": "string"
        }
      ],
      "name": "g_carType",
      "outputs": [
        {
          "internalType": "uint256",
          "name": "",
          "type": "uint256"
        }
      ],
      "stateMutability": "view",
      "type": "function"
    },
    {
      "inputs": [],
      "name": "g_eventDoubling",
      "outputs": [
        {
          "internalType": "uint256",
          "name": "",
          "type": "uint256"
        }
      ],
      "stateMutability": "view",
      "type": "function"
    },
    {
      "inputs": [],
      "name": "g_maxLockTime",
      "outputs": [
        {
          "internalType": "uint256",
          "name": "",
          "type": "uint256"
        }
      ],
      "stateMutability": "view",
      "type": "function"
    },
    {
      "inputs": [
        {
          "internalType": "uint256",
          "name": "",
          "type": "uint256"
        },
        {
          "internalType": "uint256",
          "name": "",
          "type": "uint256"
        }
      ],
      "name": "g_minableAmount",
      "outputs": [
        {
          "internalType": "uint256",
          "name": "",
          "type": "uint256"
        }
      ],
      "stateMutability": "view",
      "type": "function"
    },
    {
      "inputs": [],
      "name": "g_mutantDoubling",
      "outputs": [
        {
          "internalType": "uint256",
          "name": "",
          "type": "uint256"
        }
      ],
      "stateMutability": "view",
      "type": "function"
    },
    {
      "inputs": [
        {
          "internalType": "uint256",
          "name": "",
          "type": "uint256"
        }
      ],
      "name": "g_poolRewardsAmount",
      "outputs": [
        {
          "internalType": "uint256",
          "name": "",
          "type": "uint256"
        }
      ],
      "stateMutability": "view",
      "type": "function"
    },
    {
      "inputs": [
        {
          "internalType": "uint256",
          "name": "",
          "type": "uint256"
        }
      ],
      "name": "g_targetScores",
      "outputs": [
        {
          "internalType": "uint256",
          "name": "",
          "type": "uint256"
        }
      ],
      "stateMutability": "view",
      "type": "function"
    },
    {
      "inputs": [
        {
          "internalType": "uint256",
          "name": "",
          "type": "uint256"
        }
      ],
      "name": "g_tokenInfo",
      "outputs": [
        {
          "internalType": "address",
          "name": "owner",
          "type": "address"
        },
        {
          "internalType": "uint256",
          "name": "level",
          "type": "uint256"
        },
        {
          "internalType": "uint256",
          "name": "rewards",
          "type": "uint256"
        },
        {
          "internalType": "uint256",
          "name": "score",
          "type": "uint256"
        },
        {
          "internalType": "uint256",
          "name": "timeStamp",
          "type": "uint256"
        },
        {
          "internalType": "uint256",
          "name": "runningCounter",
          "type": "uint256"
        },
        {
          "internalType": "bool",
          "name": "isRunning",
          "type": "bool"
        },
        {
          "internalType": "bool",
          "name": "isRestored",
          "type": "bool"
        }
      ],
      "stateMutability": "view",
      "type": "function"
    },
    {
      "inputs": [],
      "name": "owner",
      "outputs": [
        {
          "internalType": "address",
          "name": "",
          "type": "address"
        }
      ],
      "stateMutability": "view",
      "type": "function"
    },
    {
      "inputs": [],
      "name": "renounceOwnership",
      "outputs": [],
      "stateMutability": "nonpayable",
      "type": "function"
    },
    {
      "inputs": [
        {
          "internalType": "address",
          "name": "newOwner",
          "type": "address"
        }
      ],
      "name": "transferOwnership",
      "outputs": [],
      "stateMutability": "nonpayable",
      "type": "function"
    },
    {
      "inputs": [
        {
          "internalType": "uint256",
          "name": "_tokenId",
          "type": "uint256"
        }
      ],
      "name": "getLevelOf",
      "outputs": [
        {
          "internalType": "uint256",
          "name": "",
          "type": "uint256"
        }
      ],
      "stateMutability": "view",
      "type": "function"
    },
    {
      "inputs": [
        {
          "internalType": "uint256",
          "name": "_tokenId",
          "type": "uint256"
        }
      ],
      "name": "isRunningChipRace",
      "outputs": [
        {
          "internalType": "bool",
          "name": "",
          "type": "bool"
        }
      ],
      "stateMutability": "view",
      "type": "function"
    },
    {
      "inputs": [
        {
          "internalType": "uint256",
          "name": "_tokenId",
          "type": "uint256"
        }
      ],
      "name": "isUpgradable",
      "outputs": [
        {
          "internalType": "bool",
          "name": "",
          "type": "bool"
        }
      ],
      "stateMutability": "view",
      "type": "function"
    },
    {
      "inputs": [
        {
          "internalType": "string",
          "name": "_tokenURI",
          "type": "string"
        }
      ],
      "name": "getCarTypeOf",
      "outputs": [
        {
          "internalType": "uint256",
          "name": "",
          "type": "uint256"
        }
      ],
      "stateMutability": "view",
      "type": "function"
    },
    {
      "inputs": [
        {
          "internalType": "uint256",
          "name": "_tokenId",
          "type": "uint256"
        }
      ],
      "name": "getRemainingTime",
      "outputs": [
        {
          "internalType": "uint256",
          "name": "",
          "type": "uint256"
        }
      ],
      "stateMutability": "view",
      "type": "function"
    },
    {
      "inputs": [
        {
          "internalType": "uint256",
          "name": "_tokenId",
          "type": "uint256"
        }
      ],
      "name": "getOwnerOf",
      "outputs": [
        {
          "internalType": "address",
          "name": "",
          "type": "address"
        }
      ],
      "stateMutability": "view",
      "type": "function"
    },
    {
      "inputs": [
        {
          "internalType": "uint256",
          "name": "_tokenId",
          "type": "uint256"
        }
      ],
      "name": "getInfo",
      "outputs": [
        {
          "internalType": "uint256",
          "name": "level",
          "type": "uint256"
        },
        {
          "internalType": "uint256",
          "name": "remainningTime",
          "type": "uint256"
        },
        {
          "internalType": "uint256",
          "name": "score",
          "type": "uint256"
        },
        {
          "internalType": "uint256",
          "name": "rewards",
          "type": "uint256"
        },
        {
          "internalType": "bool",
          "name": "canUpgrade",
          "type": "bool"
        },
        {
          "internalType": "bool",
          "name": "isEnter",
          "type": "bool"
        }
      ],
      "stateMutability": "view",
      "type": "function"
    },
    {
      "inputs": [
        {
          "internalType": "uint256",
          "name": "_tokenId",
          "type": "uint256"
        },
        {
          "internalType": "uint256",
          "name": "_poolId",
          "type": "uint256"
        }
      ],
      "name": "enterChipRace",
      "outputs": [],
      "stateMutability": "nonpayable",
      "type": "function"
    },
    {
      "inputs": [
        {
          "internalType": "uint256",
          "name": "_tokenId",
          "type": "uint256"
        }
      ],
      "name": "claimRewards",
      "outputs": [],
      "stateMutability": "nonpayable",
      "type": "function"
    },
    {
      "inputs": [
        {
          "internalType": "uint256",
          "name": "_tokenId",
          "type": "uint256"
        },
        {
          "internalType": "uint256",
          "name": "_amount",
          "type": "uint256"
        }
      ],
      "name": "upgradeNFT",
      "outputs": [],
      "stateMutability": "nonpayable",
      "type": "function"
    },
    {
      "inputs": [
        {
          "internalType": "uint256",
          "name": "_score",
          "type": "uint256"
        },
        {
          "internalType": "uint256[]",
          "name": "tokenIds",
          "type": "uint256[]"
        }
      ],
      "name": "updateScore",
      "outputs": [],
      "stateMutability": "nonpayable",
      "type": "function"
    },
    {
      "inputs": [
        {
          "internalType": "uint256",
          "name": "_tokenId",
          "type": "uint256"
        },
        {
          "internalType": "uint256",
          "name": "_exp",
          "type": "uint256"
        }
      ],
      "name": "updateExp",
      "outputs": [],
      "stateMutability": "nonpayable",
      "type": "function"
    },
    {
      "inputs": [
        {
          "internalType": "uint256",
          "name": "_doubling",
          "type": "uint256"
        }
      ],
      "name": "setEventDoubling",
      "outputs": [],
      "stateMutability": "nonpayable",
      "type": "function"
    },
    {
      "inputs": [
        {
          "internalType": "address",
          "name": "_caller",
          "type": "address"
        }
      ],
      "name": "setCaller",
      "outputs": [],
      "stateMutability": "nonpayable",
      "type": "function"
    },
    {
      "inputs": [
        {
          "internalType": "address",
          "name": "_caller",
          "type": "address"
        }
      ],
      "name": "setExpUpdater",
      "outputs": [],
      "stateMutability": "nonpayable",
      "type": "function"
    },
    {
      "inputs": [
        {
          "internalType": "uint256",
          "name": "_level",
          "type": "uint256"
        },
        {
          "internalType": "uint256",
          "name": "_targetScore",
          "type": "uint256"
        }
      ],
      "name": "setTargetScoreOf",
      "outputs": [],
      "stateMutability": "nonpayable",
      "type": "function"
    },
    {
      "inputs": [
        {
          "internalType": "string",
          "name": "_uri",
          "type": "string"
        },
        {
          "internalType": "uint256",
          "name": "_type",
          "type": "uint256"
        }
      ],
      "name": "setCarType",
      "outputs": [],
      "stateMutability": "nonpayable",
      "type": "function"
    },
    {
      "inputs": [
        {
          "internalType": "uint256",
          "name": "_type",
          "type": "uint256"
        },
        {
          "internalType": "uint256",
          "name": "_level",
          "type": "uint256"
        },
        {
          "internalType": "uint256",
          "name": "_amount",
          "type": "uint256"
        }
      ],
      "name": "setMinableAmount",
      "outputs": [],
      "stateMutability": "nonpayable",
      "type": "function"
    },
    {
      "inputs": [
        {
          "internalType": "uint256",
          "name": "_type",
          "type": "uint256"
        },
        {
          "internalType": "uint256",
          "name": "_level",
          "type": "uint256"
        },
        {
          "internalType": "uint256",
          "name": "_amount",
          "type": "uint256"
        }
      ],
      "name": "setUpgradeAmount",
      "outputs": [],
      "stateMutability": "nonpayable",
      "type": "function"
    },
    {
      "inputs": [
        {
          "internalType": "uint256",
          "name": "_time",
          "type": "uint256"
        }
      ],
      "name": "setMaxLockTime",
      "outputs": [],
      "stateMutability": "nonpayable",
      "type": "function"
    },
    {
      "inputs": [],
      "name": "withdrawFeeAmount",
      "outputs": [],
      "stateMutability": "nonpayable",
      "type": "function"
    },
    {
      "inputs": [],
      "name": "withdrawAllFunds",
      "outputs": [],
      "stateMutability": "nonpayable",
      "type": "function"
    },
    {
      "inputs": [
        {
          "internalType": "uint256",
          "name": "_amount",
          "type": "uint256"
        }
      ],
      "name": "depositeFunds",
      "outputs": [],
      "stateMutability": "nonpayable",
      "type": "function"
    },
    {
      "inputs": [
        {
          "internalType": "uint256",
          "name": "_poolId",
          "type": "uint256"
        },
        {
          "internalType": "uint256",
          "name": "_amount",
          "type": "uint256"
        }
      ],
      "name": "depositePoolFunds",
      "outputs": [],
      "stateMutability": "nonpayable",
      "type": "function"
    },
    {
      "inputs": [
        {
          "internalType": "uint256",
          "name": "_poolId",
          "type": "uint256"
        },
        {
          "internalType": "uint256",
          "name": "_amount",
          "type": "uint256"
        }
      ],
      "name": "withdrawPoolFunds",
      "outputs": [],
      "stateMutability": "nonpayable",
      "type": "function"
    },
    {
      "inputs": [
        {
          "internalType": "uint256",
          "name": "_tokenId",
          "type": "uint256"
        }
      ],
      "name": "withdrawNFT",
      "outputs": [],
      "stateMutability": "nonpayable",
      "type": "function"
    },
    {
      "inputs": [
        {
          "internalType": "address",
          "name": "",
          "type": "address"
        },
        {
          "internalType": "address",
          "name": "",
          "type": "address"
        },
        {
          "internalType": "uint256",
          "name": "",
          "type": "uint256"
        },
        {
          "internalType": "bytes",
          "name": "",
          "type": "bytes"
        }
      ],
      "name": "onERC721Received",
      "outputs": [
        {
          "internalType": "bytes4",
          "name": "",
          "type": "bytes4"
        }
      ],
      "stateMutability": "nonpayable",
      "type": "function"
    }
  ],
  "bytecode": "0x60806040523480156200001157600080fd5b506040516200521838038062005218833981810160405281019062000037919062000300565b620000576200004b6200018560201b60201c565b6200018d60201b60201c565b82600160006101000a81548173ffffffffffffffffffffffffffffffffffffffff021916908373ffffffffffffffffffffffffffffffffffffffff16021790555082600460006101000a81548173ffffffffffffffffffffffffffffffffffffffff021916908373ffffffffffffffffffffffffffffffffffffffff16021790555081600260006101000a81548173ffffffffffffffffffffffffffffffffffffffff021916908373ffffffffffffffffffffffffffffffffffffffff16021790555080600360006101000a81548173ffffffffffffffffffffffffffffffffffffffff021916908373ffffffffffffffffffffffffffffffffffffffff160217905550612760600b819055506000600c819055506001600d81905550600c600e819055505050506200035c565b600033905090565b60008060009054906101000a900473ffffffffffffffffffffffffffffffffffffffff169050816000806101000a81548173ffffffffffffffffffffffffffffffffffffffff021916908373ffffffffffffffffffffffffffffffffffffffff1602179055508173ffffffffffffffffffffffffffffffffffffffff168173ffffffffffffffffffffffffffffffffffffffff167f8be0079c531659141344cd1fd0a4f28419497f9722a3daafe3b4186f6b6457e060405160405180910390a35050565b600080fd5b600073ffffffffffffffffffffffffffffffffffffffff82169050919050565b6000620002838262000256565b9050919050565b620002958162000276565b8114620002a157600080fd5b50565b600081519050620002b5816200028a565b92915050565b6000620002c88262000276565b9050919050565b620002da81620002bb565b8114620002e657600080fd5b50565b600081519050620002fa81620002cf565b92915050565b6000806000606084860312156200031c576200031b62000251565b5b60006200032c86828701620002a4565b93505060206200033f86828701620002e9565b92505060406200035286828701620002a4565b9150509250925092565b614eac806200036c6000396000f3fe608060405234801561001057600080fd5b50600436106102535760003560e01c80636329874211610146578063acb32222116100c3578063dc54886f11610087578063dc54886f14610707578063e6dec15914610737578063f2fde38b1461076e578063f9578c5e1461078a578063fac9b99c146107a6578063fe9d16e0146107b057610253565b8063acb3222214610665578063b57c04a614610695578063ba5ae809146106b1578063beb92f55146106cd578063dc1666e3146106e957610253565b8063836387101161010a57806383638710146105bf5780638da5cb5b146105ef5780638dd4c4541461060d578063999f61961461062b578063a86d01d81461064957610253565b8063632987421461052f57806369e154041461054b578063714446f814610569578063715018a614610599578063742db39a146105a357610253565b80632ad4de29116101d457806342e931321161019857806342e931321461048d57806349649fbf146104a957806351c8244a146104b357806352971076146104cf57806354d87ef7146104ff57610253565b80632ad4de29146103d957806339574ec7146103f55780633cc02c1d146104115780633ff047a614610441578063401332781461045d57610253565b806317bc1f2b1161021b57806317bc1f2b1461030c578063181e01241461033c5780631a3cd59a1461036c5780631d9b0c48146103a1578063280c084e146103bd57610253565b8063023245d7146102585780630962ef791461027457806309be2c391461029057806311a582e7146102c0578063150b7a02146102dc575b600080fd5b610272600480360381019061026d91906135c4565b6107ce565b005b61028e600480360381019061028991906135c4565b6109be565b005b6102aa60048036038101906102a59190613737565b610e2e565b6040516102b7919061378f565b60405180910390f35b6102da60048036038101906102d59190613808565b610e5c565b005b6102f660048036038101906102f191906138d6565b610f1c565b6040516103039190613994565b60405180910390f35b610326600480360381019061032191906139af565b610f30565b604051610333919061378f565b60405180910390f35b610356600480360381019061035191906135c4565b610f55565b604051610363919061378f565b60405180910390f35b610386600480360381019061038191906135c4565b610f80565b60405161039896959493929190613a0a565b60405180910390f35b6103bb60048036038101906103b69190613b33565b611241565b005b6103d760048036038101906103d291906139af565b6113b5565b005b6103f360048036038101906103ee9190613b8f565b6115a4565b005b61040f600480360381019061040a91906135c4565b611647565b005b61042b600480360381019061042691906135c4565b6116cd565b604051610438919061378f565b60405180910390f35b61045b600480360381019061045691906135c4565b6116e5565b005b610477600480360381019061047291906135c4565b611892565b604051610484919061378f565b60405180910390f35b6104a760048036038101906104a291906139af565b6118aa565b005b6104b1611942565b005b6104cd60048036038101906104c891906139af565b611b02565b005b6104e960048036038101906104e49190613737565b611bc6565b6040516104f6919061378f565b60405180910390f35b610519600480360381019061051491906139af565b611bee565b604051610526919061378f565b60405180910390f35b61054960048036038101906105449190613beb565b611c13565b005b610553611cbd565b604051610560919061378f565b60405180910390f35b610583600480360381019061057e91906135c4565b611cc3565b6040516105909190613c3e565b60405180910390f35b6105a1611cf0565b005b6105bd60048036038101906105b89190613beb565b611d78565b005b6105d960048036038101906105d491906135c4565b611e22565b6040516105e69190613c68565b60405180910390f35b6105f7611ec7565b6040516106049190613c68565b60405180910390f35b610615611ef0565b604051610622919061378f565b60405180910390f35b610633611ef6565b604051610640919061378f565b60405180910390f35b610663600480360381019061065e91906135c4565b611efc565b005b61067f600480360381019061067a91906135c4565b611f82565b60405161068c9190613c3e565b60405180910390f35b6106af60048036038101906106aa91906139af565b61201d565b005b6106cb60048036038101906106c691906139af565b612518565b005b6106e760048036038101906106e29190613808565b6126b4565b005b6106f1612774565b6040516106fe9190613c68565b60405180910390f35b610721600480360381019061071c91906135c4565b61279a565b60405161072e919061378f565b60405180910390f35b610751600480360381019061074c91906135c4565b6127ba565b604051610765989796959493929190613c83565b60405180910390f35b61078860048036038101906107839190613808565b61283c565b005b6107a4600480360381019061079f91906139af565b612933565b005b6107ae612deb565b005b6107b8612f59565b6040516107c5919061378f565b60405180910390f35b6107d6612f5f565b73ffffffffffffffffffffffffffffffffffffffff166107f4611ec7565b73ffffffffffffffffffffffffffffffffffffffff161461084a576040517f08c379a000000000000000000000000000000000000000000000000000000000815260040161084190613d5e565b60405180910390fd5b60006006600083815260200190815260200160002060000160009054906101000a900473ffffffffffffffffffffffffffffffffffffffff169050600073ffffffffffffffffffffffffffffffffffffffff168173ffffffffffffffffffffffffffffffffffffffff16036108f4576040517f08c379a00000000000000000000000000000000000000000000000000000000081526004016108eb90613dca565b60405180910390fd5b600160009054906101000a900473ffffffffffffffffffffffffffffffffffffffff1673ffffffffffffffffffffffffffffffffffffffff166342842e0e3083856040518463ffffffff1660e01b815260040161095393929190613dea565b600060405180830381600087803b15801561096d57600080fd5b505af1158015610981573d6000803e3d6000fd5b50505050600060066000848152602001908152602001600020905060008160060160006101000a81548160ff021916908315150217905550505050565b3373ffffffffffffffffffffffffffffffffffffffff166006600083815260200190815260200160002060000160009054906101000a900473ffffffffffffffffffffffffffffffffffffffff1673ffffffffffffffffffffffffffffffffffffffff1614610a62576040517f08c379a0000000000000000000000000000000000000000000000000000000008152600401610a5990613e6d565b60405180910390fd5b600115156006600083815260200190815260200160002060060160009054906101000a900460ff16151514610acc576040517f08c379a0000000000000000000000000000000000000000000000000000000008152600401610ac390613ed9565b60405180910390fd5b6000603c600660008481526020019081526020016000206004015442610af29190613f28565b610afc9190613f8b565b905060006007600160009054906101000a900473ffffffffffffffffffffffffffffffffffffffff1673ffffffffffffffffffffffffffffffffffffffff1663c87b56dd856040518263ffffffff1660e01b8152600401610b5d919061378f565b600060405180830381865afa158015610b7a573d6000803e3d6000fd5b505050506040513d6000823e3d601f19601f82011682018060405250810190610ba3919061405f565b604051610bb091906140ef565b90815260200160405180910390205490506000600660008581526020019081526020016000209050600080600b548510610bee57600b549050610bf2565b8490505b600a600e54600d54836008600089815260200190815260200160002060008860010154815260200190815260200160002054610c2e9190614106565b610c389190614106565b610c429190614106565b610c4c9190613f8b565b915081600a6000868152602001908152602001600020541015610ca4576040517f08c379a0000000000000000000000000000000000000000000000000000000008152600401610c9b906141d2565b60405180910390fd5b610cf13383600260009054906101000a900473ffffffffffffffffffffffffffffffffffffffff1673ffffffffffffffffffffffffffffffffffffffff16612f679092919063ffffffff16565b600160009054906101000a900473ffffffffffffffffffffffffffffffffffffffff1673ffffffffffffffffffffffffffffffffffffffff166342842e0e3033896040518463ffffffff1660e01b8152600401610d5093929190613dea565b600060405180830381600087803b158015610d6a57600080fd5b505af1158015610d7e573d6000803e3d6000fd5b50505050818360020154610d9291906141f2565b836002018190555060008360060160006101000a81548160ff02191690831515021790555081600a600086815260200190815260200160002054610dd69190613f28565b600a6000868152602001908152602001600020819055507fc77f5f980a2ccfb16d1d731207e86eb7491294a1f39058ce72159dfb6d0c756a8682604051610e1e929190614248565b60405180910390a1505050505050565b6007818051602081018201805184825260208301602085012081835280955050505050506000915090505481565b610e64612f5f565b73ffffffffffffffffffffffffffffffffffffffff16610e82611ec7565b73ffffffffffffffffffffffffffffffffffffffff1614610ed8576040517f08c379a0000000000000000000000000000000000000000000000000000000008152600401610ecf90613d5e565b60405180910390fd5b80601060006101000a81548173ffffffffffffffffffffffffffffffffffffffff021916908373ffffffffffffffffffffffffffffffffffffffff16021790555050565b600063150b7a0260e01b9050949350505050565b6008602052816000526040600020602052806000526040600020600091509150505481565b6000600660008381526020019081526020016000206004015442610f799190613f28565b9050919050565b600080600080600080600015156006600089815260200190815260200160002060060160019054906101000a900460ff16151503611106576000600460009054906101000a900473ffffffffffffffffffffffffffffffffffffffff1673ffffffffffffffffffffffffffffffffffffffff16631288d98a896040518263ffffffff1660e01b8152600401611015919061378f565b602060405180830381865afa158015611032573d6000803e3d6000fd5b505050506040513d601f19601f820116820180604052508101906110569190614286565b9050600360009054906101000a900473ffffffffffffffffffffffffffffffffffffffff1673ffffffffffffffffffffffffffffffffffffffff16631a3cd59a826040518263ffffffff1660e01b81526004016110b3919061378f565b60c060405180830381865afa1580156110d0573d6000803e3d6000fd5b505050506040513d601f19601f820116820180604052508101906110f491906142df565b96509650965096509650965050611238565b600060066000898152602001908152602001600020600401544261112a9190613f28565b90506000600660008a81526020019081526020016000206001015490506000808a905060006005600060018661116091906141f2565b815260200190815260200160002054141580156111b257506005600060018561118991906141f2565b815260200190815260200160002054600660008d81526020019081526020016000206003015410155b156111bc57600191505b60066000828152602001908152602001600020600101548460066000848152602001908152602001600020600301546006600085815260200190815260200160002060020154856006600087815260200190815260200160002060060160009054906101000a900460ff16995099509950995099509950505050505b91939550919395565b600f60009054906101000a900473ffffffffffffffffffffffffffffffffffffffff1673ffffffffffffffffffffffffffffffffffffffff163373ffffffffffffffffffffffffffffffffffffffff16146112d1576040517f08c379a00000000000000000000000000000000000000000000000000000000081526004016112c8906143de565b60405180910390fd5b60005b81518110156113795760008282815181106112f2576112f16143fe565b5b60200260200101519050600015156006600083815260200190815260200160002060060160019054906101000a900460ff161515036113355761133481612fed565b5b600060066000838152602001908152602001600020905084816003015461135c91906141f2565b8160030181905550505080806113719061442d565b9150506112d4565b507f95b6cc2c2ad9a8f0a452ae21fd0395982a2016f61d0c6af4d88719f9811a33e4816040516113a99190614533565b60405180910390a15050565b6113bd612f5f565b73ffffffffffffffffffffffffffffffffffffffff166113db611ec7565b73ffffffffffffffffffffffffffffffffffffffff1614611431576040517f08c379a000000000000000000000000000000000000000000000000000000000815260040161142890613d5e565b60405180910390fd5b60008111611474576040517f08c379a000000000000000000000000000000000000000000000000000000000815260040161146b906145a1565b60405180910390fd5b600a60008381526020019081526020016000205481106114c9576040517f08c379a00000000000000000000000000000000000000000000000000000000081526004016114c09061460d565b60405180910390fd5b600260009054906101000a900473ffffffffffffffffffffffffffffffffffffffff1673ffffffffffffffffffffffffffffffffffffffff1663a9059cbb33836040518363ffffffff1660e01b815260040161152692919061462d565b6020604051808303816000875af1158015611545573d6000803e3d6000fd5b505050506040513d601f19601f820116820180604052508101906115699190614656565b5080600a6000848152602001908152602001600020546115899190613f28565b600a6000848152602001908152602001600020819055505050565b6115ac612f5f565b73ffffffffffffffffffffffffffffffffffffffff166115ca611ec7565b73ffffffffffffffffffffffffffffffffffffffff1614611620576040517f08c379a000000000000000000000000000000000000000000000000000000000815260040161161790613d5e565b60405180910390fd5b8060078360405161163191906140ef565b9081526020016040518091039020819055505050565b61164f612f5f565b73ffffffffffffffffffffffffffffffffffffffff1661166d611ec7565b73ffffffffffffffffffffffffffffffffffffffff16146116c3576040517f08c379a00000000000000000000000000000000000000000000000000000000081526004016116ba90613d5e565b60405180910390fd5b80600d8190555050565b600a6020528060005260406000206000915090505481565b6116ed612f5f565b73ffffffffffffffffffffffffffffffffffffffff1661170b611ec7565b73ffffffffffffffffffffffffffffffffffffffff1614611761576040517f08c379a000000000000000000000000000000000000000000000000000000000815260040161175890613d5e565b60405180910390fd5b600081116117a4576040517f08c379a000000000000000000000000000000000000000000000000000000000815260040161179b906145a1565b60405180910390fd5b600260009054906101000a900473ffffffffffffffffffffffffffffffffffffffff1673ffffffffffffffffffffffffffffffffffffffff166323b872dd3330846040518463ffffffff1660e01b815260040161180393929190613dea565b6020604051808303816000875af1158015611822573d6000803e3d6000fd5b505050506040513d601f19601f820116820180604052508101906118469190614656565b506000600190505b600681101561188e576005826118649190613f8b565b600a60008381526020019081526020016000208190555080806118869061442d565b91505061184e565b5050565b60056020528060005260406000206000915090505481565b6118b2612f5f565b73ffffffffffffffffffffffffffffffffffffffff166118d0611ec7565b73ffffffffffffffffffffffffffffffffffffffff1614611926576040517f08c379a000000000000000000000000000000000000000000000000000000000815260040161191d90613d5e565b60405180910390fd5b8060056000848152602001908152602001600020819055505050565b61194a612f5f565b73ffffffffffffffffffffffffffffffffffffffff16611968611ec7565b73ffffffffffffffffffffffffffffffffffffffff16146119be576040517f08c379a00000000000000000000000000000000000000000000000000000000081526004016119b590613d5e565b60405180910390fd5b6000600260009054906101000a900473ffffffffffffffffffffffffffffffffffffffff1673ffffffffffffffffffffffffffffffffffffffff166370a08231306040518263ffffffff1660e01b8152600401611a1b9190613c68565b602060405180830381865afa158015611a38573d6000803e3d6000fd5b505050506040513d601f19601f82011682018060405250810190611a5c9190614286565b9050600260009054906101000a900473ffffffffffffffffffffffffffffffffffffffff1673ffffffffffffffffffffffffffffffffffffffff1663a9059cbb33836040518363ffffffff1660e01b8152600401611abb92919061462d565b6020604051808303816000875af1158015611ada573d6000803e3d6000fd5b505050506040513d601f19601f82011682018060405250810190611afe9190614656565b5050565b601060009054906101000a900473ffffffffffffffffffffffffffffffffffffffff1673ffffffffffffffffffffffffffffffffffffffff163373ffffffffffffffffffffffffffffffffffffffff1614611b92576040517f08c379a0000000000000000000000000000000000000000000000000000000008152600401611b89906146f5565b60405180910390fd5b6000600660008481526020019081526020016000209050818160030154611bb991906141f2565b8160030181905550505050565b6000600782604051611bd891906140ef565b9081526020016040518091039020549050919050565b6009602052816000526040600020602052806000526040600020600091509150505481565b611c1b612f5f565b73ffffffffffffffffffffffffffffffffffffffff16611c39611ec7565b73ffffffffffffffffffffffffffffffffffffffff1614611c8f576040517f08c379a0000000000000000000000000000000000000000000000000000000008152600401611c8690613d5e565b60405180910390fd5b8060096000858152602001908152602001600020600084815260200190815260200160002081905550505050565b600c5481565b60006006600083815260200190815260200160002060060160009054906101000a900460ff169050919050565b611cf8612f5f565b73ffffffffffffffffffffffffffffffffffffffff16611d16611ec7565b73ffffffffffffffffffffffffffffffffffffffff1614611d6c576040517f08c379a0000000000000000000000000000000000000000000000000000000008152600401611d6390613d5e565b60405180910390fd5b611d7660006131c0565b565b611d80612f5f565b73ffffffffffffffffffffffffffffffffffffffff16611d9e611ec7565b73ffffffffffffffffffffffffffffffffffffffff1614611df4576040517f08c379a0000000000000000000000000000000000000000000000000000000008152600401611deb90613d5e565b60405180910390fd5b8060086000858152602001908152602001600020600084815260200190815260200160002081905550505050565b6000600160009054906101000a900473ffffffffffffffffffffffffffffffffffffffff1673ffffffffffffffffffffffffffffffffffffffff16636352211e836040518263ffffffff1660e01b8152600401611e7f919061378f565b602060405180830381865afa158015611e9c573d6000803e3d6000fd5b505050506040513d601f19601f82011682018060405250810190611ec0919061472a565b9050919050565b60008060009054906101000a900473ffffffffffffffffffffffffffffffffffffffff16905090565b600b5481565b600d5481565b611f04612f5f565b73ffffffffffffffffffffffffffffffffffffffff16611f22611ec7565b73ffffffffffffffffffffffffffffffffffffffff1614611f78576040517f08c379a0000000000000000000000000000000000000000000000000000000008152600401611f6f90613d5e565b60405180910390fd5b80600b8190555050565b60008060066000848152602001908152602001600020600101549050600060056000600184611fb191906141f2565b81526020019081526020016000205414158015612003575060056000600183611fda91906141f2565b815260200190815260200160002054600660008581526020019081526020016000206003015410155b15612012576001915050612018565b60009150505b919050565b600015156006600084815260200190815260200160002060060160019054906101000a900460ff161515036120565761205582612fed565b5b3373ffffffffffffffffffffffffffffffffffffffff163073ffffffffffffffffffffffffffffffffffffffff166383638710846040518263ffffffff1660e01b81526004016120a6919061378f565b602060405180830381865afa1580156120c3573d6000803e3d6000fd5b505050506040513d601f19601f820116820180604052508101906120e7919061472a565b73ffffffffffffffffffffffffffffffffffffffff161461213d576040517f08c379a000000000000000000000000000000000000000000000000000000000815260040161213490613e6d565b60405180910390fd5b600015156006600084815260200190815260200160002060060160009054906101000a900460ff161515146121a7576040517f08c379a000000000000000000000000000000000000000000000000000000000815260040161219e906147c9565b60405180910390fd5b806007600160009054906101000a900473ffffffffffffffffffffffffffffffffffffffff1673ffffffffffffffffffffffffffffffffffffffff1663c87b56dd856040518263ffffffff1660e01b8152600401612205919061378f565b600060405180830381865afa158015612222573d6000803e3d6000fd5b505050506040513d6000823e3d601f19601f8201168201806040525081019061224b919061405f565b60405161225891906140ef565b908152602001604051809103902054146122a7576040517f08c379a000000000000000000000000000000000000000000000000000000000815260040161229e9061485b565b60405180910390fd5b3073ffffffffffffffffffffffffffffffffffffffff16600160009054906101000a900473ffffffffffffffffffffffffffffffffffffffff1673ffffffffffffffffffffffffffffffffffffffff1663081812fc846040518263ffffffff1660e01b8152600401612319919061378f565b602060405180830381865afa158015612336573d6000803e3d6000fd5b505050506040513d601f19601f8201168201806040525081019061235a919061472a565b73ffffffffffffffffffffffffffffffffffffffff16146123b0576040517f08c379a00000000000000000000000000000000000000000000000000000000081526004016123a7906148ed565b60405180910390fd5b600160009054906101000a900473ffffffffffffffffffffffffffffffffffffffff1673ffffffffffffffffffffffffffffffffffffffff166342842e0e3330856040518463ffffffff1660e01b815260040161240f93929190613dea565b600060405180830381600087803b15801561242957600080fd5b505af115801561243d573d6000803e3d6000fd5b505050506000600660008481526020019081526020016000209050338160000160006101000a81548173ffffffffffffffffffffffffffffffffffffffff021916908373ffffffffffffffffffffffffffffffffffffffff16021790555060018160060160006101000a81548160ff021916908315150217905550600181600501546124c991906141f2565b81600501819055504281600401819055507f9eb3114351ab05e0adb144698c6ddb994eca236c546a7b102438287bbf291f21838360405161250b929190614248565b60405180910390a1505050565b612520612f5f565b73ffffffffffffffffffffffffffffffffffffffff1661253e611ec7565b73ffffffffffffffffffffffffffffffffffffffff1614612594576040517f08c379a000000000000000000000000000000000000000000000000000000000815260040161258b90613d5e565b60405180910390fd5b600081116125d7576040517f08c379a00000000000000000000000000000000000000000000000000000000081526004016125ce906145a1565b60405180910390fd5b600260009054906101000a900473ffffffffffffffffffffffffffffffffffffffff1673ffffffffffffffffffffffffffffffffffffffff166323b872dd3330846040518463ffffffff1660e01b815260040161263693929190613dea565b6020604051808303816000875af1158015612655573d6000803e3d6000fd5b505050506040513d601f19601f820116820180604052508101906126799190614656565b5080600a60008481526020019081526020016000205461269991906141f2565b600a6000848152602001908152602001600020819055505050565b6126bc612f5f565b73ffffffffffffffffffffffffffffffffffffffff166126da611ec7565b73ffffffffffffffffffffffffffffffffffffffff1614612730576040517f08c379a000000000000000000000000000000000000000000000000000000000815260040161272790613d5e565b60405180910390fd5b80600f60006101000a81548173ffffffffffffffffffffffffffffffffffffffff021916908373ffffffffffffffffffffffffffffffffffffffff16021790555050565b600f60009054906101000a900473ffffffffffffffffffffffffffffffffffffffff1681565b600060066000838152602001908152602001600020600101549050919050565b60066020528060005260406000206000915090508060000160009054906101000a900473ffffffffffffffffffffffffffffffffffffffff16908060010154908060020154908060030154908060040154908060050154908060060160009054906101000a900460ff16908060060160019054906101000a900460ff16905088565b612844612f5f565b73ffffffffffffffffffffffffffffffffffffffff16612862611ec7565b73ffffffffffffffffffffffffffffffffffffffff16146128b8576040517f08c379a00000000000000000000000000000000000000000000000000000000081526004016128af90613d5e565b60405180910390fd5b600073ffffffffffffffffffffffffffffffffffffffff168173ffffffffffffffffffffffffffffffffffffffff1603612927576040517f08c379a000000000000000000000000000000000000000000000000000000000815260040161291e9061497f565b60405180910390fd5b612930816131c0565b50565b600015156006600084815260200190815260200160002060060160019054906101000a900460ff1615150361296c5761296b82612fed565b5b3373ffffffffffffffffffffffffffffffffffffffff163073ffffffffffffffffffffffffffffffffffffffff166383638710846040518263ffffffff1660e01b81526004016129bc919061378f565b602060405180830381865afa1580156129d9573d6000803e3d6000fd5b505050506040513d601f19601f820116820180604052508101906129fd919061472a565b73ffffffffffffffffffffffffffffffffffffffff1614612a53576040517f08c379a0000000000000000000000000000000000000000000000000000000008152600401612a4a90613e6d565b60405180910390fd5b600115153073ffffffffffffffffffffffffffffffffffffffff1663acb32222846040518263ffffffff1660e01b8152600401612a90919061378f565b602060405180830381865afa158015612aad573d6000803e3d6000fd5b505050506040513d601f19601f82011682018060405250810190612ad19190614656565b151514612b13576040517f08c379a0000000000000000000000000000000000000000000000000000000008152600401612b0a90614a11565b60405180910390fd5b600015156006600084815260200190815260200160002060060160009054906101000a900460ff16151514612b7d576040517f08c379a0000000000000000000000000000000000000000000000000000000008152600401612b7490614aa3565b60405180910390fd5b60006007600160009054906101000a900473ffffffffffffffffffffffffffffffffffffffff1673ffffffffffffffffffffffffffffffffffffffff1663c87b56dd856040518263ffffffff1660e01b8152600401612bdc919061378f565b600060405180830381865afa158015612bf9573d6000803e3d6000fd5b505050506040513d6000823e3d601f19601f82011682018060405250810190612c22919061405f565b604051612c2f91906140ef565b90815260200160405180910390205490506000600660008581526020019081526020016000209050600060096000848152602001908152602001600020600060018460010154612c7f91906141f2565b81526020019081526020016000205403612cce576040517f08c379a0000000000000000000000000000000000000000000000000000000008152600401612cc590614b0f565b60405180910390fd5b8260096000848152602001908152602001600020600060018460010154612cf591906141f2565b81526020019081526020016000205414612d44576040517f08c379a0000000000000000000000000000000000000000000000000000000008152600401612d3b90614ba1565b60405180910390fd5b612d93333085600260009054906101000a900473ffffffffffffffffffffffffffffffffffffffff1673ffffffffffffffffffffffffffffffffffffffff16613284909392919063ffffffff16565b60018160010154612da491906141f2565b81600101819055507f58db2303108100692517cadf232d1f71f0435084164b17a7fcbf3f96df8864cf8484604051612ddd929190614248565b60405180910390a150505050565b612df3612f5f565b73ffffffffffffffffffffffffffffffffffffffff16612e11611ec7565b73ffffffffffffffffffffffffffffffffffffffff1614612e67576040517f08c379a0000000000000000000000000000000000000000000000000000000008152600401612e5e90613d5e565b60405180910390fd5b6000600c5411612eac576040517f08c379a0000000000000000000000000000000000000000000000000000000008152600401612ea390614c0d565b60405180910390fd5b600260009054906101000a900473ffffffffffffffffffffffffffffffffffffffff1673ffffffffffffffffffffffffffffffffffffffff1663a9059cbb33600c546040518363ffffffff1660e01b8152600401612f0b92919061462d565b6020604051808303816000875af1158015612f2a573d6000803e3d6000fd5b505050506040513d601f19601f82011682018060405250810190612f4e9190614656565b506000600c81905550565b600e5481565b600033905090565b612fe88363a9059cbb60e01b8484604051602401612f8692919061462d565b604051602081830303815290604052907bffffffffffffffffffffffffffffffffffffffffffffffffffffffff19166020820180517bffffffffffffffffffffffffffffffffffffffffffffffffffffffff838183161783525050505061330d565b505050565b60006006600083815260200190815260200160002090506000806000806000806000600460009054906101000a900473ffffffffffffffffffffffffffffffffffffffff1673ffffffffffffffffffffffffffffffffffffffff16631288d98a8a6040518263ffffffff1660e01b815260040161306a919061378f565b602060405180830381865afa158015613087573d6000803e3d6000fd5b505050506040513d601f19601f820116820180604052508101906130ab9190614286565b9050600360009054906101000a900473ffffffffffffffffffffffffffffffffffffffff1673ffffffffffffffffffffffffffffffffffffffff16631a3cd59a826040518263ffffffff1660e01b8152600401613108919061378f565b60c060405180830381865afa158015613125573d6000803e3d6000fd5b505050506040513d601f19601f8201168201806040525081019061314991906142df565b809750819850829950839a50849b50859c50505050505050868860010181905550848860030181905550838860020181905550818860060160006101000a81548160ff02191690831515021790555060018860060160016101000a81548160ff021916908315150217905550505050505050505050565b60008060009054906101000a900473ffffffffffffffffffffffffffffffffffffffff169050816000806101000a81548173ffffffffffffffffffffffffffffffffffffffff021916908373ffffffffffffffffffffffffffffffffffffffff1602179055508173ffffffffffffffffffffffffffffffffffffffff168173ffffffffffffffffffffffffffffffffffffffff167f8be0079c531659141344cd1fd0a4f28419497f9722a3daafe3b4186f6b6457e060405160405180910390a35050565b613307846323b872dd60e01b8585856040516024016132a593929190613dea565b604051602081830303815290604052907bffffffffffffffffffffffffffffffffffffffffffffffffffffffff19166020820180517bffffffffffffffffffffffffffffffffffffffffffffffffffffffff838183161783525050505061330d565b50505050565b600061336f826040518060400160405280602081526020017f5361666545524332303a206c6f772d6c6576656c2063616c6c206661696c65648152508573ffffffffffffffffffffffffffffffffffffffff166133d49092919063ffffffff16565b90506000815111156133cf578080602001905181019061338f9190614656565b6133ce576040517f08c379a00000000000000000000000000000000000000000000000000000000081526004016133c590614c9f565b60405180910390fd5b5b505050565b60606133e384846000856133ec565b90509392505050565b606082471015613431576040517f08c379a000000000000000000000000000000000000000000000000000000000815260040161342890614d31565b60405180910390fd5b61343a85613500565b613479576040517f08c379a000000000000000000000000000000000000000000000000000000000815260040161347090614d9d565b60405180910390fd5b6000808673ffffffffffffffffffffffffffffffffffffffff1685876040516134a29190614e04565b60006040518083038185875af1925050503d80600081146134df576040519150601f19603f3d011682016040523d82523d6000602084013e6134e4565b606091505b50915091506134f4828286613513565b92505050949350505050565b600080823b905060008111915050919050565b6060831561352357829050613573565b6000835111156135365782518084602001fd5b816040517f08c379a000000000000000000000000000000000000000000000000000000000815260040161356a9190614e54565b60405180910390fd5b9392505050565b6000604051905090565b600080fd5b600080fd5b6000819050919050565b6135a18161358e565b81146135ac57600080fd5b50565b6000813590506135be81613598565b92915050565b6000602082840312156135da576135d9613584565b5b60006135e8848285016135af565b91505092915050565b600080fd5b600080fd5b6000601f19601f8301169050919050565b7f4e487b7100000000000000000000000000000000000000000000000000000000600052604160045260246000fd5b613644826135fb565b810181811067ffffffffffffffff821117156136635761366261360c565b5b80604052505050565b600061367661357a565b9050613682828261363b565b919050565b600067ffffffffffffffff8211156136a2576136a161360c565b5b6136ab826135fb565b9050602081019050919050565b82818337600083830152505050565b60006136da6136d584613687565b61366c565b9050828152602081018484840111156136f6576136f56135f6565b5b6137018482856136b8565b509392505050565b600082601f83011261371e5761371d6135f1565b5b813561372e8482602086016136c7565b91505092915050565b60006020828403121561374d5761374c613584565b5b600082013567ffffffffffffffff81111561376b5761376a613589565b5b61377784828501613709565b91505092915050565b6137898161358e565b82525050565b60006020820190506137a46000830184613780565b92915050565b600073ffffffffffffffffffffffffffffffffffffffff82169050919050565b60006137d5826137aa565b9050919050565b6137e5816137ca565b81146137f057600080fd5b50565b600081359050613802816137dc565b92915050565b60006020828403121561381e5761381d613584565b5b600061382c848285016137f3565b91505092915050565b600067ffffffffffffffff8211156138505761384f61360c565b5b613859826135fb565b9050602081019050919050565b600061387961387484613835565b61366c565b905082815260208101848484011115613895576138946135f6565b5b6138a08482856136b8565b509392505050565b600082601f8301126138bd576138bc6135f1565b5b81356138cd848260208601613866565b91505092915050565b600080600080608085870312156138f0576138ef613584565b5b60006138fe878288016137f3565b945050602061390f878288016137f3565b9350506040613920878288016135af565b925050606085013567ffffffffffffffff81111561394157613940613589565b5b61394d878288016138a8565b91505092959194509250565b60007fffffffff0000000000000000000000000000000000000000000000000000000082169050919050565b61398e81613959565b82525050565b60006020820190506139a96000830184613985565b92915050565b600080604083850312156139c6576139c5613584565b5b60006139d4858286016135af565b92505060206139e5858286016135af565b9150509250929050565b60008115159050919050565b613a04816139ef565b82525050565b600060c082019050613a1f6000830189613780565b613a2c6020830188613780565b613a396040830187613780565b613a466060830186613780565b613a5360808301856139fb565b613a6060a08301846139fb565b979650505050505050565b600067ffffffffffffffff821115613a8657613a8561360c565b5b602082029050602081019050919050565b600080fd5b6000613aaf613aaa84613a6b565b61366c565b90508083825260208201905060208402830185811115613ad257613ad1613a97565b5b835b81811015613afb5780613ae788826135af565b845260208401935050602081019050613ad4565b5050509392505050565b600082601f830112613b1a57613b196135f1565b5b8135613b2a848260208601613a9c565b91505092915050565b60008060408385031215613b4a57613b49613584565b5b6000613b58858286016135af565b925050602083013567ffffffffffffffff811115613b7957613b78613589565b5b613b8585828601613b05565b9150509250929050565b60008060408385031215613ba657613ba5613584565b5b600083013567ffffffffffffffff811115613bc457613bc3613589565b5b613bd085828601613709565b9250506020613be1858286016135af565b9150509250929050565b600080600060608486031215613c0457613c03613584565b5b6000613c12868287016135af565b9350506020613c23868287016135af565b9250506040613c34868287016135af565b9150509250925092565b6000602082019050613c5360008301846139fb565b92915050565b613c62816137ca565b82525050565b6000602082019050613c7d6000830184613c59565b92915050565b600061010082019050613c99600083018b613c59565b613ca6602083018a613780565b613cb36040830189613780565b613cc06060830188613780565b613ccd6080830187613780565b613cda60a0830186613780565b613ce760c08301856139fb565b613cf460e08301846139fb565b9998505050505050505050565b600082825260208201905092915050565b7f4f776e61626c653a2063616c6c6572206973206e6f7420746865206f776e6572600082015250565b6000613d48602083613d01565b9150613d5382613d12565b602082019050919050565b60006020820190508181036000830152613d7781613d3b565b9050919050565b7f5468697320746f6b656e2069736e2774207374616b6564210000000000000000600082015250565b6000613db4601883613d01565b9150613dbf82613d7e565b602082019050919050565b60006020820190508181036000830152613de381613da7565b9050919050565b6000606082019050613dff6000830186613c59565b613e0c6020830185613c59565b613e196040830184613780565b949350505050565b7f596f7520617265206e6f742061206f776e6572206f662074686973204e465400600082015250565b6000613e57601f83613d01565b9150613e6282613e21565b602082019050919050565b60006020820190508181036000830152613e8681613e4a565b9050919050565b7f596f75206469646e27742072756e207468652072616365210000000000000000600082015250565b6000613ec3601883613d01565b9150613ece82613e8d565b602082019050919050565b60006020820190508181036000830152613ef281613eb6565b9050919050565b7f4e487b7100000000000000000000000000000000000000000000000000000000600052601160045260246000fd5b6000613f338261358e565b9150613f3e8361358e565b925082821015613f5157613f50613ef9565b5b828203905092915050565b7f4e487b7100000000000000000000000000000000000000000000000000000000600052601260045260246000fd5b6000613f968261358e565b9150613fa18361358e565b925082613fb157613fb0613f5c565b5b828204905092915050565b60005b83811015613fda578082015181840152602081019050613fbf565b83811115613fe9576000848401525b50505050565b6000614002613ffd84613687565b61366c565b90508281526020810184848401111561401e5761401d6135f6565b5b614029848285613fbc565b509392505050565b600082601f830112614046576140456135f1565b5b8151614056848260208601613fef565b91505092915050565b60006020828403121561407557614074613584565b5b600082015167ffffffffffffffff81111561409357614092613589565b5b61409f84828501614031565b91505092915050565b600081519050919050565b600081905092915050565b60006140c9826140a8565b6140d381856140b3565b93506140e3818560208601613fbc565b80840191505092915050565b60006140fb82846140be565b915081905092915050565b60006141118261358e565b915061411c8361358e565b9250817fffffffffffffffffffffffffffffffffffffffffffffffffffffffffffffffff048311821515161561415557614154613ef9565b5b828202905092915050565b7f4e6f20656e6f756768207265776172647320616d6f756e7420696e207468617460008201527f20706f6f6c000000000000000000000000000000000000000000000000000000602082015250565b60006141bc602583613d01565b91506141c782614160565b604082019050919050565b600060208201905081810360008301526141eb816141af565b9050919050565b60006141fd8261358e565b91506142088361358e565b9250827fffffffffffffffffffffffffffffffffffffffffffffffffffffffffffffffff0382111561423d5761423c613ef9565b5b828201905092915050565b600060408201905061425d6000830185613780565b61426a6020830184613780565b9392505050565b60008151905061428081613598565b92915050565b60006020828403121561429c5761429b613584565b5b60006142aa84828501614271565b91505092915050565b6142bc816139ef565b81146142c757600080fd5b50565b6000815190506142d9816142b3565b92915050565b60008060008060008060c087890312156142fc576142fb613584565b5b600061430a89828a01614271565b965050602061431b89828a01614271565b955050604061432c89828a01614271565b945050606061433d89828a01614271565b935050608061434e89828a016142ca565b92505060a061435f89828a016142ca565b9150509295509295509295565b7f546869732066756e6374696f6e2069732063616c6c6564206279206f6e6c792060008201527f50765020636f6e74726163740000000000000000000000000000000000000000602082015250565b60006143c8602c83613d01565b91506143d38261436c565b604082019050919050565b600060208201905081810360008301526143f7816143bb565b9050919050565b7f4e487b7100000000000000000000000000000000000000000000000000000000600052603260045260246000fd5b60006144388261358e565b91507fffffffffffffffffffffffffffffffffffffffffffffffffffffffffffffffff820361446a57614469613ef9565b5b600182019050919050565b600081519050919050565b600082825260208201905092915050565b6000819050602082019050919050565b6144aa8161358e565b82525050565b60006144bc83836144a1565b60208301905092915050565b6000602082019050919050565b60006144e082614475565b6144ea8185614480565b93506144f583614491565b8060005b8381101561452657815161450d88826144b0565b9750614518836144c8565b9250506001810190506144f9565b5085935050505092915050565b6000602082019050818103600083015261454d81846144d5565b905092915050565b7f4e6f2066756e6473000000000000000000000000000000000000000000000000600082015250565b600061458b600883613d01565b915061459682614555565b602082019050919050565b600060208201905081810360008301526145ba8161457e565b9050919050565b7f4e6f20656e6f7567682066756e64730000000000000000000000000000000000600082015250565b60006145f7600f83613d01565b9150614602826145c1565b602082019050919050565b60006020820190508181036000830152614626816145ea565b9050919050565b60006040820190506146426000830185613c59565b61464f6020830184613780565b9392505050565b60006020828403121561466c5761466b613584565b5b600061467a848285016142ca565b91505092915050565b7f596f752063616e2774207570646174652073636f726520627920796f7572736560008201527f6c66210000000000000000000000000000000000000000000000000000000000602082015250565b60006146df602383613d01565b91506146ea82614683565b604082019050919050565b6000602082019050818103600083015261470e816146d2565b9050919050565b600081519050614724816137dc565b92915050565b6000602082840312156147405761473f613584565b5b600061474e84828501614715565b91505092915050565b7f596f752061726520616c72656164792072756e6e696e6720776974682074686960008201527f73204e4654000000000000000000000000000000000000000000000000000000602082015250565b60006147b3602583613d01565b91506147be82614757565b604082019050919050565b600060208201905081810360008301526147e2816147a6565b9050919050565b7f596f752063616e277420656e746572207468697320706f6f6c2077697468207460008201527f686973204e465400000000000000000000000000000000000000000000000000602082015250565b6000614845602783613d01565b9150614850826147e9565b604082019050919050565b6000602082019050818103600083015261487481614838565b9050919050565b7f52657175697265204e4654206f776e657273686970207472616e73666572206160008201527f7070726f76616c00000000000000000000000000000000000000000000000000602082015250565b60006148d7602783613d01565b91506148e28261487b565b604082019050919050565b60006020820190508181036000830152614906816148ca565b9050919050565b7f4f776e61626c653a206e6577206f776e657220697320746865207a65726f206160008201527f6464726573730000000000000000000000000000000000000000000000000000602082015250565b6000614969602683613d01565b91506149748261490d565b604082019050919050565b600060208201905081810360008301526149988161495c565b9050919050565b7f596f752063616e27742075706772616465204e4654206265636175736520646960008201527f646e2774207265616368207461726765742073636f7265000000000000000000602082015250565b60006149fb603783613d01565b9150614a068261499f565b604082019050919050565b60006020820190508181036000830152614a2a816149ee565b9050919050565b7f596f752063616e27742075706772616465204e465420647572696e672072616360008201527f696e670000000000000000000000000000000000000000000000000000000000602082015250565b6000614a8d602383613d01565b9150614a9882614a31565b604082019050919050565b60006020820190508181036000830152614abc81614a80565b9050919050565b7f596f752063616e27742075706772616465204e465420616e796d6f7265000000600082015250565b6000614af9601d83613d01565b9150614b0482614ac3565b602082019050919050565b60006020820190508181036000830152614b2881614aec565b9050919050565b7f596f75206469646e27742073656e6420656e6f75676820616d6f756e7420666f60008201527f7220557067726164650000000000000000000000000000000000000000000000602082015250565b6000614b8b602983613d01565b9150614b9682614b2f565b604082019050919050565b60006020820190508181036000830152614bba81614b7e565b9050919050565b7f4e6f2066656520616d6f756e7421000000000000000000000000000000000000600082015250565b6000614bf7600e83613d01565b9150614c0282614bc1565b602082019050919050565b60006020820190508181036000830152614c2681614bea565b9050919050565b7f5361666545524332303a204552433230206f7065726174696f6e20646964206e60008201527f6f74207375636365656400000000000000000000000000000000000000000000602082015250565b6000614c89602a83613d01565b9150614c9482614c2d565b604082019050919050565b60006020820190508181036000830152614cb881614c7c565b9050919050565b7f416464726573733a20696e73756666696369656e742062616c616e636520666f60008201527f722063616c6c0000000000000000000000000000000000000000000000000000602082015250565b6000614d1b602683613d01565b9150614d2682614cbf565b604082019050919050565b60006020820190508181036000830152614d4a81614d0e565b9050919050565b7f416464726573733a2063616c6c20746f206e6f6e2d636f6e7472616374000000600082015250565b6000614d87601d83613d01565b9150614d9282614d51565b602082019050919050565b60006020820190508181036000830152614db681614d7a565b9050919050565b600081519050919050565b600081905092915050565b6000614dde82614dbd565b614de88185614dc8565b9350614df8818560208601613fbc565b80840191505092915050565b6000614e108284614dd3565b915081905092915050565b6000614e26826140a8565b614e308185613d01565b9350614e40818560208601613fbc565b614e49816135fb565b840191505092915050565b60006020820190508181036000830152614e6e8184614e1b565b90509291505056fea2646970667358221220ac69b318a437614256fedc16bf7c39f4ecdf513633aa5980319de7b0421fc49264736f6c634300080d0033",
  "immutableReferences": {},
  "source": "// SPDX-License-Identifier: UNLICENSED\r\npragma solidity ^0.8.0;\r\n\r\nimport \"@openzeppelin/contracts/token/ERC721/IERC721Receiver.sol\";\r\nimport \"@openzeppelin/contracts/token/ERC721/extensions/ERC721Enumerable.sol\";\r\nimport \"@openzeppelin/contracts/token/ERC20/IERC20.sol\";\r\nimport \"@openzeppelin/contracts/access/Ownable.sol\";\r\nimport \"@openzeppelin/contracts/token/ERC20/utils/SafeERC20.sol\";\r\ninterface IChipRaceContract {\r\n     function getInfo(uint256 _tokenId) external view returns(uint256 level, uint256 remainningTime, uint256 score, uint256 rewards, bool canUpgrade, bool isEnter);\r\n}\r\ninterface IMutantContract {\r\n    function getOriginTokenId(uint256 _mutantId) external view returns(uint256);\r\n}\r\ncontract MutantChipRaceContract is IERC721Receiver, Ownable {\r\n    using SafeERC20 for IERC20;\r\n    ERC721Enumerable g_mutantNFTAddress;\r\n    IERC20 g_craceToken;\r\n    IChipRaceContract g_oldContract;\r\n    IMutantContract g_mutant;\r\n    struct TokenInfo {\r\n        address owner;\r\n        uint256 level;\r\n        uint256 rewards;\r\n        uint256 score;\r\n        uint256 timeStamp;\r\n        uint256 runningCounter;\r\n        bool isRunning;\r\n        bool isRestored;\r\n    }\r\n    //Variable for score per level\r\n    mapping(uint256 => uint256) public g_targetScores;\r\n    //Variable for save info per nft token\r\n    mapping(uint256 => TokenInfo) public g_tokenInfo;\r\n    //Variable for car type\r\n    mapping(string => uint256) public g_carType;\r\n    //Variable for reward system\r\n    mapping(uint256 => mapping(uint256 => uint256)) public g_minableAmount;\r\n    //Variable for upgrade NFT\r\n    mapping(uint256 => mapping(uint256 => uint256)) public g_amountForUpgrade;\r\n\r\n    mapping(uint256 => uint256) public g_poolRewardsAmount;\r\n\r\n    uint256 public g_maxLockTime;\r\n    uint256 public feeAmount;\r\n    uint256 public g_eventDoubling;\r\n    uint256 public g_mutantDoubling;\r\n    address public g_caller;\r\n    address private g_expUpdater;\r\n\r\n    event EnterChipRace(uint256 _tokenId, uint256 _poolId);\r\n    event EmergencyExitChipRace(uint256 _tokenId, uint256 _feeAmount);\r\n    event ClaimRewardsFromChipRace(uint256 _tokenId, uint256 _passedMins);\r\n    event UpgradeNFT(uint256 _tokenId, uint256 _feeAmount);\r\n    event UpdateScore(uint256[] _tokenIds);\r\n\r\n    constructor(address _mutantAddress, IERC20 _tokenAddress, address _oldChip ) {\r\n        g_mutantNFTAddress = ERC721Enumerable(_mutantAddress);\r\n        g_mutant = IMutantContract(_mutantAddress);\r\n        g_craceToken = _tokenAddress;\r\n        g_oldContract = IChipRaceContract(_oldChip);\r\n        g_maxLockTime = 60 * 24 * 7;\r\n        feeAmount = 0;\r\n        g_eventDoubling = 1;\r\n        g_mutantDoubling = 12;\r\n    }\r\n    function restoreInfo(uint256 _tokenId) internal {\r\n        TokenInfo storage info = g_tokenInfo[_tokenId];\r\n        uint256 level;\r\n        uint256 remainningTime;\r\n        uint256 score;\r\n        uint256 rewards;\r\n        bool canUpgrade;\r\n        bool isEnter;\r\n        uint256 origin = g_mutant.getOriginTokenId(_tokenId);\r\n        (level, remainningTime, score, rewards, canUpgrade, isEnter) = g_oldContract.getInfo(origin);\r\n        info.level = level;\r\n        info.score = score;\r\n        info.rewards = rewards;\r\n        info.isRunning = isEnter;\r\n        info.isRestored = true;\r\n    }\r\n    //------------------------External Functions--------------------------------------\r\n    function getLevelOf(uint256 _tokenId) external view returns(uint256) {\r\n        return g_tokenInfo[_tokenId].level;\r\n    }\r\n    function isRunningChipRace(uint256 _tokenId) external view returns(bool) {\r\n        return g_tokenInfo[_tokenId].isRunning;\r\n    }\r\n    function isUpgradable(uint256 _tokenId) external view returns (bool) {\r\n        uint256 level = g_tokenInfo[_tokenId].level;\r\n        if ((g_targetScores[level + 1] != 0) &&(g_tokenInfo[_tokenId].score >= g_targetScores[level + 1]))\r\n            return true;\r\n        return false;\r\n    }\r\n    function getCarTypeOf(string memory _tokenURI) external view returns(uint256) {\r\n        return g_carType[_tokenURI];\r\n    }\r\n    function getRemainingTime(uint256 _tokenId) external view returns(uint256) {\r\n        return block.timestamp - g_tokenInfo[_tokenId].timeStamp;\r\n    }\r\n    function getOwnerOf(uint256 _tokenId) external view returns(address) {\r\n        return g_mutantNFTAddress.ownerOf(_tokenId);\r\n    }\r\n    function getInfo(uint256 _tokenId) external view returns(uint256 level, uint256 remainningTime, uint256 score, uint256 rewards, bool canUpgrade, bool isEnter) {\r\n        if(g_tokenInfo[_tokenId].isRestored == false) {\r\n            uint256 origin = g_mutant.getOriginTokenId(_tokenId);\r\n            return g_oldContract.getInfo(origin);\r\n        }\r\n            \r\n        uint256 remainTime = block.timestamp - g_tokenInfo[_tokenId].timeStamp;\r\n        uint256 tokenLevel = g_tokenInfo[_tokenId].level;\r\n        bool flag = false;\r\n        uint256 id = _tokenId;\r\n        if ((g_targetScores[tokenLevel + 1] != 0) &&(g_tokenInfo[_tokenId].score >= g_targetScores[tokenLevel + 1]))\r\n            flag = true;\r\n        return(g_tokenInfo[id].level, remainTime, g_tokenInfo[id].score, g_tokenInfo[id].rewards, flag, g_tokenInfo[id].isRunning);\r\n    }\r\n    function enterChipRace(uint256 _tokenId, uint256 _poolId) external {\r\n        if(g_tokenInfo[_tokenId].isRestored == false)\r\n            restoreInfo(_tokenId);\r\n\r\n        require(this.getOwnerOf(_tokenId) == msg.sender, \"You are not a owner of this NFT\");\r\n        require(g_tokenInfo[_tokenId].isRunning == false, \"You are already running with this NFT\");\r\n        require(g_carType[g_mutantNFTAddress.tokenURI(_tokenId)] == _poolId, \"You can't enter this pool with this NFT\");\r\n        require(g_mutantNFTAddress.getApproved(_tokenId) == address(this), \"Require NFT ownership transfer approval\");\r\n\r\n        g_mutantNFTAddress.safeTransferFrom(msg.sender, address(this), _tokenId);\r\n        TokenInfo storage info = g_tokenInfo[_tokenId];\r\n        info.owner = msg.sender;\r\n        info.isRunning = true;\r\n        info.runningCounter = info.runningCounter + 1;\r\n        info.timeStamp = block.timestamp;\r\n        emit EnterChipRace(_tokenId, _poolId);\r\n    }\r\n    function claimRewards(uint256 _tokenId) external {\r\n\r\n        require(g_tokenInfo[_tokenId].owner == msg.sender, \"You are not a owner of this NFT\");\r\n        require(g_tokenInfo[_tokenId].isRunning == true, \"You didn't run the race!\");\r\n        \r\n        uint256 passedMins = (block.timestamp - g_tokenInfo[_tokenId].timeStamp) / 60;\r\n        uint256 carType = g_carType[g_mutantNFTAddress.tokenURI(_tokenId)];\r\n        TokenInfo storage info = g_tokenInfo[_tokenId];\r\n        uint256 amount = 0;\r\n        uint256 times = 0;\r\n        if(passedMins >= g_maxLockTime)\r\n            times = g_maxLockTime;\r\n            \r\n        else\r\n            times = passedMins;\r\n\r\n        amount = g_minableAmount[carType][info.level] * times * g_eventDoubling * g_mutantDoubling / 10;\r\n        require(g_poolRewardsAmount[carType] >= amount, \"No enough rewards amount in that pool\");\r\n\r\n        g_craceToken.safeTransfer(msg.sender, amount);\r\n        g_mutantNFTAddress.safeTransferFrom(address(this), msg.sender, _tokenId);\r\n        info.rewards = info.rewards + amount;\r\n        info.isRunning = false;\r\n        g_poolRewardsAmount[carType] = g_poolRewardsAmount[carType] - amount;\r\n        emit ClaimRewardsFromChipRace(_tokenId, times);\r\n    }\r\n\r\n    function upgradeNFT(uint256 _tokenId, uint256 _amount) external {\r\n        if(g_tokenInfo[_tokenId].isRestored == false)\r\n            restoreInfo(_tokenId);\r\n\r\n        require(this.getOwnerOf(_tokenId) == msg.sender, \"You are not a owner of this NFT\" );\r\n        require(this.isUpgradable(_tokenId) == true, \"You can't upgrade NFT because didn't reach target score\");\r\n        require(g_tokenInfo[_tokenId].isRunning == false, \"You can't upgrade NFT during racing\");\r\n        uint256 carType = g_carType[g_mutantNFTAddress.tokenURI(_tokenId)];\r\n        TokenInfo storage info = g_tokenInfo[_tokenId];\r\n        require(g_amountForUpgrade[carType][info.level + 1] != 0, \"You can't upgrade NFT anymore\");\r\n        require(g_amountForUpgrade[carType][info.level + 1] == _amount, \"You didn't send enough amount for Upgrade\");\r\n        g_craceToken.safeTransferFrom(msg.sender, address(this), _amount);\r\n        info.level = info.level + 1;\r\n        emit UpgradeNFT(_tokenId, _amount);\r\n    }\r\n    \r\n    function updateScore(uint256 _score, uint256[] memory tokenIds) external {\r\n        require(msg.sender == g_caller, \"This function is called by only PvP contract\");\r\n        \r\n        for(uint i = 0; i < tokenIds.length; i++) {\r\n            uint256 tokenId = tokenIds[i];\r\n            if(g_tokenInfo[tokenId].isRestored == false)\r\n                restoreInfo(tokenId);\r\n            TokenInfo storage info = g_tokenInfo[tokenId];\r\n            info.score = info.score + _score;\r\n        }\r\n        emit UpdateScore(tokenIds);\r\n    }\r\n    function updateExp(uint256 _tokenId, uint256 _exp) external {\r\n        require(msg.sender == g_expUpdater, \"You can't update score by yourself!\");\r\n        TokenInfo storage info = g_tokenInfo[_tokenId];\r\n        info.score = info.score + _exp;\r\n    }\r\n    //------------------------Internal Functions--------------------------------------\r\n\r\n\r\n    //------------------------Owner Functions--------------------------------------\r\n    function setEventDoubling(uint256 _doubling) external onlyOwner {\r\n        g_eventDoubling = _doubling;\r\n    }\r\n    function setCaller(address _caller) external onlyOwner {\r\n        g_caller = _caller;\r\n    }\r\n    function setExpUpdater(address _caller) external onlyOwner {\r\n        g_expUpdater = _caller;\r\n    }\r\n    function setTargetScoreOf(uint256 _level, uint256 _targetScore) external onlyOwner {\r\n        g_targetScores[_level] = _targetScore;\r\n    }\r\n    function setCarType(string memory _uri, uint256 _type) external onlyOwner {\r\n        g_carType[_uri] = _type;\r\n    }\r\n    function setMinableAmount(uint256 _type, uint256 _level, uint256 _amount) external onlyOwner {\r\n        g_minableAmount[_type][_level] = _amount ;\r\n    }\r\n    function setUpgradeAmount(uint256 _type, uint256 _level, uint256 _amount) external onlyOwner {\r\n        g_amountForUpgrade[_type][_level] = _amount;\r\n    }\r\n    function setMaxLockTime(uint256 _time) external onlyOwner {\r\n        g_maxLockTime = _time;\r\n    }\r\n    function withdrawFeeAmount() external onlyOwner {\r\n        require(feeAmount > 0, \"No fee amount!\");\r\n        g_craceToken.transfer(msg.sender, feeAmount);\r\n        feeAmount = 0;\r\n    }\r\n    function withdrawAllFunds() external onlyOwner {\r\n        uint256 amount = g_craceToken.balanceOf(address(this));\r\n        g_craceToken.transfer(msg.sender, amount);\r\n    }\r\n    function depositeFunds(uint256 _amount) external onlyOwner {\r\n        require(_amount > 0, \"No funds\");\r\n        g_craceToken.transferFrom(msg.sender, address(this), _amount);\r\n        for(uint i = 1; i < 6; i++)\r\n            g_poolRewardsAmount[i] = _amount / 5;\r\n    }\r\n    function depositePoolFunds(uint256 _poolId, uint256 _amount) external onlyOwner {\r\n        require(_amount > 0, \"No funds\");\r\n        g_craceToken.transferFrom(msg.sender, address(this), _amount);\r\n        g_poolRewardsAmount[_poolId] = g_poolRewardsAmount[_poolId] + _amount;\r\n    }\r\n    \r\n    function withdrawPoolFunds(uint256 _poolId, uint256 _amount) external onlyOwner {\r\n        require(_amount > 0, \"No funds\");\r\n        require((_amount) < g_poolRewardsAmount[_poolId], \"No enough funds\");\r\n        g_craceToken.transfer(msg.sender, _amount );\r\n        g_poolRewardsAmount[_poolId] = g_poolRewardsAmount[_poolId] - _amount;\r\n    }\r\n\r\n    function withdrawNFT(uint256 _tokenId) external onlyOwner {\r\n        address owner = g_tokenInfo[_tokenId].owner;\r\n        require(owner != address(0), \"This token isn't staked!\");\r\n        g_mutantNFTAddress.safeTransferFrom(address(this), owner, _tokenId);\r\n\r\n        TokenInfo storage info = g_tokenInfo[_tokenId];\r\n        info.isRunning = false;\r\n    }\r\n\r\n    function onERC721Received(\r\n        address,\r\n        address,\r\n        uint256,\r\n        bytes memory\r\n    ) public virtual override returns (bytes4) {\r\n        return this.onERC721Received.selector;\r\n    }\r\n}",
  "sourcePath": "G:\\2021\\blockchain\\Work\\2021.12.1. CRace NFT Market place\\work\\New Folder\\contracts\\MutantChipRace.sol",
  "compiler": {
    "name": "solc",
    "version": "0.8.13+commit.abaa5c0e.Emscripten.clang"
  },
  "schemaVersion": "3.4.4",
  "updatedAt": "2022-03-17T01:29:17.403Z",
  "devdoc": {
    "kind": "dev",
    "methods": {
      "owner()": {
        "details": "Returns the address of the current owner."
      },
      "renounceOwnership()": {
        "details": "Leaves the contract without owner. It will not be possible to call `onlyOwner` functions anymore. Can only be called by the current owner. NOTE: Renouncing ownership will leave the contract without an owner, thereby removing any functionality that is only available to the owner."
      },
      "transferOwnership(address)": {
        "details": "Transfers ownership of the contract to a new account (`newOwner`). Can only be called by the current owner."
      }
    },
    "version": 1
  },
  "userdoc": {
    "kind": "user",
    "methods": {},
    "version": 1
  }
}