{
  "contractName": "ToxicNFT",
  "abi": [
    {
      "inputs": [
        {
          "internalType": "contract IERC20",
          "name": "_tokenAddress",
          "type": "address"
        }
      ],
      "stateMutability": "nonpayable",
      "type": "constructor"
    },
    {
      "anonymous": false,
      "inputs": [
        {
          "indexed": true,
          "internalType": "address",
          "name": "owner",
          "type": "address"
        },
        {
          "indexed": true,
          "internalType": "address",
          "name": "approved",
          "type": "address"
        },
        {
          "indexed": true,
          "internalType": "uint256",
          "name": "tokenId",
          "type": "uint256"
        }
      ],
      "name": "Approval",
      "type": "event"
    },
    {
      "anonymous": false,
      "inputs": [
        {
          "indexed": true,
          "internalType": "address",
          "name": "owner",
          "type": "address"
        },
        {
          "indexed": true,
          "internalType": "address",
          "name": "operator",
          "type": "address"
        },
        {
          "indexed": false,
          "internalType": "bool",
          "name": "approved",
          "type": "bool"
        }
      ],
      "name": "ApprovalForAll",
      "type": "event"
    },
    {
      "anonymous": false,
      "inputs": [
        {
          "indexed": true,
          "internalType": "address",
          "name": "previousOwner",
          "type": "address"
        },
        {
          "indexed": true,
          "internalType": "address",
          "name": "newOwner",
          "type": "address"
        }
      ],
      "name": "OwnershipTransferred",
      "type": "event"
    },
    {
      "anonymous": false,
      "inputs": [
        {
          "indexed": true,
          "internalType": "address",
          "name": "from",
          "type": "address"
        },
        {
          "indexed": true,
          "internalType": "address",
          "name": "to",
          "type": "address"
        },
        {
          "indexed": true,
          "internalType": "uint256",
          "name": "tokenId",
          "type": "uint256"
        }
      ],
      "name": "Transfer",
      "type": "event"
    },
    {
      "anonymous": false,
      "inputs": [
        {
          "indexed": false,
          "internalType": "address",
          "name": "_user",
          "type": "address"
        },
        {
          "indexed": false,
          "internalType": "uint256",
          "name": "_ticketAmount",
          "type": "uint256"
        },
        {
          "indexed": false,
          "internalType": "uint256",
          "name": "_toxicAmount",
          "type": "uint256"
        }
      ],
      "name": "mintToxic",
      "type": "event"
    },
    {
      "inputs": [
        {
          "internalType": "address",
          "name": "to",
          "type": "address"
        },
        {
          "internalType": "uint256",
          "name": "tokenId",
          "type": "uint256"
        }
      ],
      "name": "approve",
      "outputs": [],
      "stateMutability": "nonpayable",
      "type": "function"
    },
    {
      "inputs": [
        {
          "internalType": "address",
          "name": "owner",
          "type": "address"
        }
      ],
      "name": "balanceOf",
      "outputs": [
        {
          "internalType": "uint256",
          "name": "",
          "type": "uint256"
        }
      ],
      "stateMutability": "view",
      "type": "function"
    },
    {
      "inputs": [],
      "name": "g_initPrice",
      "outputs": [
        {
          "internalType": "uint256",
          "name": "",
          "type": "uint256"
        }
      ],
      "stateMutability": "view",
      "type": "function"
    },
    {
      "inputs": [],
      "name": "g_percent",
      "outputs": [
        {
          "internalType": "uint256",
          "name": "",
          "type": "uint256"
        }
      ],
      "stateMutability": "view",
      "type": "function"
    },
    {
      "inputs": [],
      "name": "g_totalSupply",
      "outputs": [
        {
          "internalType": "uint256",
          "name": "",
          "type": "uint256"
        }
      ],
      "stateMutability": "view",
      "type": "function"
    },
    {
      "inputs": [
        {
          "internalType": "address",
          "name": "",
          "type": "address"
        }
      ],
      "name": "g_toxicAmount",
      "outputs": [
        {
          "internalType": "uint256",
          "name": "",
          "type": "uint256"
        }
      ],
      "stateMutability": "view",
      "type": "function"
    },
    {
      "inputs": [
        {
          "internalType": "uint256",
          "name": "tokenId",
          "type": "uint256"
        }
      ],
      "name": "getApproved",
      "outputs": [
        {
          "internalType": "address",
          "name": "",
          "type": "address"
        }
      ],
      "stateMutability": "view",
      "type": "function"
    },
    {
      "inputs": [
        {
          "internalType": "address",
          "name": "owner",
          "type": "address"
        },
        {
          "internalType": "address",
          "name": "operator",
          "type": "address"
        }
      ],
      "name": "isApprovedForAll",
      "outputs": [
        {
          "internalType": "bool",
          "name": "",
          "type": "bool"
        }
      ],
      "stateMutability": "view",
      "type": "function"
    },
    {
      "inputs": [],
      "name": "mintSupply",
      "outputs": [
        {
          "internalType": "uint256",
          "name": "",
          "type": "uint256"
        }
      ],
      "stateMutability": "view",
      "type": "function"
    },
    {
      "inputs": [],
      "name": "name",
      "outputs": [
        {
          "internalType": "string",
          "name": "",
          "type": "string"
        }
      ],
      "stateMutability": "view",
      "type": "function"
    },
    {
      "inputs": [],
      "name": "owner",
      "outputs": [
        {
          "internalType": "address",
          "name": "",
          "type": "address"
        }
      ],
      "stateMutability": "view",
      "type": "function"
    },
    {
      "inputs": [
        {
          "internalType": "uint256",
          "name": "tokenId",
          "type": "uint256"
        }
      ],
      "name": "ownerOf",
      "outputs": [
        {
          "internalType": "address",
          "name": "",
          "type": "address"
        }
      ],
      "stateMutability": "view",
      "type": "function"
    },
    {
      "inputs": [],
      "name": "pos",
      "outputs": [
        {
          "internalType": "uint256",
          "name": "",
          "type": "uint256"
        }
      ],
      "stateMutability": "view",
      "type": "function"
    },
    {
      "inputs": [],
      "name": "renounceOwnership",
      "outputs": [],
      "stateMutability": "nonpayable",
      "type": "function"
    },
    {
      "inputs": [
        {
          "internalType": "address",
          "name": "from",
          "type": "address"
        },
        {
          "internalType": "address",
          "name": "to",
          "type": "address"
        },
        {
          "internalType": "uint256",
          "name": "tokenId",
          "type": "uint256"
        }
      ],
      "name": "safeTransferFrom",
      "outputs": [],
      "stateMutability": "nonpayable",
      "type": "function"
    },
    {
      "inputs": [
        {
          "internalType": "address",
          "name": "from",
          "type": "address"
        },
        {
          "internalType": "address",
          "name": "to",
          "type": "address"
        },
        {
          "internalType": "uint256",
          "name": "tokenId",
          "type": "uint256"
        },
        {
          "internalType": "bytes",
          "name": "_data",
          "type": "bytes"
        }
      ],
      "name": "safeTransferFrom",
      "outputs": [],
      "stateMutability": "nonpayable",
      "type": "function"
    },
    {
      "inputs": [
        {
          "internalType": "address",
          "name": "operator",
          "type": "address"
        },
        {
          "internalType": "bool",
          "name": "approved",
          "type": "bool"
        }
      ],
      "name": "setApprovalForAll",
      "outputs": [],
      "stateMutability": "nonpayable",
      "type": "function"
    },
    {
      "inputs": [
        {
          "internalType": "bytes4",
          "name": "interfaceId",
          "type": "bytes4"
        }
      ],
      "name": "supportsInterface",
      "outputs": [
        {
          "internalType": "bool",
          "name": "",
          "type": "bool"
        }
      ],
      "stateMutability": "view",
      "type": "function"
    },
    {
      "inputs": [],
      "name": "symbol",
      "outputs": [
        {
          "internalType": "string",
          "name": "",
          "type": "string"
        }
      ],
      "stateMutability": "view",
      "type": "function"
    },
    {
      "inputs": [
        {
          "internalType": "uint256",
          "name": "index",
          "type": "uint256"
        }
      ],
      "name": "tokenByIndex",
      "outputs": [
        {
          "internalType": "uint256",
          "name": "",
          "type": "uint256"
        }
      ],
      "stateMutability": "view",
      "type": "function"
    },
    {
      "inputs": [
        {
          "internalType": "address",
          "name": "owner",
          "type": "address"
        },
        {
          "internalType": "uint256",
          "name": "index",
          "type": "uint256"
        }
      ],
      "name": "tokenOfOwnerByIndex",
      "outputs": [
        {
          "internalType": "uint256",
          "name": "",
          "type": "uint256"
        }
      ],
      "stateMutability": "view",
      "type": "function"
    },
    {
      "inputs": [
        {
          "internalType": "uint256",
          "name": "tokenId",
          "type": "uint256"
        }
      ],
      "name": "tokenURI",
      "outputs": [
        {
          "internalType": "string",
          "name": "",
          "type": "string"
        }
      ],
      "stateMutability": "view",
      "type": "function"
    },
    {
      "inputs": [],
      "name": "totalSupply",
      "outputs": [
        {
          "internalType": "uint256",
          "name": "",
          "type": "uint256"
        }
      ],
      "stateMutability": "view",
      "type": "function"
    },
    {
      "inputs": [
        {
          "internalType": "address",
          "name": "from",
          "type": "address"
        },
        {
          "internalType": "address",
          "name": "to",
          "type": "address"
        },
        {
          "internalType": "uint256",
          "name": "tokenId",
          "type": "uint256"
        }
      ],
      "name": "transferFrom",
      "outputs": [],
      "stateMutability": "nonpayable",
      "type": "function"
    },
    {
      "inputs": [
        {
          "internalType": "address",
          "name": "newOwner",
          "type": "address"
        }
      ],
      "name": "transferOwnership",
      "outputs": [],
      "stateMutability": "nonpayable",
      "type": "function"
    },
    {
      "inputs": [
        {
          "internalType": "uint256",
          "name": "_amount",
          "type": "uint256"
        }
      ],
      "name": "setInitPrice",
      "outputs": [],
      "stateMutability": "nonpayable",
      "type": "function"
    },
    {
      "inputs": [
        {
          "internalType": "uint256",
          "name": "_percent",
          "type": "uint256"
        }
      ],
      "name": "setPercent",
      "outputs": [],
      "stateMutability": "nonpayable",
      "type": "function"
    },
    {
      "inputs": [
        {
          "internalType": "uint256",
          "name": "_amount",
          "type": "uint256"
        }
      ],
      "name": "setTotalSupply",
      "outputs": [],
      "stateMutability": "nonpayable",
      "type": "function"
    },
    {
      "inputs": [
        {
          "internalType": "uint256",
          "name": "_amount",
          "type": "uint256"
        }
      ],
      "name": "mint",
      "outputs": [],
      "stateMutability": "nonpayable",
      "type": "function"
    },
    {
      "inputs": [
        {
          "internalType": "address",
          "name": "addr",
          "type": "address"
        }
      ],
      "name": "mintByOwner",
      "outputs": [],
      "stateMutability": "nonpayable",
      "type": "function"
    }
  ],
  "bytecode": "0x60806040523480156200001157600080fd5b50604051620046bd380380620046bd833981810160405281019062000037919062000354565b6040518060400160405280601681526020017f436f696e72616365724e4654436f6c6c656374696f6e000000000000000000008152506040518060400160405280600881526020017f546f7869634e46540000000000000000000000000000000000000000000000008152508160009080519060200190620000bb92919062000226565b508060019080519060200190620000d492919062000226565b505050620000f7620000eb6200015860201b60201c565b6200016060201b60201c565b6000600c8190555080600b60006101000a81548173ffffffffffffffffffffffffffffffffffffffff021916908373ffffffffffffffffffffffffffffffffffffffff1602179055506005600f81905550610bb860108190555050620003ea565b600033905090565b6000600a60009054906101000a900473ffffffffffffffffffffffffffffffffffffffff16905081600a60006101000a81548173ffffffffffffffffffffffffffffffffffffffff021916908373ffffffffffffffffffffffffffffffffffffffff1602179055508173ffffffffffffffffffffffffffffffffffffffff168173ffffffffffffffffffffffffffffffffffffffff167f8be0079c531659141344cd1fd0a4f28419497f9722a3daafe3b4186f6b6457e060405160405180910390a35050565b8280546200023490620003b5565b90600052602060002090601f016020900481019282620002585760008555620002a4565b82601f106200027357805160ff1916838001178555620002a4565b82800160010185558215620002a4579182015b82811115620002a357825182559160200191906001019062000286565b5b509050620002b39190620002b7565b5090565b5b80821115620002d2576000816000905550600101620002b8565b5090565b600080fd5b600073ffffffffffffffffffffffffffffffffffffffff82169050919050565b60006200030882620002db565b9050919050565b60006200031c82620002fb565b9050919050565b6200032e816200030f565b81146200033a57600080fd5b50565b6000815190506200034e8162000323565b92915050565b6000602082840312156200036d576200036c620002d6565b5b60006200037d848285016200033d565b91505092915050565b7f4e487b7100000000000000000000000000000000000000000000000000000000600052602260045260246000fd5b60006002820490506001821680620003ce57607f821691505b602082108103620003e457620003e362000386565b5b50919050565b6142c380620003fa6000396000f3fe608060405234801561001057600080fd5b50600436106101da5760003560e01c80637154b8b511610104578063a422d104116100a2578063c87b56dd11610071578063c87b56dd14610543578063e985e9c514610573578063f2fde38b146105a3578063f7ea7a3d146105bf576101da565b8063a422d104146104cf578063b533731d146104ed578063b88d4fde14610509578063c56551b614610525576101da565b806395d89b41116100de57806395d89b411461045d5780639bbe5e781461047b578063a0712d6814610497578063a22cb465146104b3576101da565b80637154b8b5146103f35780638da5cb5b1461040f578063931dc0b41461042d576101da565b806323b872dd1161017c5780636352211e1161014b5780636352211e1461036b5780636788b1541461039b57806370a08231146103b9578063715018a6146103e9576101da565b806323b872dd146102d35780632f745c59146102ef57806342842e0e1461031f5780634f6ccce71461033b576101da565b8063081812fc116101b8578063081812fc1461024b578063095ea7b31461027b57806318160ddd146102975780631da90967146102b5576101da565b806301ffc9a7146101df578063045b7dca1461020f57806306fdde031461022d575b600080fd5b6101f960048036038101906101f49190612a94565b6105db565b6040516102069190612adc565b60405180910390f35b610217610655565b6040516102249190612b10565b60405180910390f35b61023561065b565b6040516102429190612bc4565b60405180910390f35b61026560048036038101906102609190612c12565b6106ed565b6040516102729190612c80565b60405180910390f35b61029560048036038101906102909190612cc7565b610772565b005b61029f610889565b6040516102ac9190612b10565b60405180910390f35b6102bd610896565b6040516102ca9190612b10565b60405180910390f35b6102ed60048036038101906102e89190612d07565b61089c565b005b61030960048036038101906103049190612cc7565b6108fc565b6040516103169190612b10565b60405180910390f35b61033960048036038101906103349190612d07565b6109a1565b005b61035560048036038101906103509190612c12565b6109c1565b6040516103629190612b10565b60405180910390f35b61038560048036038101906103809190612c12565b610a32565b6040516103929190612c80565b60405180910390f35b6103a3610ae3565b6040516103b09190612b10565b60405180910390f35b6103d360048036038101906103ce9190612d5a565b610ae9565b6040516103e09190612b10565b60405180910390f35b6103f1610ba0565b005b61040d60048036038101906104089190612c12565b610c28565b005b610417610cba565b6040516104249190612c80565b60405180910390f35b61044760048036038101906104429190612d5a565b610ce4565b6040516104549190612b10565b60405180910390f35b610465610cfc565b6040516104729190612bc4565b60405180910390f35b61049560048036038101906104909190612c12565b610d8e565b005b6104b160048036038101906104ac9190612c12565b610e14565b005b6104cd60048036038101906104c89190612db3565b6110a9565b005b6104d76110bf565b6040516104e49190612b10565b60405180910390f35b61050760048036038101906105029190612d5a565b6110c5565b005b610523600480360381019061051e9190612f28565b611165565b005b61052d6111c7565b60405161053a9190612b10565b60405180910390f35b61055d60048036038101906105589190612c12565b6111cd565b60405161056a9190612bc4565b60405180910390f35b61058d60048036038101906105889190612fab565b611274565b60405161059a9190612adc565b60405180910390f35b6105bd60048036038101906105b89190612d5a565b611308565b005b6105d960048036038101906105d49190612c12565b6113ff565b005b60007f780e9d63000000000000000000000000000000000000000000000000000000007bffffffffffffffffffffffffffffffffffffffffffffffffffffffff1916827bffffffffffffffffffffffffffffffffffffffffffffffffffffffff1916148061064e575061064d82611485565b5b9050919050565b600d5481565b60606000805461066a9061301a565b80601f01602080910402602001604051908101604052809291908181526020018280546106969061301a565b80156106e35780601f106106b8576101008083540402835291602001916106e3565b820191906000526020600020905b8154815290600101906020018083116106c657829003601f168201915b5050505050905090565b60006106f882611567565b610737576040517f08c379a000000000000000000000000000000000000000000000000000000000815260040161072e906130bd565b60405180910390fd5b6004600083815260200190815260200160002060009054906101000a900473ffffffffffffffffffffffffffffffffffffffff169050919050565b600061077d82610a32565b90508073ffffffffffffffffffffffffffffffffffffffff168373ffffffffffffffffffffffffffffffffffffffff16036107ed576040517f08c379a00000000000000000000000000000000000000000000000000000000081526004016107e49061314f565b60405180910390fd5b8073ffffffffffffffffffffffffffffffffffffffff1661080c6115d3565b73ffffffffffffffffffffffffffffffffffffffff16148061083b575061083a816108356115d3565b611274565b5b61087a576040517f08c379a0000000000000000000000000000000000000000000000000000000008152600401610871906131e1565b60405180910390fd5b61088483836115db565b505050565b6000600880549050905090565b600e5481565b6108ad6108a76115d3565b82611694565b6108ec576040517f08c379a00000000000000000000000000000000000000000000000000000000081526004016108e390613273565b60405180910390fd5b6108f7838383611772565b505050565b600061090783610ae9565b8210610948576040517f08c379a000000000000000000000000000000000000000000000000000000000815260040161093f90613305565b60405180910390fd5b600660008473ffffffffffffffffffffffffffffffffffffffff1673ffffffffffffffffffffffffffffffffffffffff168152602001908152602001600020600083815260200190815260200160002054905092915050565b6109bc83838360405180602001604052806000815250611165565b505050565b60006109cb610889565b8210610a0c576040517f08c379a0000000000000000000000000000000000000000000000000000000008152600401610a0390613397565b60405180910390fd5b60088281548110610a2057610a1f6133b7565b5b90600052602060002001549050919050565b6000806002600084815260200190815260200160002060009054906101000a900473ffffffffffffffffffffffffffffffffffffffff169050600073ffffffffffffffffffffffffffffffffffffffff168173ffffffffffffffffffffffffffffffffffffffff1603610ada576040517f08c379a0000000000000000000000000000000000000000000000000000000008152600401610ad190613458565b60405180910390fd5b80915050919050565b600f5481565b60008073ffffffffffffffffffffffffffffffffffffffff168273ffffffffffffffffffffffffffffffffffffffff1603610b59576040517f08c379a0000000000000000000000000000000000000000000000000000000008152600401610b50906134ea565b60405180910390fd5b600360008373ffffffffffffffffffffffffffffffffffffffff1673ffffffffffffffffffffffffffffffffffffffff168152602001908152602001600020549050919050565b610ba86115d3565b73ffffffffffffffffffffffffffffffffffffffff16610bc6610cba565b73ffffffffffffffffffffffffffffffffffffffff1614610c1c576040517f08c379a0000000000000000000000000000000000000000000000000000000008152600401610c1390613556565b60405180910390fd5b610c2660006119cd565b565b610c306115d3565b73ffffffffffffffffffffffffffffffffffffffff16610c4e610cba565b73ffffffffffffffffffffffffffffffffffffffff1614610ca4576040517f08c379a0000000000000000000000000000000000000000000000000000000008152600401610c9b90613556565b60405180910390fd5b806064610cb191906135d4565b600f8190555050565b6000600a60009054906101000a900473ffffffffffffffffffffffffffffffffffffffff16905090565b60116020528060005260406000206000915090505481565b606060018054610d0b9061301a565b80601f0160208091040260200160405190810160405280929190818152602001828054610d379061301a565b8015610d845780601f10610d5957610100808354040283529160200191610d84565b820191906000526020600020905b815481529060010190602001808311610d6757829003601f168201915b5050505050905090565b610d966115d3565b73ffffffffffffffffffffffffffffffffffffffff16610db4610cba565b73ffffffffffffffffffffffffffffffffffffffff1614610e0a576040517f08c379a0000000000000000000000000000000000000000000000000000000008152600401610e0190613556565b60405180910390fd5b80600e8190555050565b60008111610e57576040517f08c379a0000000000000000000000000000000000000000000000000000000008152600401610e4e90613651565b60405180910390fd5b6000600e5482610e679190613671565b905080600b60009054906101000a900473ffffffffffffffffffffffffffffffffffffffff1673ffffffffffffffffffffffffffffffffffffffff166370a08231336040518263ffffffff1660e01b8152600401610ec59190612c80565b602060405180830381865afa158015610ee2573d6000803e3d6000fd5b505050506040513d601f19601f82011682018060405250810190610f0691906136e0565b1015610f47576040517f08c379a0000000000000000000000000000000000000000000000000000000008152600401610f3e9061377f565b60405180910390fd5b600d546010541015610f8e576040517f08c379a0000000000000000000000000000000000000000000000000000000008152600401610f85906137eb565b60405180910390fd5b6000805b83811015611005576000610fa960016103e8611a93565b90506000600f5482610fbb919061380b565b03610ff1576001600c54610fcf919061383c565b600c81905550610fe133600c54611b20565b600183610fee919061383c565b92505b508080610ffd90613892565b915050610f92565b50611055333084600b60009054906101000a900473ffffffffffffffffffffffffffffffffffffffff1673ffffffffffffffffffffffffffffffffffffffff16611b3e909392919063ffffffff16565b80600d54611063919061383c565b600d819055507f1e7efa97f3b4e25ae72f2d8e315ec3e1f2009e18408eeb1cb80d3bc4f2ce7f2233848360405161109c939291906138da565b60405180910390a1505050565b6110bb6110b46115d3565b8383611bc7565b5050565b60105481565b6110cd6115d3565b73ffffffffffffffffffffffffffffffffffffffff166110eb610cba565b73ffffffffffffffffffffffffffffffffffffffff1614611141576040517f08c379a000000000000000000000000000000000000000000000000000000000815260040161113890613556565b60405180910390fd5b6001600c54611150919061383c565b600c8190555061116281600c54611b20565b50565b6111766111706115d3565b83611694565b6111b5576040517f08c379a00000000000000000000000000000000000000000000000000000000081526004016111ac90613273565b60405180910390fd5b6111c184848484611d33565b50505050565b600c5481565b60606111d882611567565b611217576040517f08c379a000000000000000000000000000000000000000000000000000000000815260040161120e90613983565b60405180910390fd5b6000611221611d8f565b90506000815111611241576040518060200160405280600081525061126c565b8061124b84611da6565b60405160200161125c9291906139df565b6040516020818303038152906040525b915050919050565b6000600560008473ffffffffffffffffffffffffffffffffffffffff1673ffffffffffffffffffffffffffffffffffffffff16815260200190815260200160002060008373ffffffffffffffffffffffffffffffffffffffff1673ffffffffffffffffffffffffffffffffffffffff16815260200190815260200160002060009054906101000a900460ff16905092915050565b6113106115d3565b73ffffffffffffffffffffffffffffffffffffffff1661132e610cba565b73ffffffffffffffffffffffffffffffffffffffff1614611384576040517f08c379a000000000000000000000000000000000000000000000000000000000815260040161137b90613556565b60405180910390fd5b600073ffffffffffffffffffffffffffffffffffffffff168173ffffffffffffffffffffffffffffffffffffffff16036113f3576040517f08c379a00000000000000000000000000000000000000000000000000000000081526004016113ea90613a75565b60405180910390fd5b6113fc816119cd565b50565b6114076115d3565b73ffffffffffffffffffffffffffffffffffffffff16611425610cba565b73ffffffffffffffffffffffffffffffffffffffff161461147b576040517f08c379a000000000000000000000000000000000000000000000000000000000815260040161147290613556565b60405180910390fd5b8060108190555050565b60007f80ac58cd000000000000000000000000000000000000000000000000000000007bffffffffffffffffffffffffffffffffffffffffffffffffffffffff1916827bffffffffffffffffffffffffffffffffffffffffffffffffffffffff1916148061155057507f5b5e139f000000000000000000000000000000000000000000000000000000007bffffffffffffffffffffffffffffffffffffffffffffffffffffffff1916827bffffffffffffffffffffffffffffffffffffffffffffffffffffffff1916145b80611560575061155f82611f06565b5b9050919050565b60008073ffffffffffffffffffffffffffffffffffffffff166002600084815260200190815260200160002060009054906101000a900473ffffffffffffffffffffffffffffffffffffffff1673ffffffffffffffffffffffffffffffffffffffff1614159050919050565b600033905090565b816004600083815260200190815260200160002060006101000a81548173ffffffffffffffffffffffffffffffffffffffff021916908373ffffffffffffffffffffffffffffffffffffffff160217905550808273ffffffffffffffffffffffffffffffffffffffff1661164e83610a32565b73ffffffffffffffffffffffffffffffffffffffff167f8c5be1e5ebec7d5bd14f71427d1e84f3dd0314c0f7b2291e5b200ac8c7c3b92560405160405180910390a45050565b600061169f82611567565b6116de576040517f08c379a00000000000000000000000000000000000000000000000000000000081526004016116d590613b07565b60405180910390fd5b60006116e983610a32565b90508073ffffffffffffffffffffffffffffffffffffffff168473ffffffffffffffffffffffffffffffffffffffff16148061175857508373ffffffffffffffffffffffffffffffffffffffff16611740846106ed565b73ffffffffffffffffffffffffffffffffffffffff16145b8061176957506117688185611274565b5b91505092915050565b8273ffffffffffffffffffffffffffffffffffffffff1661179282610a32565b73ffffffffffffffffffffffffffffffffffffffff16146117e8576040517f08c379a00000000000000000000000000000000000000000000000000000000081526004016117df90613b99565b60405180910390fd5b600073ffffffffffffffffffffffffffffffffffffffff168273ffffffffffffffffffffffffffffffffffffffff1603611857576040517f08c379a000000000000000000000000000000000000000000000000000000000815260040161184e90613c2b565b60405180910390fd5b611862838383611f70565b61186d6000826115db565b6001600360008573ffffffffffffffffffffffffffffffffffffffff1673ffffffffffffffffffffffffffffffffffffffff16815260200190815260200160002060008282546118bd9190613c4b565b925050819055506001600360008473ffffffffffffffffffffffffffffffffffffffff1673ffffffffffffffffffffffffffffffffffffffff1681526020019081526020016000206000828254611914919061383c565b92505081905550816002600083815260200190815260200160002060006101000a81548173ffffffffffffffffffffffffffffffffffffffff021916908373ffffffffffffffffffffffffffffffffffffffff160217905550808273ffffffffffffffffffffffffffffffffffffffff168473ffffffffffffffffffffffffffffffffffffffff167fddf252ad1be2c89b69c2b068fc378daa952ba7f163c4a11628f55a4df523b3ef60405160405180910390a4505050565b6000600a60009054906101000a900473ffffffffffffffffffffffffffffffffffffffff16905081600a60006101000a81548173ffffffffffffffffffffffffffffffffffffffff021916908373ffffffffffffffffffffffffffffffffffffffff1602179055508173ffffffffffffffffffffffffffffffffffffffff168173ffffffffffffffffffffffffffffffffffffffff167f8be0079c531659141344cd1fd0a4f28419497f9722a3daafe3b4186f6b6457e060405160405180910390a35050565b6000818310611ad7576040517f08c379a0000000000000000000000000000000000000000000000000000000008152600401611ace90613ccb565b60405180910390fd5b6000611ae1612082565b9050600060018585611af39190613c4b565b611afd919061383c565b9050848183611b0c919061380b565b611b16919061383c565b9250505092915050565b611b3a8282604051806020016040528060008152506120d4565b5050565b611bc1846323b872dd60e01b858585604051602401611b5f93929190613ceb565b604051602081830303815290604052907bffffffffffffffffffffffffffffffffffffffffffffffffffffffff19166020820180517bffffffffffffffffffffffffffffffffffffffffffffffffffffffff838183161783525050505061212f565b50505050565b8173ffffffffffffffffffffffffffffffffffffffff168373ffffffffffffffffffffffffffffffffffffffff1603611c35576040517f08c379a0000000000000000000000000000000000000000000000000000000008152600401611c2c90613d6e565b60405180910390fd5b80600560008573ffffffffffffffffffffffffffffffffffffffff1673ffffffffffffffffffffffffffffffffffffffff16815260200190815260200160002060008473ffffffffffffffffffffffffffffffffffffffff1673ffffffffffffffffffffffffffffffffffffffff16815260200190815260200160002060006101000a81548160ff0219169083151502179055508173ffffffffffffffffffffffffffffffffffffffff168373ffffffffffffffffffffffffffffffffffffffff167f17307eab39ab6107e8899845ad3d59bd9653f200f220920489ca2b5937696c3183604051611d269190612adc565b60405180910390a3505050565b611d3e848484611772565b611d4a848484846121f6565b611d89576040517f08c379a0000000000000000000000000000000000000000000000000000000008152600401611d8090613e00565b60405180910390fd5b50505050565b606060405180602001604052806000815250905090565b606060008203611ded576040518060400160405280600181526020017f30000000000000000000000000000000000000000000000000000000000000008152509050611f01565b600082905060005b60008214611e1f578080611e0890613892565b915050600a82611e1891906135d4565b9150611df5565b60008167ffffffffffffffff811115611e3b57611e3a612dfd565b5b6040519080825280601f01601f191660200182016040528015611e6d5781602001600182028036833780820191505090505b5090505b60008514611efa57600182611e869190613c4b565b9150600a85611e95919061380b565b6030611ea1919061383c565b60f81b818381518110611eb757611eb66133b7565b5b60200101907effffffffffffffffffffffffffffffffffffffffffffffffffffffffffffff1916908160001a905350600a85611ef391906135d4565b9450611e71565b8093505050505b919050565b60007f01ffc9a7000000000000000000000000000000000000000000000000000000007bffffffffffffffffffffffffffffffffffffffffffffffffffffffff1916827bffffffffffffffffffffffffffffffffffffffffffffffffffffffff1916149050919050565b611f7b83838361237d565b600073ffffffffffffffffffffffffffffffffffffffff168373ffffffffffffffffffffffffffffffffffffffff1603611fbd57611fb881612382565b611ffc565b8173ffffffffffffffffffffffffffffffffffffffff168373ffffffffffffffffffffffffffffffffffffffff1614611ffb57611ffa83826123cb565b5b5b600073ffffffffffffffffffffffffffffffffffffffff168273ffffffffffffffffffffffffffffffffffffffff160361203e5761203981612538565b61207d565b8273ffffffffffffffffffffffffffffffffffffffff168273ffffffffffffffffffffffffffffffffffffffff161461207c5761207b8282612609565b5b5b505050565b60008061208d612688565b9050444282600001546040516020016120a893929190613e41565b6040516020818303038152906040528051906020012060001c8160000181905550806000015491505090565b6120de83836126b5565b6120eb60008484846121f6565b61212a576040517f08c379a000000000000000000000000000000000000000000000000000000000815260040161212190613e00565b60405180910390fd5b505050565b6000612191826040518060400160405280602081526020017f5361666545524332303a206c6f772d6c6576656c2063616c6c206661696c65648152508573ffffffffffffffffffffffffffffffffffffffff166128829092919063ffffffff16565b90506000815111156121f157808060200190518101906121b19190613e93565b6121f0576040517f08c379a00000000000000000000000000000000000000000000000000000000081526004016121e790613f32565b60405180910390fd5b5b505050565b60006122178473ffffffffffffffffffffffffffffffffffffffff1661289a565b15612370578373ffffffffffffffffffffffffffffffffffffffff1663150b7a026122406115d3565b8786866040518563ffffffff1660e01b81526004016122629493929190613fa7565b6020604051808303816000875af192505050801561229e57506040513d601f19601f8201168201806040525081019061229b9190614008565b60015b612320573d80600081146122ce576040519150601f19603f3d011682016040523d82523d6000602084013e6122d3565b606091505b506000815103612318576040517f08c379a000000000000000000000000000000000000000000000000000000000815260040161230f90613e00565b60405180910390fd5b805181602001fd5b63150b7a0260e01b7bffffffffffffffffffffffffffffffffffffffffffffffffffffffff1916817bffffffffffffffffffffffffffffffffffffffffffffffffffffffff191614915050612375565b600190505b949350505050565b505050565b6008805490506009600083815260200190815260200160002081905550600881908060018154018082558091505060019003906000526020600020016000909190919091505550565b600060016123d884610ae9565b6123e29190613c4b565b90506000600760008481526020019081526020016000205490508181146124c7576000600660008673ffffffffffffffffffffffffffffffffffffffff1673ffffffffffffffffffffffffffffffffffffffff168152602001908152602001600020600084815260200190815260200160002054905080600660008773ffffffffffffffffffffffffffffffffffffffff1673ffffffffffffffffffffffffffffffffffffffff168152602001908152602001600020600084815260200190815260200160002081905550816007600083815260200190815260200160002081905550505b6007600084815260200190815260200160002060009055600660008573ffffffffffffffffffffffffffffffffffffffff1673ffffffffffffffffffffffffffffffffffffffff16815260200190815260200160002060008381526020019081526020016000206000905550505050565b6000600160088054905061254c9190613c4b565b905060006009600084815260200190815260200160002054905060006008838154811061257c5761257b6133b7565b5b90600052602060002001549050806008838154811061259e5761259d6133b7565b5b9060005260206000200181905550816009600083815260200190815260200160002081905550600960008581526020019081526020016000206000905560088054806125ed576125ec614035565b5b6001900381819060005260206000200160009055905550505050565b600061261483610ae9565b905081600660008573ffffffffffffffffffffffffffffffffffffffff1673ffffffffffffffffffffffffffffffffffffffff168152602001908152602001600020600083815260200190815260200160002081905550806007600084815260200190815260200160002081905550505050565b6000807f7a6b9e19d5317a8984ae5b7444fdda0feab2194214695426574ea60bbfc4adfa90508091505090565b600073ffffffffffffffffffffffffffffffffffffffff168273ffffffffffffffffffffffffffffffffffffffff1603612724576040517f08c379a000000000000000000000000000000000000000000000000000000000815260040161271b906140b0565b60405180910390fd5b61272d81611567565b1561276d576040517f08c379a00000000000000000000000000000000000000000000000000000000081526004016127649061411c565b60405180910390fd5b61277960008383611f70565b6001600360008473ffffffffffffffffffffffffffffffffffffffff1673ffffffffffffffffffffffffffffffffffffffff16815260200190815260200160002060008282546127c9919061383c565b92505081905550816002600083815260200190815260200160002060006101000a81548173ffffffffffffffffffffffffffffffffffffffff021916908373ffffffffffffffffffffffffffffffffffffffff160217905550808273ffffffffffffffffffffffffffffffffffffffff16600073ffffffffffffffffffffffffffffffffffffffff167fddf252ad1be2c89b69c2b068fc378daa952ba7f163c4a11628f55a4df523b3ef60405160405180910390a45050565b606061289184846000856128ad565b90509392505050565b600080823b905060008111915050919050565b6060824710156128f2576040517f08c379a00000000000000000000000000000000000000000000000000000000081526004016128e9906141ae565b60405180910390fd5b6128fb8561289a565b61293a576040517f08c379a00000000000000000000000000000000000000000000000000000000081526004016129319061421a565b60405180910390fd5b6000808673ffffffffffffffffffffffffffffffffffffffff1685876040516129639190614276565b60006040518083038185875af1925050503d80600081146129a0576040519150601f19603f3d011682016040523d82523d6000602084013e6129a5565b606091505b50915091506129b58282866129c1565b92505050949350505050565b606083156129d157829050612a21565b6000835111156129e45782518084602001fd5b816040517f08c379a0000000000000000000000000000000000000000000000000000000008152600401612a189190612bc4565b60405180910390fd5b9392505050565b6000604051905090565b600080fd5b600080fd5b60007fffffffff0000000000000000000000000000000000000000000000000000000082169050919050565b612a7181612a3c565b8114612a7c57600080fd5b50565b600081359050612a8e81612a68565b92915050565b600060208284031215612aaa57612aa9612a32565b5b6000612ab884828501612a7f565b91505092915050565b60008115159050919050565b612ad681612ac1565b82525050565b6000602082019050612af16000830184612acd565b92915050565b6000819050919050565b612b0a81612af7565b82525050565b6000602082019050612b256000830184612b01565b92915050565b600081519050919050565b600082825260208201905092915050565b60005b83811015612b65578082015181840152602081019050612b4a565b83811115612b74576000848401525b50505050565b6000601f19601f8301169050919050565b6000612b9682612b2b565b612ba08185612b36565b9350612bb0818560208601612b47565b612bb981612b7a565b840191505092915050565b60006020820190508181036000830152612bde8184612b8b565b905092915050565b612bef81612af7565b8114612bfa57600080fd5b50565b600081359050612c0c81612be6565b92915050565b600060208284031215612c2857612c27612a32565b5b6000612c3684828501612bfd565b91505092915050565b600073ffffffffffffffffffffffffffffffffffffffff82169050919050565b6000612c6a82612c3f565b9050919050565b612c7a81612c5f565b82525050565b6000602082019050612c956000830184612c71565b92915050565b612ca481612c5f565b8114612caf57600080fd5b50565b600081359050612cc181612c9b565b92915050565b60008060408385031215612cde57612cdd612a32565b5b6000612cec85828601612cb2565b9250506020612cfd85828601612bfd565b9150509250929050565b600080600060608486031215612d2057612d1f612a32565b5b6000612d2e86828701612cb2565b9350506020612d3f86828701612cb2565b9250506040612d5086828701612bfd565b9150509250925092565b600060208284031215612d7057612d6f612a32565b5b6000612d7e84828501612cb2565b91505092915050565b612d9081612ac1565b8114612d9b57600080fd5b50565b600081359050612dad81612d87565b92915050565b60008060408385031215612dca57612dc9612a32565b5b6000612dd885828601612cb2565b9250506020612de985828601612d9e565b9150509250929050565b600080fd5b600080fd5b7f4e487b7100000000000000000000000000000000000000000000000000000000600052604160045260246000fd5b612e3582612b7a565b810181811067ffffffffffffffff82111715612e5457612e53612dfd565b5b80604052505050565b6000612e67612a28565b9050612e738282612e2c565b919050565b600067ffffffffffffffff821115612e9357612e92612dfd565b5b612e9c82612b7a565b9050602081019050919050565b82818337600083830152505050565b6000612ecb612ec684612e78565b612e5d565b905082815260208101848484011115612ee757612ee6612df8565b5b612ef2848285612ea9565b509392505050565b600082601f830112612f0f57612f0e612df3565b5b8135612f1f848260208601612eb8565b91505092915050565b60008060008060808587031215612f4257612f41612a32565b5b6000612f5087828801612cb2565b9450506020612f6187828801612cb2565b9350506040612f7287828801612bfd565b925050606085013567ffffffffffffffff811115612f9357612f92612a37565b5b612f9f87828801612efa565b91505092959194509250565b60008060408385031215612fc257612fc1612a32565b5b6000612fd085828601612cb2565b9250506020612fe185828601612cb2565b9150509250929050565b7f4e487b7100000000000000000000000000000000000000000000000000000000600052602260045260246000fd5b6000600282049050600182168061303257607f821691505b60208210810361304557613044612feb565b5b50919050565b7f4552433732313a20617070726f76656420717565727920666f72206e6f6e657860008201527f697374656e7420746f6b656e0000000000000000000000000000000000000000602082015250565b60006130a7602c83612b36565b91506130b28261304b565b604082019050919050565b600060208201905081810360008301526130d68161309a565b9050919050565b7f4552433732313a20617070726f76616c20746f2063757272656e74206f776e6560008201527f7200000000000000000000000000000000000000000000000000000000000000602082015250565b6000613139602183612b36565b9150613144826130dd565b604082019050919050565b600060208201905081810360008301526131688161312c565b9050919050565b7f4552433732313a20617070726f76652063616c6c6572206973206e6f74206f7760008201527f6e6572206e6f7220617070726f76656420666f7220616c6c0000000000000000602082015250565b60006131cb603883612b36565b91506131d68261316f565b604082019050919050565b600060208201905081810360008301526131fa816131be565b9050919050565b7f4552433732313a207472616e736665722063616c6c6572206973206e6f74206f60008201527f776e6572206e6f7220617070726f766564000000000000000000000000000000602082015250565b600061325d603183612b36565b915061326882613201565b604082019050919050565b6000602082019050818103600083015261328c81613250565b9050919050565b7f455243373231456e756d657261626c653a206f776e657220696e646578206f7560008201527f74206f6620626f756e6473000000000000000000000000000000000000000000602082015250565b60006132ef602b83612b36565b91506132fa82613293565b604082019050919050565b6000602082019050818103600083015261331e816132e2565b9050919050565b7f455243373231456e756d657261626c653a20676c6f62616c20696e646578206f60008201527f7574206f6620626f756e64730000000000000000000000000000000000000000602082015250565b6000613381602c83612b36565b915061338c82613325565b604082019050919050565b600060208201905081810360008301526133b081613374565b9050919050565b7f4e487b7100000000000000000000000000000000000000000000000000000000600052603260045260246000fd5b7f4552433732313a206f776e657220717565727920666f72206e6f6e657869737460008201527f656e7420746f6b656e0000000000000000000000000000000000000000000000602082015250565b6000613442602983612b36565b915061344d826133e6565b604082019050919050565b6000602082019050818103600083015261347181613435565b9050919050565b7f4552433732313a2062616c616e636520717565727920666f7220746865207a6560008201527f726f206164647265737300000000000000000000000000000000000000000000602082015250565b60006134d4602a83612b36565b91506134df82613478565b604082019050919050565b60006020820190508181036000830152613503816134c7565b9050919050565b7f4f776e61626c653a2063616c6c6572206973206e6f7420746865206f776e6572600082015250565b6000613540602083612b36565b915061354b8261350a565b602082019050919050565b6000602082019050818103600083015261356f81613533565b9050919050565b7f4e487b7100000000000000000000000000000000000000000000000000000000600052601260045260246000fd5b7f4e487b7100000000000000000000000000000000000000000000000000000000600052601160045260246000fd5b60006135df82612af7565b91506135ea83612af7565b9250826135fa576135f9613576565b5b828204905092915050565b7f4d696e7420616d6f756e74206572726f72210000000000000000000000000000600082015250565b600061363b601283612b36565b915061364682613605565b602082019050919050565b6000602082019050818103600083015261366a8161362e565b9050919050565b600061367c82612af7565b915061368783612af7565b9250817fffffffffffffffffffffffffffffffffffffffffffffffffffffffffffffffff04831182151516156136c0576136bf6135a5565b5b828202905092915050565b6000815190506136da81612be6565b92915050565b6000602082840312156136f6576136f5612a32565b5b6000613704848285016136cb565b91505092915050565b7f596f7520646f6e2774206861766520656e6f7567682066756e647320666f722060008201527f627579207469636b657473000000000000000000000000000000000000000000602082015250565b6000613769602b83612b36565b91506137748261370d565b604082019050919050565b600060208201905081810360008301526137988161375c565b9050919050565b7f4f7574206f6620537570706c7900000000000000000000000000000000000000600082015250565b60006137d5600d83612b36565b91506137e08261379f565b602082019050919050565b60006020820190508181036000830152613804816137c8565b9050919050565b600061381682612af7565b915061382183612af7565b92508261383157613830613576565b5b828206905092915050565b600061384782612af7565b915061385283612af7565b9250827fffffffffffffffffffffffffffffffffffffffffffffffffffffffffffffffff03821115613887576138866135a5565b5b828201905092915050565b600061389d82612af7565b91507fffffffffffffffffffffffffffffffffffffffffffffffffffffffffffffffff82036138cf576138ce6135a5565b5b600182019050919050565b60006060820190506138ef6000830186612c71565b6138fc6020830185612b01565b6139096040830184612b01565b949350505050565b7f4552433732314d657461646174613a2055524920717565727920666f72206e6f60008201527f6e6578697374656e7420746f6b656e0000000000000000000000000000000000602082015250565b600061396d602f83612b36565b915061397882613911565b604082019050919050565b6000602082019050818103600083015261399c81613960565b9050919050565b600081905092915050565b60006139b982612b2b565b6139c381856139a3565b93506139d3818560208601612b47565b80840191505092915050565b60006139eb82856139ae565b91506139f782846139ae565b91508190509392505050565b7f4f776e61626c653a206e6577206f776e657220697320746865207a65726f206160008201527f6464726573730000000000000000000000000000000000000000000000000000602082015250565b6000613a5f602683612b36565b9150613a6a82613a03565b604082019050919050565b60006020820190508181036000830152613a8e81613a52565b9050919050565b7f4552433732313a206f70657261746f7220717565727920666f72206e6f6e657860008201527f697374656e7420746f6b656e0000000000000000000000000000000000000000602082015250565b6000613af1602c83612b36565b9150613afc82613a95565b604082019050919050565b60006020820190508181036000830152613b2081613ae4565b9050919050565b7f4552433732313a207472616e73666572206f6620746f6b656e2074686174206960008201527f73206e6f74206f776e0000000000000000000000000000000000000000000000602082015250565b6000613b83602983612b36565b9150613b8e82613b27565b604082019050919050565b60006020820190508181036000830152613bb281613b76565b9050919050565b7f4552433732313a207472616e7366657220746f20746865207a65726f2061646460008201527f7265737300000000000000000000000000000000000000000000000000000000602082015250565b6000613c15602483612b36565b9150613c2082613bb9565b604082019050919050565b60006020820190508181036000830152613c4481613c08565b9050919050565b6000613c5682612af7565b9150613c6183612af7565b925082821015613c7457613c736135a5565b5b828203905092915050565b7f52616e646f6d3a20496e76616c69642072616e6765206f662072616e646f6d00600082015250565b6000613cb5601f83612b36565b9150613cc082613c7f565b602082019050919050565b60006020820190508181036000830152613ce481613ca8565b9050919050565b6000606082019050613d006000830186612c71565b613d0d6020830185612c71565b613d1a6040830184612b01565b949350505050565b7f4552433732313a20617070726f766520746f2063616c6c657200000000000000600082015250565b6000613d58601983612b36565b9150613d6382613d22565b602082019050919050565b60006020820190508181036000830152613d8781613d4b565b9050919050565b7f4552433732313a207472616e7366657220746f206e6f6e20455243373231526560008201527f63656976657220696d706c656d656e7465720000000000000000000000000000602082015250565b6000613dea603283612b36565b9150613df582613d8e565b604082019050919050565b60006020820190508181036000830152613e1981613ddd565b9050919050565b6000819050919050565b613e3b613e3682612af7565b613e20565b82525050565b6000613e4d8286613e2a565b602082019150613e5d8285613e2a565b602082019150613e6d8284613e2a565b602082019150819050949350505050565b600081519050613e8d81612d87565b92915050565b600060208284031215613ea957613ea8612a32565b5b6000613eb784828501613e7e565b91505092915050565b7f5361666545524332303a204552433230206f7065726174696f6e20646964206e60008201527f6f74207375636365656400000000000000000000000000000000000000000000602082015250565b6000613f1c602a83612b36565b9150613f2782613ec0565b604082019050919050565b60006020820190508181036000830152613f4b81613f0f565b9050919050565b600081519050919050565b600082825260208201905092915050565b6000613f7982613f52565b613f838185613f5d565b9350613f93818560208601612b47565b613f9c81612b7a565b840191505092915050565b6000608082019050613fbc6000830187612c71565b613fc96020830186612c71565b613fd66040830185612b01565b8181036060830152613fe88184613f6e565b905095945050505050565b60008151905061400281612a68565b92915050565b60006020828403121561401e5761401d612a32565b5b600061402c84828501613ff3565b91505092915050565b7f4e487b7100000000000000000000000000000000000000000000000000000000600052603160045260246000fd5b7f4552433732313a206d696e7420746f20746865207a65726f2061646472657373600082015250565b600061409a602083612b36565b91506140a582614064565b602082019050919050565b600060208201905081810360008301526140c98161408d565b9050919050565b7f4552433732313a20746f6b656e20616c7265616479206d696e74656400000000600082015250565b6000614106601c83612b36565b9150614111826140d0565b602082019050919050565b60006020820190508181036000830152614135816140f9565b9050919050565b7f416464726573733a20696e73756666696369656e742062616c616e636520666f60008201527f722063616c6c0000000000000000000000000000000000000000000000000000602082015250565b6000614198602683612b36565b91506141a38261413c565b604082019050919050565b600060208201905081810360008301526141c78161418b565b9050919050565b7f416464726573733a2063616c6c20746f206e6f6e2d636f6e7472616374000000600082015250565b6000614204601d83612b36565b915061420f826141ce565b602082019050919050565b60006020820190508181036000830152614233816141f7565b9050919050565b600081905092915050565b600061425082613f52565b61425a818561423a565b935061426a818560208601612b47565b80840191505092915050565b60006142828284614245565b91508190509291505056fea2646970667358221220f52f61c0cb07d0f00af47f784112e32512f762426bf29a69736f14da19964c1264736f6c634300080d0033",
  "immutableReferences": {},
  "source": "// SPDX-License-Identifier: UNLICENSED\r\npragma solidity ^0.8.0;\r\n\r\nimport \"@openzeppelin/contracts/token/ERC721/IERC721Receiver.sol\";\r\nimport \"@openzeppelin/contracts/token/ERC721/extensions/ERC721Enumerable.sol\";\r\nimport \"@openzeppelin/contracts/token/ERC20/IERC20.sol\";\r\nimport \"@openzeppelin/contracts/access/Ownable.sol\";\r\nimport \"@openzeppelin/contracts/token/ERC20/utils/SafeERC20.sol\";\r\nimport \"./libraries/Rand.sol\";\r\n\r\ncontract ToxicNFT is ERC721Enumerable, Ownable {\r\n    using SafeERC20 for IERC20;\r\n    IERC20 g_craceToken;\r\n\r\n    uint256 public pos;\t\r\n\tuint256 public mintSupply;\r\n    uint256 public g_initPrice;\r\n    uint256 public g_percent;\r\n    uint256 public g_totalSupply;\r\n    \t\r\n    mapping(address => uint256) public g_toxicAmount;\r\n    event mintToxic(address _user, uint256 _ticketAmount, uint256 _toxicAmount);\r\n    constructor (IERC20 _tokenAddress) ERC721(\"CoinracerNFTCollection\", \"ToxicNFT\"){\r\n        pos = 0;\r\n        g_craceToken = _tokenAddress;\r\n        g_percent = 5;\r\n        g_totalSupply = 3000;\r\n    }\r\n    function setInitPrice(uint256 _amount) external onlyOwner {\r\n        g_initPrice = _amount;\r\n    }\r\n    function setPercent(uint256 _percent) external onlyOwner {\r\n        g_percent = 100 / _percent;\r\n    }\r\n    function setTotalSupply(uint256 _amount) external onlyOwner {\r\n        g_totalSupply = _amount;\r\n    }\r\n    function mint( uint256 _amount) external{\r\n        require(_amount > 0, \"Mint amount error!\");\r\n        uint256 price = _amount * g_initPrice;\r\n        require(g_craceToken.balanceOf(msg.sender) >= price, \"You don't have enough funds for buy tickets\");\r\n        require(g_totalSupply >= mintSupply , \"Out of Supply\");\r\n\r\n        uint256 counter = 0;\r\n        for(uint256 i = 0 ; i < _amount; i++) {\r\n            uint256 seed = Rand.randInRange(1, 1000);\r\n            if ((seed % g_percent) == 0) {\r\n                pos = pos + 1;\r\n                _safeMint(msg.sender, pos);\r\n                counter = counter + 1;\r\n            }\r\n        }\r\n        g_craceToken.safeTransferFrom(msg.sender, address(this), price);\r\n        mintSupply = mintSupply + counter;\r\n        emit mintToxic(msg.sender, _amount, counter);\r\n    }\r\n    function mintByOwner(address addr) external onlyOwner {\r\n\t\tpos = pos + 1;\r\n\t\t_safeMint(addr, pos);\r\n\t}\r\n}",
  "sourcePath": "G:\\2021\\blockchain\\Work\\2021.12.1. CRace NFT Market place\\work\\New Folder\\contracts\\Toxic.sol",
  "compiler": {
    "name": "solc",
    "version": "0.8.13+commit.abaa5c0e.Emscripten.clang"
  },
  "schemaVersion": "3.4.4",
  "updatedAt": "2022-03-17T01:29:17.434Z",
  "devdoc": {
    "kind": "dev",
    "methods": {
      "approve(address,uint256)": {
        "details": "See {IERC721-approve}."
      },
      "balanceOf(address)": {
        "details": "See {IERC721-balanceOf}."
      },
      "getApproved(uint256)": {
        "details": "See {IERC721-getApproved}."
      },
      "isApprovedForAll(address,address)": {
        "details": "See {IERC721-isApprovedForAll}."
      },
      "name()": {
        "details": "See {IERC721Metadata-name}."
      },
      "owner()": {
        "details": "Returns the address of the current owner."
      },
      "ownerOf(uint256)": {
        "details": "See {IERC721-ownerOf}."
      },
      "renounceOwnership()": {
        "details": "Leaves the contract without owner. It will not be possible to call `onlyOwner` functions anymore. Can only be called by the current owner. NOTE: Renouncing ownership will leave the contract without an owner, thereby removing any functionality that is only available to the owner."
      },
      "safeTransferFrom(address,address,uint256)": {
        "details": "See {IERC721-safeTransferFrom}."
      },
      "safeTransferFrom(address,address,uint256,bytes)": {
        "details": "See {IERC721-safeTransferFrom}."
      },
      "setApprovalForAll(address,bool)": {
        "details": "See {IERC721-setApprovalForAll}."
      },
      "supportsInterface(bytes4)": {
        "details": "See {IERC165-supportsInterface}."
      },
      "symbol()": {
        "details": "See {IERC721Metadata-symbol}."
      },
      "tokenByIndex(uint256)": {
        "details": "See {IERC721Enumerable-tokenByIndex}."
      },
      "tokenOfOwnerByIndex(address,uint256)": {
        "details": "See {IERC721Enumerable-tokenOfOwnerByIndex}."
      },
      "tokenURI(uint256)": {
        "details": "See {IERC721Metadata-tokenURI}."
      },
      "totalSupply()": {
        "details": "See {IERC721Enumerable-totalSupply}."
      },
      "transferFrom(address,address,uint256)": {
        "details": "See {IERC721-transferFrom}."
      },
      "transferOwnership(address)": {
        "details": "Transfers ownership of the contract to a new account (`newOwner`). Can only be called by the current owner."
      }
    },
    "version": 1
  },
  "userdoc": {
    "kind": "user",
    "methods": {},
    "version": 1
  }
}